{
  "address": "0xD2cb68C10AafCdb10F9729C1bd134deF42aB9ACb",
  "abi": [
    {
      "inputs": [
        {
          "internalType": "address",
          "name": "gatewayAddress",
          "type": "address"
        }
      ],
      "stateMutability": "nonpayable",
      "type": "constructor"
    },
    {
      "inputs": [],
      "name": "ART_ALT_ENDPOINT",
      "outputs": [
        {
          "internalType": "uint64",
          "name": "",
          "type": "uint64"
        }
      ],
      "stateMutability": "view",
      "type": "function"
    },
    {
      "inputs": [],
      "name": "BACKSTORY_ENDPOINT",
      "outputs": [
        {
          "internalType": "uint64",
          "name": "",
          "type": "uint64"
        }
      ],
      "stateMutability": "view",
      "type": "function"
    },
    {
      "inputs": [
        {
          "internalType": "address",
          "name": "",
          "type": "address"
        }
      ],
      "name": "altArt",
      "outputs": [
        {
          "internalType": "string",
          "name": "",
          "type": "string"
        }
      ],
      "stateMutability": "view",
      "type": "function"
    },
    {
      "inputs": [
        {
          "internalType": "address",
          "name": "",
          "type": "address"
        }
      ],
      "name": "backstory",
      "outputs": [
        {
          "internalType": "string",
          "name": "",
          "type": "string"
        }
      ],
      "stateMutability": "view",
      "type": "function"
    },
    {
      "inputs": [
        {
          "internalType": "bytes32",
          "name": "requestId",
          "type": "bytes32"
        }
      ],
      "name": "callback",
      "outputs": [],
      "stateMutability": "nonpayable",
      "type": "function"
    },
    {
      "inputs": [
        {
          "internalType": "string[]",
          "name": "characterDetails",
          "type": "string[]"
        }
      ],
      "name": "generateArtAlt",
      "outputs": [],
      "stateMutability": "nonpayable",
      "type": "function"
    },
    {
      "inputs": [
        {
          "internalType": "string",
          "name": "characterClass",
          "type": "string"
        },
        {
          "internalType": "string",
          "name": "characterRace",
          "type": "string"
        },
        {
          "internalType": "string",
          "name": "characterName",
          "type": "string"
        },
        {
          "internalType": "string",
          "name": "background",
          "type": "string"
        }
      ],
      "name": "generateBackstory",
      "outputs": [],
      "stateMutability": "nonpayable",
      "type": "function"
    },
    {
      "inputs": [
        {
          "internalType": "uint64",
          "name": "_subscriptionId",
          "type": "uint64"
        }
      ],
      "name": "setArtAltEndpoint",
      "outputs": [],
      "stateMutability": "nonpayable",
      "type": "function"
    },
    {
      "inputs": [
        {
          "internalType": "uint64",
          "name": "_subscriptionId",
          "type": "uint64"
        }
      ],
      "name": "setBackstoryEndpoint",
      "outputs": [],
      "stateMutability": "nonpayable",
      "type": "function"
    }
  ],
  "transactionHash": "0xa92341c63b29dcb9c81293f167dfe42cf82e5d10c3349aca1cf39e6ca878d450",
  "args": [
    "0xe1fA8f43D89afE8fcBA4FABbd3e6e6a4C3360409"
  ],
  "numDeployments": 1,
  "solcInputHash": "7fc8b485b18fe0bbe53144453d1e31ac",
  "bytecode": "0x60a0604052600080546001600160801b031916905534801561002057600080fd5b5060405161100f38038061100f83398101604081905261003f91610050565b6001600160a01b0316608052610080565b60006020828403121561006257600080fd5b81516001600160a01b038116811461007957600080fd5b9392505050565b608051610f666100a9600039600081816104aa0152818161055d01526106e30152610f666000f3fe608060405234801561001057600080fd5b50600436106100935760003560e01c8063aace35c511610066578063aace35c51461015f578063c948b8ca14610172578063cb0b934d14610185578063df13994e1461019f578063f18c5c34146101b257600080fd5b806307232bfd146100985780630da411c5146100c15780631e3ebdef146100f45780636fa2577e14610134575b600080fd5b6100ab6100a63660046107d5565b6101c5565b6040516100b89190610849565b60405180910390f35b6100f26100cf366004610871565b6000805467ffffffffffffffff19166001600160401b0392909216919091179055565b005b6100f2610102366004610871565b600080546001600160401b03909216600160401b026fffffffffffffffff000000000000000019909216919091179055565b600054610147906001600160401b031681565b6040516001600160401b0390911681526020016100b8565b6100ab61016d3660046107d5565b61025f565b6100f26101803660046108d6565b610278565b60005461014790600160401b90046001600160401b031681565b6100f26101ad366004610999565b61053d565b6100f26101c03660046109b2565b610640565b600160205260009081526040902080546101de90610a26565b80601f016020809104026020016040519081016040528092919081815260200182805461020a90610a26565b80156102575780601f1061022c57610100808354040283529160200191610257565b820191906000526020600020905b81548152906001019060200180831161023a57829003601f168201915b505050505081565b600260205260009081526040902080546101de90610a26565b600080546001600160401b031690036102d85760405162461bcd60e51b815260206004820152601d60248201527f4261636b73746f727920456e64706f696e74204944206e6f742073657400000060448201526064015b60405180910390fd5b60408051600480825260a08201909252600091816020015b60608152602001906001900390816102f057905050905088888080601f016020809104026020016040519081016040528093929190818152602001838380828437600092018290525085518694509092501515905061035157610351610a76565b602002602001018190525086868080601f0160208091040260200160405190810160405280939291908181526020018383808284376000920191909152505083518492506001915081106103a7576103a7610a76565b602002602001018190525084848080601f0160208091040260200160405190810160405280939291908181526020018383808284376000920191909152505083518492506002915081106103fd576103fd610a76565b602002602001018190525082828080601f01602080910402602001604051908101604052809392919081815260200183838082843760009201919091525050835184925060039150811061045357610453610a76565b6020908102919091018101919091526040805160008082529281019091528161048c565b60608152602001906001900390816104775790505b50600054604051634b60ac1760e11b81529192506001600160a01b037f000000000000000000000000000000000000000000000000000000000000000016916396c1582e916104ed916001600160401b039091169086908690600401610ae1565b6020604051808303816000875af115801561050c573d6000803e3d6000fd5b505050506040513d601f19601f820116820180604052508101906105309190610b7a565b5050505050505050505050565b6040516315b851d160e01b815260048101829052600160248201526000907f00000000000000000000000000000000000000000000000000000000000000006001600160a01b0316906315b851d1906044016000604051808303816000875af11580156105ae573d6000803e3d6000fd5b505050506040513d6000823e601f3d908101601f191682016040526105d69190810190610c4c565b90506001816040015160028111156105f0576105f0610d13565b036106155760005481516001600160401b03918216911603610619576106158161077f565b5050565b60005481516001600160401b03600160401b9092048216911603610615576106158161079e565b60008054600160401b90046001600160401b031690036106a25760405162461bcd60e51b815260206004820152601b60248201527f41727420416c7420456e64706f696e74204944206e6f7420736574000000000060448201526064016102cf565b60408051600080825260208201909252816106cd565b60608152602001906001900390816106b85790505b50600054604051634b60ac1760e11b81529192507f00000000000000000000000000000000000000000000000000000000000000006001600160a01b0316916396c1582e9161073691600160401b9091046001600160401b031690879087908790600401610d52565b6020604051808303816000875af1158015610755573d6000803e3d6000fd5b505050506040513d601f19601f820116820180604052508101906107799190610b7a565b50505050565b6060810151336000908152600160205260409020906106159082610e71565b6060810151336000908152600260205260409020906106159082610e71565b6001600160a01b03811681146107d257600080fd5b50565b6000602082840312156107e757600080fd5b81356107f2816107bd565b9392505050565b60005b838110156108145781810151838201526020016107fc565b50506000910152565b600081518084526108358160208601602086016107f9565b601f01601f19169290920160200192915050565b6020815260006107f2602083018461081d565b6001600160401b03811681146107d257600080fd5b60006020828403121561088357600080fd5b81356107f28161085c565b60008083601f8401126108a057600080fd5b5081356001600160401b038111156108b757600080fd5b6020830191508360208285010111156108cf57600080fd5b9250929050565b6000806000806000806000806080898b0312156108f257600080fd5b88356001600160401b038082111561090957600080fd5b6109158c838d0161088e565b909a50985060208b013591508082111561092e57600080fd5b61093a8c838d0161088e565b909850965060408b013591508082111561095357600080fd5b61095f8c838d0161088e565b909650945060608b013591508082111561097857600080fd5b506109858b828c0161088e565b999c989b5096995094979396929594505050565b6000602082840312156109ab57600080fd5b5035919050565b600080602083850312156109c557600080fd5b82356001600160401b03808211156109dc57600080fd5b818501915085601f8301126109f057600080fd5b8135818111156109ff57600080fd5b8660208260051b8501011115610a1457600080fd5b60209290920196919550909350505050565b600181811c90821680610a3a57607f821691505b602082108103610a5a57634e487b7160e01b600052602260045260246000fd5b50919050565b634e487b7160e01b600052604160045260246000fd5b634e487b7160e01b600052603260045260246000fd5b600081518084526020808501808196508360051b8101915082860160005b85811015610ad4578284038952610ac284835161081d565b98850198935090840190600101610aaa565b5091979650505050505050565b6000608082016001600160401b0386168352602060808185015281865180845260a08601915060a08160051b870101935082880160005b82811015610b4657609f19888703018452610b3486835161081d565b95509284019290840190600101610b18565b50505050508281036040840152610b5d8185610a8c565b8381036060850152600081529050602081015b9695505050505050565b600060208284031215610b8c57600080fd5b5051919050565b60405160a081016001600160401b0381118282101715610bb557610bb5610a60565b60405290565b805160038110610bca57600080fd5b919050565b600082601f830112610be057600080fd5b81516001600160401b0380821115610bfa57610bfa610a60565b604051601f8301601f19908116603f01168101908282118183101715610c2257610c22610a60565b81604052838152866020858801011115610c3b57600080fd5b610b708460208301602089016107f9565b600060208284031215610c5e57600080fd5b81516001600160401b0380821115610c7557600080fd5b9083019060a08286031215610c8957600080fd5b610c91610b93565b8251610c9c8161085c565b81526020830151610cac816107bd565b6020820152610cbd60408401610bbb565b6040820152606083015182811115610cd457600080fd5b610ce087828601610bcf565b606083015250608083015182811115610cf857600080fd5b610d0487828601610bcf565b60808301525095945050505050565b634e487b7160e01b600052602160045260246000fd5b81835281816020850137506000828201602090810191909152601f909101601f19169091010190565b6000608082016001600160401b03808816845260206080818601528287845260a08601905060a08860051b87010193508860005b89811015610dee57878603609f190183528135368c9003601e19018112610dac57600080fd5b8b01848101903586811115610dc057600080fd5b803603821315610dcf57600080fd5b610dda888284610d29565b975050509183019190830190600101610d86565b50505050508281036040840152610e058185610a8c565b838103606085015260008152905060208101979650505050505050565b601f821115610e6c57600081815260208120601f850160051c81016020861015610e495750805b601f850160051c820191505b81811015610e6857828155600101610e55565b5050505b505050565b81516001600160401b03811115610e8a57610e8a610a60565b610e9e81610e988454610a26565b84610e22565b602080601f831160018114610ed35760008415610ebb5750858301515b600019600386901b1c1916600185901b178555610e68565b600085815260208120601f198616915b82811015610f0257888601518255948401946001909101908401610ee3565b5085821015610f205787850151600019600388901b60f8161c191681555b5050505050600190811b0190555056fea2646970667358221220d858780a7f6d153d3250d7445da1065600277208add8e4028f215101fc6cdc1664736f6c63430008140033",
  "devdoc": {
    "kind": "dev",
    "methods": {},
    "version": 1
  },
  "userdoc": {
    "kind": "user",
    "methods": {},
    "version": 1
  },
  "storageLayout": {
    "storage": [
      {
        "astId": 2609,
        "contract": "contracts/BackstoryFunctionClient.sol:BackstoryFunctionClient",
        "label": "BACKSTORY_ENDPOINT",
        "offset": 0,
        "slot": "0",
        "type": "t_uint64"
      },
      {
        "astId": 2612,
        "contract": "contracts/BackstoryFunctionClient.sol:BackstoryFunctionClient",
        "label": "ART_ALT_ENDPOINT",
        "offset": 8,
        "slot": "0",
        "type": "t_uint64"
      },
      {
        "astId": 2616,
        "contract": "contracts/BackstoryFunctionClient.sol:BackstoryFunctionClient",
        "label": "backstory",
        "offset": 0,
        "slot": "1",
        "type": "t_mapping(t_address,t_string_storage)"
      },
      {
        "astId": 2620,
        "contract": "contracts/BackstoryFunctionClient.sol:BackstoryFunctionClient",
        "label": "altArt",
        "offset": 0,
        "slot": "2",
        "type": "t_mapping(t_address,t_string_storage)"
      }
    ],
    "types": {
      "t_address": {
        "encoding": "inplace",
        "label": "address",
        "numberOfBytes": "20"
      },
      "t_mapping(t_address,t_string_storage)": {
        "encoding": "mapping",
        "key": "t_address",
        "label": "mapping(address => string)",
        "numberOfBytes": "32",
        "value": "t_string_storage"
      },
      "t_string_storage": {
        "encoding": "bytes",
        "label": "string",
        "numberOfBytes": "32"
      },
      "t_uint64": {
        "encoding": "inplace",
        "label": "uint64",
        "numberOfBytes": "8"
      }
    }
  }
}