{
  "address": "0x020999680495306B53376190A9C364c8797898f1",
  "abi": [
    {
      "inputs": [
        {
          "internalType": "address",
          "name": "_gamesToken",
          "type": "address"
        }
      ],
      "stateMutability": "nonpayable",
      "type": "constructor"
    },
    {
      "inputs": [],
      "name": "InsufficientFunds",
      "type": "error"
    },
    {
      "inputs": [
        {
          "internalType": "string",
          "name": "message",
          "type": "string"
        }
      ],
      "name": "InvalidArguments",
      "type": "error"
    },
    {
      "inputs": [],
      "name": "OnlyOwner",
      "type": "error"
    },
    {
      "anonymous": false,
      "inputs": [
        {
          "indexed": true,
          "internalType": "address",
          "name": "buyer",
          "type": "address"
        },
        {
          "indexed": false,
          "internalType": "uint256",
          "name": "price",
          "type": "uint256"
        }
      ],
      "name": "BuyMeACeptorWorldEvent",
      "type": "event"
    },
    {
      "anonymous": false,
      "inputs": [
        {
          "indexed": true,
          "internalType": "address",
          "name": "gameMasterAddress",
          "type": "address"
        },
        {
          "indexed": false,
          "internalType": "uint256",
          "name": "time",
          "type": "uint256"
        },
        {
          "indexed": false,
          "internalType": "string",
          "name": "vibe",
          "type": "string"
        },
        {
          "indexed": false,
          "internalType": "string",
          "name": "gameMasterName",
          "type": "string"
        },
        {
          "indexed": false,
          "internalType": "string",
          "name": "gameMasterTwitterHandle",
          "type": "string"
        },
        {
          "indexed": false,
          "internalType": "string",
          "name": "description",
          "type": "string"
        }
      ],
      "name": "NewWorld",
      "type": "event"
    },
    {
      "inputs": [
        {
          "internalType": "string",
          "name": "vibe",
          "type": "string"
        },
        {
          "internalType": "string",
          "name": "gameMasterName",
          "type": "string"
        },
        {
          "internalType": "string",
          "name": "gameMasterTwitterHandle",
          "type": "string"
        },
        {
          "internalType": "string",
          "name": "description",
          "type": "string"
        }
      ],
      "name": "buyWorld",
      "outputs": [],
      "stateMutability": "payable",
      "type": "function"
    },
    {
      "inputs": [],
      "name": "gamesToken",
      "outputs": [
        {
          "internalType": "contract GamesToken",
          "name": "",
          "type": "address"
        }
      ],
      "stateMutability": "view",
      "type": "function"
    },
    {
      "inputs": [],
      "name": "getWorlds",
      "outputs": [
        {
          "components": [
            {
              "internalType": "string",
              "name": "vibe",
              "type": "string"
            },
            {
              "internalType": "string",
              "name": "gameMasterName",
              "type": "string"
            },
            {
              "internalType": "string",
              "name": "gameMasterTwitterHandle",
              "type": "string"
            },
            {
              "internalType": "string",
              "name": "description",
              "type": "string"
            },
            {
              "internalType": "uint256",
              "name": "time",
              "type": "uint256"
            },
            {
              "internalType": "address",
              "name": "gameMasterAddress",
              "type": "address"
            }
          ],
          "internalType": "struct World[]",
          "name": "",
          "type": "tuple[]"
        }
      ],
      "stateMutability": "view",
      "type": "function"
    },
    {
      "inputs": [
        {
          "internalType": "uint256",
          "name": "index",
          "type": "uint256"
        },
        {
          "internalType": "string",
          "name": "description",
          "type": "string"
        }
      ],
      "name": "modifyWorldDescription",
      "outputs": [],
      "stateMutability": "nonpayable",
      "type": "function"
    },
    {
      "inputs": [],
      "name": "owner",
      "outputs": [
        {
          "internalType": "address payable",
          "name": "",
          "type": "address"
        }
      ],
      "stateMutability": "view",
      "type": "function"
    },
    {
      "inputs": [],
      "name": "price",
      "outputs": [
        {
          "internalType": "uint256",
          "name": "",
          "type": "uint256"
        }
      ],
      "stateMutability": "view",
      "type": "function"
    },
    {
      "inputs": [
        {
          "internalType": "uint256",
          "name": "index",
          "type": "uint256"
        }
      ],
      "name": "removeWorld",
      "outputs": [],
      "stateMutability": "nonpayable",
      "type": "function"
    },
    {
      "inputs": [],
      "name": "withdrawTips",
      "outputs": [],
      "stateMutability": "nonpayable",
      "type": "function"
    },
    {
      "inputs": [
        {
          "internalType": "uint256",
          "name": "",
          "type": "uint256"
        }
      ],
      "name": "worlds",
      "outputs": [
        {
          "internalType": "string",
          "name": "vibe",
          "type": "string"
        },
        {
          "internalType": "string",
          "name": "gameMasterName",
          "type": "string"
        },
        {
          "internalType": "string",
          "name": "gameMasterTwitterHandle",
          "type": "string"
        },
        {
          "internalType": "string",
          "name": "description",
          "type": "string"
        },
        {
          "internalType": "uint256",
          "name": "time",
          "type": "uint256"
        },
        {
          "internalType": "address",
          "name": "gameMasterAddress",
          "type": "address"
        }
      ],
      "stateMutability": "view",
      "type": "function"
    },
    {
      "stateMutability": "payable",
      "type": "receive"
    }
  ],
  "transactionHash": "0x800ba2191a578b0b2b1377eef4cc0bb0f76184dad5e08d347848507c6dcc9f88",
  "args": [
    "0xf1866d6A07Fc758EcD1e3b0AbfD6882d986DA940"
  ],
  "numDeployments": 2,
  "solcInputHash": "906c290c6fc2d1010306cc04cd2473c7",
  "bytecode": "0x608060405234801561001057600080fd5b50604051611dbc380380611dbc83398101604081905261002f9161006e565b60008054336001600160a01b031991821617909155678ac7230489e80000600155600380549091166001600160a01b039290921691909117905561009e565b60006020828403121561008057600080fd5b81516001600160a01b038116811461009757600080fd5b9392505050565b611d0f806100ad6000396000f3fe60806040526004361061008a5760003560e01c806354cdd6d41161005957806354cdd6d41461012a5780637c081d4a146101625780637d82c52b146101825780638da5cb5b14610195578063a035b1fe146101b557600080fd5b806320891089146100965780632af84af0146100b85780633a1956ce146100e35780633aaa74b21461011557600080fd5b3661009157005b600080fd5b3480156100a257600080fd5b506100b66100b1366004611661565b6101d9565b005b3480156100c457600080fd5b506100cd610558565b6040516100da9190611762565b60405180910390f35b3480156100ef57600080fd5b506101036100fe36600461183b565b610822565b6040516100da96959493929190611854565b34801561012157600080fd5b506100b6610a98565b34801561013657600080fd5b5060035461014a906001600160a01b031681565b6040516001600160a01b0390911681526020016100da565b34801561016e57600080fd5b506100b661017d36600461183b565b610b81565b6100b661019036600461190e565b611351565b3480156101a157600080fd5b5060005461014a906001600160a01b031681565b3480156101c157600080fd5b506101cb60015481565b6040519081526020016100da565b600254821061022057604051630aec738560e11b815260206004820152600d60248201526c092dcecc2d8d2c840d2dcc8caf609b1b60448201526064015b60405180910390fd5b600060028381548110610235576102356119d2565b90600052602060002090600602016040518060c001604052908160008201805461025e906119e8565b80601f016020809104026020016040519081016040528092919081815260200182805461028a906119e8565b80156102d75780601f106102ac576101008083540402835291602001916102d7565b820191906000526020600020905b8154815290600101906020018083116102ba57829003601f168201915b505050505081526020016001820180546102f0906119e8565b80601f016020809104026020016040519081016040528092919081815260200182805461031c906119e8565b80156103695780601f1061033e57610100808354040283529160200191610369565b820191906000526020600020905b81548152906001019060200180831161034c57829003601f168201915b50505050508152602001600282018054610382906119e8565b80601f01602080910402602001604051908101604052809291908181526020018280546103ae906119e8565b80156103fb5780601f106103d0576101008083540402835291602001916103fb565b820191906000526020600020905b8154815290600101906020018083116103de57829003601f168201915b50505050508152602001600382018054610414906119e8565b80601f0160208091040260200160405190810160405280929190818152602001828054610440906119e8565b801561048d5780601f106104625761010080835404028352916020019161048d565b820191906000526020600020905b81548152906001019060200180831161047057829003601f168201915b5050509183525050600482015460208201526005909101546001600160a01b0390811660409092019190915260a082015191925016331415806104db57506000546001600160a01b03163314155b1561052157604051630aec738560e11b815260206004820152601560248201527413dc195c985d1a5bdb881b9bdd08185b1b1bddd959605a1b6044820152606401610217565b8160028481548110610535576105356119d2565b906000526020600020906006020160030190816105529190611a71565b50505050565b60606002805480602002602001604051908101604052809291908181526020016000905b8282101561081957838290600052602060002090600602016040518060c00160405290816000820180546105af906119e8565b80601f01602080910402602001604051908101604052809291908181526020018280546105db906119e8565b80156106285780601f106105fd57610100808354040283529160200191610628565b820191906000526020600020905b81548152906001019060200180831161060b57829003601f168201915b50505050508152602001600182018054610641906119e8565b80601f016020809104026020016040519081016040528092919081815260200182805461066d906119e8565b80156106ba5780601f1061068f576101008083540402835291602001916106ba565b820191906000526020600020905b81548152906001019060200180831161069d57829003601f168201915b505050505081526020016002820180546106d3906119e8565b80601f01602080910402602001604051908101604052809291908181526020018280546106ff906119e8565b801561074c5780601f106107215761010080835404028352916020019161074c565b820191906000526020600020905b81548152906001019060200180831161072f57829003601f168201915b50505050508152602001600382018054610765906119e8565b80601f0160208091040260200160405190810160405280929190818152602001828054610791906119e8565b80156107de5780601f106107b3576101008083540402835291602001916107de565b820191906000526020600020905b8154815290600101906020018083116107c157829003601f168201915b505050918352505060048201546020808301919091526005909201546001600160a01b0316604090910152908252600192909201910161057c565b50505050905090565b6002818154811061083257600080fd5b9060005260206000209060060201600091509050806000018054610855906119e8565b80601f0160208091040260200160405190810160405280929190818152602001828054610881906119e8565b80156108ce5780601f106108a3576101008083540402835291602001916108ce565b820191906000526020600020905b8154815290600101906020018083116108b157829003601f168201915b5050505050908060010180546108e3906119e8565b80601f016020809104026020016040519081016040528092919081815260200182805461090f906119e8565b801561095c5780601f106109315761010080835404028352916020019161095c565b820191906000526020600020905b81548152906001019060200180831161093f57829003601f168201915b505050505090806002018054610971906119e8565b80601f016020809104026020016040519081016040528092919081815260200182805461099d906119e8565b80156109ea5780601f106109bf576101008083540402835291602001916109ea565b820191906000526020600020905b8154815290600101906020018083116109cd57829003601f168201915b5050505050908060030180546109ff906119e8565b80601f0160208091040260200160405190810160405280929190818152602001828054610a2b906119e8565b8015610a785780601f10610a4d57610100808354040283529160200191610a78565b820191906000526020600020905b815481529060010190602001808311610a5b57829003601f168201915b5050505060048301546005909301549192916001600160a01b0316905086565b6000546001600160a01b03163314610ac357604051635fc483c560e01b815260040160405180910390fd5b47600003610ae45760405163356680b760e01b815260040160405180910390fd5b600080546040516001600160a01b039091169047908381818185875af1925050503d8060008114610b31576040519150601f19603f3d011682016040523d82523d6000602084013e610b36565b606091505b5050905080610b7e5760405162461bcd60e51b81526020600482015260146024820152732330b4b632b2103a379039b2b7321022ba3432b960611b6044820152606401610217565b50565b6002548110610bc357604051630aec738560e11b815260206004820152600d60248201526c092dcecc2d8d2c840d2dcc8caf609b1b6044820152606401610217565b600060028281548110610bd857610bd86119d2565b90600052602060002090600602016040518060c0016040529081600082018054610c01906119e8565b80601f0160208091040260200160405190810160405280929190818152602001828054610c2d906119e8565b8015610c7a5780601f10610c4f57610100808354040283529160200191610c7a565b820191906000526020600020905b815481529060010190602001808311610c5d57829003601f168201915b50505050508152602001600182018054610c93906119e8565b80601f0160208091040260200160405190810160405280929190818152602001828054610cbf906119e8565b8015610d0c5780601f10610ce157610100808354040283529160200191610d0c565b820191906000526020600020905b815481529060010190602001808311610cef57829003601f168201915b50505050508152602001600282018054610d25906119e8565b80601f0160208091040260200160405190810160405280929190818152602001828054610d51906119e8565b8015610d9e5780601f10610d7357610100808354040283529160200191610d9e565b820191906000526020600020905b815481529060010190602001808311610d8157829003601f168201915b50505050508152602001600382018054610db7906119e8565b80601f0160208091040260200160405190810160405280929190818152602001828054610de3906119e8565b8015610e305780601f10610e0557610100808354040283529160200191610e30565b820191906000526020600020905b815481529060010190602001808311610e1357829003601f168201915b5050509183525050600482015460208201526005909101546001600160a01b0390811660409092019190915260a0820151919250163314801590610e7f57506000546001600160a01b03163314155b15610ec557604051630aec738560e11b815260206004820152601560248201527413dc195c985d1a5bdb881b9bdd08185b1b1bddd959605a1b6044820152606401610217565b600060028381548110610eda57610eda6119d2565b90600052602060002090600602016040518060c0016040529081600082018054610f03906119e8565b80601f0160208091040260200160405190810160405280929190818152602001828054610f2f906119e8565b8015610f7c5780601f10610f5157610100808354040283529160200191610f7c565b820191906000526020600020905b815481529060010190602001808311610f5f57829003601f168201915b50505050508152602001600182018054610f95906119e8565b80601f0160208091040260200160405190810160405280929190818152602001828054610fc1906119e8565b801561100e5780601f10610fe35761010080835404028352916020019161100e565b820191906000526020600020905b815481529060010190602001808311610ff157829003601f168201915b50505050508152602001600282018054611027906119e8565b80601f0160208091040260200160405190810160405280929190818152602001828054611053906119e8565b80156110a05780601f10611075576101008083540402835291602001916110a0565b820191906000526020600020905b81548152906001019060200180831161108357829003601f168201915b505050505081526020016003820180546110b9906119e8565b80601f01602080910402602001604051908101604052809291908181526020018280546110e5906119e8565b80156111325780601f1061110757610100808354040283529160200191611132565b820191906000526020600020905b81548152906001019060200180831161111557829003601f168201915b5050509183525050600482015460208201526005909101546001600160a01b0316604090910152600280549192509061116d90600190611b31565b8154811061117d5761117d6119d2565b90600052602060002090600602016002848154811061119e5761119e6119d2565b60009182526020909120600690910201806111b98382611b58565b506001818101906111cc90840182611b58565b506002818101906111df90840182611b58565b506003818101906111f290840182611b58565b5060048281015490820155600591820154910180546001600160a01b0319166001600160a01b039092169190911790556002805482919061123590600190611b31565b81548110611245576112456119d2565b6000918252602090912082516006909202019081906112649082611a71565b50602082015160018201906112799082611a71565b506040820151600282019061128e9082611a71565b50606082015160038201906112a39082611a71565b506080820151600482015560a090910151600590910180546001600160a01b0319166001600160a01b0390921691909117905560028054806112e7576112e7611c33565b6000828152602081206000199092019160068302019061130782826115fd565b6113156001830160006115fd565b6113236002830160006115fd565b6113316003830160006115fd565b506000600482015560050180546001600160a01b03191690559055505050565b6001543410156113745760405163356680b760e01b815260040160405180910390fd5b60405134815233907f51af70828e001e43c03fdaeaa7b0566d85d6ca32cbe6dbb863e517af913c80ff9060200160405180910390a2841580156113b5575080155b1561141157604051630aec738560e11b815260206004820152602560248201527f496e76616c69642067616d654d61737465724e616d65206f7220646573637269604482015264383a34b7b760d91b6064820152608401610217565b6040805160e06020601f8b01819004028201810190925260c081018981526002928291908c908c9081908501838280828437600092019190915250505090825250604080516020601f8b0181900481028201810190925289815291810191908a908a9081908401838280828437600092019190915250505090825250604080516020601f890181900481028201810190925287815291810191908890889081908401838280828437600092019190915250505090825250604080516020601f8701819004810282018101909252858152918101919086908690819084018382808284376000920182905250938552505042602080850191909152336040909401939093525083546001810185559381522081519192600602019081906115379082611a71565b506020820151600182019061154c9082611a71565b50604082015160028201906115619082611a71565b50606082015160038201906115769082611a71565b506080820151600482015560a090910151600590910180546001600160a01b0319166001600160a01b0390921691909117905560405133907fdc5d3ce31adddd945bbdcce5d8623f0a925872c51fbba0957a3721a21d5f4e69906115eb9042908c908c908c908c908c908c908c908c90611c72565b60405180910390a25050505050505050565b508054611609906119e8565b6000825580601f10611619575050565b601f016020900490600052602060002090810190610b7e91905b808211156116475760008155600101611633565b5090565b634e487b7160e01b600052604160045260246000fd5b6000806040838503121561167457600080fd5b82359150602083013567ffffffffffffffff8082111561169357600080fd5b818501915085601f8301126116a757600080fd5b8135818111156116b9576116b961164b565b604051601f8201601f19908116603f011681019083821181831017156116e1576116e161164b565b816040528281528860208487010111156116fa57600080fd5b8260208601602083013760006020848301015280955050505050509250929050565b6000815180845260005b8181101561174257602081850181015186830182015201611726565b506000602082860101526020601f19601f83011685010191505092915050565b60006020808301818452808551808352604092508286019150828160051b87010184880160005b8381101561182d57603f19898403018552815160c081518186526117af8287018261171c565b915050888201518582038a8701526117c7828261171c565b91505087820151858203898701526117df828261171c565b915050606080830151868303828801526117f9838261171c565b6080858101519089015260a0948501516001600160a01b031694909701939093525050509386019390860190600101611789565b509098975050505050505050565b60006020828403121561184d57600080fd5b5035919050565b60c08152600061186760c083018961171c565b8281036020840152611879818961171c565b9050828103604084015261188d818861171c565b905082810360608401526118a1818761171c565b608084019590955250506001600160a01b039190911660a090910152949350505050565b60008083601f8401126118d757600080fd5b50813567ffffffffffffffff8111156118ef57600080fd5b60208301915083602082850101111561190757600080fd5b9250929050565b6000806000806000806000806080898b03121561192a57600080fd5b883567ffffffffffffffff8082111561194257600080fd5b61194e8c838d016118c5565b909a50985060208b013591508082111561196757600080fd5b6119738c838d016118c5565b909850965060408b013591508082111561198c57600080fd5b6119988c838d016118c5565b909650945060608b01359150808211156119b157600080fd5b506119be8b828c016118c5565b999c989b5096995094979396929594505050565b634e487b7160e01b600052603260045260246000fd5b600181811c908216806119fc57607f821691505b602082108103611a1c57634e487b7160e01b600052602260045260246000fd5b50919050565b601f821115611a6c57600081815260208120601f850160051c81016020861015611a495750805b601f850160051c820191505b81811015611a6857828155600101611a55565b5050505b505050565b815167ffffffffffffffff811115611a8b57611a8b61164b565b611a9f81611a9984546119e8565b84611a22565b602080601f831160018114611ad45760008415611abc5750858301515b600019600386901b1c1916600185901b178555611a68565b600085815260208120601f198616915b82811015611b0357888601518255948401946001909101908401611ae4565b5085821015611b215787850151600019600388901b60f8161c191681555b5050505050600190811b01905550565b81810381811115611b5257634e487b7160e01b600052601160045260246000fd5b92915050565b818103611b63575050565b611b6d82546119e8565b67ffffffffffffffff811115611b8557611b8561164b565b611b9381611a9984546119e8565b6000601f821160018114611bc75760008315611baf5750848201545b600019600385901b1c1916600184901b178455611c2c565b600085815260209020601f19841690600086815260209020845b83811015611c015782860154825560019586019590910190602001611be1565b5085831015611c1f5781850154600019600388901b60f8161c191681555b50505060018360011b0184555b5050505050565b634e487b7160e01b600052603160045260246000fd5b81835281816020850137506000828201602090810191909152601f909101601f19169091010190565b89815260a060208201526000611c8c60a083018a8c611c49565b8281036040840152611c9f81898b611c49565b90508281036060840152611cb4818789611c49565b90508281036080840152611cc9818587611c49565b9c9b50505050505050505050505056fea264697066735822122054b943bc5ad0029cb0793d678dabef90b9d17186529191149e58b50633802a8c64736f6c63430008140033",
  "devdoc": {
    "details": "BuyMeACeptorWorld contract to accept donations and for our users to create a world for us",
    "kind": "dev",
    "methods": {
      "buyWorld(string,string,string,string)": {
        "details": "Function to buy a world",
        "params": {
          "description": "The description of the world (Note: Using calldata for gas efficiency)",
          "gameMasterName": "The name of the game master",
          "gameMasterTwitterHandle": "The Twitter handle of the game master"
        }
      },
      "getWorlds()": {
        "details": "Function to get the worlds"
      },
      "modifyWorldDescription(uint256,string)": {
        "details": "Function to modify a world description",
        "params": {
          "description": "The description of the world",
          "index": "The index of the world"
        }
      },
      "removeWorld(uint256)": {
        "details": "Function to remove a world",
        "params": {
          "index": "The index of the world"
        }
      },
      "withdrawTips()": {
        "details": "Function to withdraw the balance"
      }
    },
    "title": "BuyMeACeptorWorld",
    "version": 1
  },
  "userdoc": {
    "kind": "user",
    "methods": {},
    "version": 1
  },
  "storageLayout": {
    "storage": [
      {
        "astId": 3815,
        "contract": "contracts/BuyMeACeptor.sol:BuyMeACeptor",
        "label": "owner",
        "offset": 0,
        "slot": "0",
        "type": "t_address_payable"
      },
      {
        "astId": 3817,
        "contract": "contracts/BuyMeACeptor.sol:BuyMeACeptor",
        "label": "price",
        "offset": 0,
        "slot": "1",
        "type": "t_uint256"
      },
      {
        "astId": 3821,
        "contract": "contracts/BuyMeACeptor.sol:BuyMeACeptor",
        "label": "worlds",
        "offset": 0,
        "slot": "2",
        "type": "t_array(t_struct(World)3812_storage)dyn_storage"
      },
      {
        "astId": 3824,
        "contract": "contracts/BuyMeACeptor.sol:BuyMeACeptor",
        "label": "gamesToken",
        "offset": 0,
        "slot": "3",
        "type": "t_contract(GamesToken)5551"
      }
    ],
    "types": {
      "t_address": {
        "encoding": "inplace",
        "label": "address",
        "numberOfBytes": "20"
      },
      "t_address_payable": {
        "encoding": "inplace",
        "label": "address payable",
        "numberOfBytes": "20"
      },
      "t_array(t_struct(World)3812_storage)dyn_storage": {
        "base": "t_struct(World)3812_storage",
        "encoding": "dynamic_array",
        "label": "struct World[]",
        "numberOfBytes": "32"
      },
      "t_contract(GamesToken)5551": {
        "encoding": "inplace",
        "label": "contract GamesToken",
        "numberOfBytes": "20"
      },
      "t_string_storage": {
        "encoding": "bytes",
        "label": "string",
        "numberOfBytes": "32"
      },
      "t_struct(World)3812_storage": {
        "encoding": "inplace",
        "label": "struct World",
        "members": [
          {
            "astId": 3801,
            "contract": "contracts/BuyMeACeptor.sol:BuyMeACeptor",
            "label": "vibe",
            "offset": 0,
            "slot": "0",
            "type": "t_string_storage"
          },
          {
            "astId": 3803,
            "contract": "contracts/BuyMeACeptor.sol:BuyMeACeptor",
            "label": "gameMasterName",
            "offset": 0,
            "slot": "1",
            "type": "t_string_storage"
          },
          {
            "astId": 3805,
            "contract": "contracts/BuyMeACeptor.sol:BuyMeACeptor",
            "label": "gameMasterTwitterHandle",
            "offset": 0,
            "slot": "2",
            "type": "t_string_storage"
          },
          {
            "astId": 3807,
            "contract": "contracts/BuyMeACeptor.sol:BuyMeACeptor",
            "label": "description",
            "offset": 0,
            "slot": "3",
            "type": "t_string_storage"
          },
          {
            "astId": 3809,
            "contract": "contracts/BuyMeACeptor.sol:BuyMeACeptor",
            "label": "time",
            "offset": 0,
            "slot": "4",
            "type": "t_uint256"
          },
          {
            "astId": 3811,
            "contract": "contracts/BuyMeACeptor.sol:BuyMeACeptor",
            "label": "gameMasterAddress",
            "offset": 0,
            "slot": "5",
            "type": "t_address"
          }
        ],
        "numberOfBytes": "192"
      },
      "t_uint256": {
        "encoding": "inplace",
        "label": "uint256",
        "numberOfBytes": "32"
      }
    }
  }
}