{
  "address": "0x5Fa21F0cf1B2F7e8F0EbAE9c3371c8271b0F73e3",
  "abi": [
    {
      "inputs": [
        {
          "internalType": "address",
          "name": "router",
          "type": "address"
        },
        {
          "internalType": "bytes32",
          "name": "initialDonId",
          "type": "bytes32"
        },
        {
          "internalType": "address",
          "name": "initialOwner",
          "type": "address"
        }
      ],
      "stateMutability": "nonpayable",
      "type": "constructor"
    },
    {
      "inputs": [],
      "name": "AccessControlBadConfirmation",
      "type": "error"
    },
    {
      "inputs": [
        {
          "internalType": "address",
          "name": "account",
          "type": "address"
        },
        {
          "internalType": "bytes32",
          "name": "neededRole",
          "type": "bytes32"
        }
      ],
      "name": "AccessControlUnauthorizedAccount",
      "type": "error"
    },
    {
      "inputs": [],
      "name": "CCGOnlyManagerAllowed",
      "type": "error"
    },
    {
      "inputs": [
        {
          "internalType": "bytes32",
          "name": "requestId",
          "type": "bytes32"
        }
      ],
      "name": "CCGOnlySameSourceAllowed",
      "type": "error"
    },
    {
      "inputs": [
        {
          "internalType": "bytes32",
          "name": "requestId",
          "type": "bytes32"
        }
      ],
      "name": "CCGRequestAlreadyFulfilled",
      "type": "error"
    },
    {
      "inputs": [],
      "name": "CCGRequestNameEmpty",
      "type": "error"
    },
    {
      "inputs": [
        {
          "internalType": "uint64",
          "name": "subscriptionId",
          "type": "uint64"
        }
      ],
      "name": "CCGRequestNotRegistered",
      "type": "error"
    },
    {
      "inputs": [],
      "name": "EmptyArgs",
      "type": "error"
    },
    {
      "inputs": [],
      "name": "EmptySource",
      "type": "error"
    },
    {
      "inputs": [],
      "name": "NoInlineSecrets",
      "type": "error"
    },
    {
      "inputs": [],
      "name": "OnlyRouterCanFulfill",
      "type": "error"
    },
    {
      "anonymous": false,
      "inputs": [
        {
          "indexed": true,
          "internalType": "bytes32",
          "name": "id",
          "type": "bytes32"
        }
      ],
      "name": "RequestFulfilled",
      "type": "event"
    },
    {
      "anonymous": false,
      "inputs": [
        {
          "indexed": true,
          "internalType": "bytes32",
          "name": "id",
          "type": "bytes32"
        }
      ],
      "name": "RequestSent",
      "type": "event"
    },
    {
      "anonymous": false,
      "inputs": [
        {
          "indexed": true,
          "internalType": "bytes32",
          "name": "role",
          "type": "bytes32"
        },
        {
          "indexed": true,
          "internalType": "bytes32",
          "name": "previousAdminRole",
          "type": "bytes32"
        },
        {
          "indexed": true,
          "internalType": "bytes32",
          "name": "newAdminRole",
          "type": "bytes32"
        }
      ],
      "name": "RoleAdminChanged",
      "type": "event"
    },
    {
      "anonymous": false,
      "inputs": [
        {
          "indexed": true,
          "internalType": "bytes32",
          "name": "role",
          "type": "bytes32"
        },
        {
          "indexed": true,
          "internalType": "address",
          "name": "account",
          "type": "address"
        },
        {
          "indexed": true,
          "internalType": "address",
          "name": "sender",
          "type": "address"
        }
      ],
      "name": "RoleGranted",
      "type": "event"
    },
    {
      "anonymous": false,
      "inputs": [
        {
          "indexed": true,
          "internalType": "bytes32",
          "name": "role",
          "type": "bytes32"
        },
        {
          "indexed": true,
          "internalType": "address",
          "name": "account",
          "type": "address"
        },
        {
          "indexed": true,
          "internalType": "address",
          "name": "sender",
          "type": "address"
        }
      ],
      "name": "RoleRevoked",
      "type": "event"
    },
    {
      "inputs": [],
      "name": "CLIENT_ROLE",
      "outputs": [
        {
          "internalType": "bytes32",
          "name": "",
          "type": "bytes32"
        }
      ],
      "stateMutability": "view",
      "type": "function"
    },
    {
      "inputs": [],
      "name": "DEFAULT_ADMIN_ROLE",
      "outputs": [
        {
          "internalType": "bytes32",
          "name": "",
          "type": "bytes32"
        }
      ],
      "stateMutability": "view",
      "type": "function"
    },
    {
      "inputs": [],
      "name": "MANAGER_ROLE",
      "outputs": [
        {
          "internalType": "bytes32",
          "name": "",
          "type": "bytes32"
        }
      ],
      "stateMutability": "view",
      "type": "function"
    },
    {
      "inputs": [],
      "name": "donId",
      "outputs": [
        {
          "internalType": "bytes32",
          "name": "",
          "type": "bytes32"
        }
      ],
      "stateMutability": "view",
      "type": "function"
    },
    {
      "inputs": [
        {
          "internalType": "uint64",
          "name": "subscriptionId",
          "type": "uint64"
        }
      ],
      "name": "getRequest",
      "outputs": [
        {
          "components": [
            {
              "internalType": "string",
              "name": "name",
              "type": "string"
            },
            {
              "internalType": "uint32",
              "name": "callbackGasLimit",
              "type": "uint32"
            },
            {
              "components": [
                {
                  "internalType": "enum FunctionsRequest.Location",
                  "name": "codeLocation",
                  "type": "uint8"
                },
                {
                  "internalType": "enum FunctionsRequest.Location",
                  "name": "secretsLocation",
                  "type": "uint8"
                },
                {
                  "internalType": "enum FunctionsRequest.CodeLanguage",
                  "name": "language",
                  "type": "uint8"
                },
                {
                  "internalType": "string",
                  "name": "source",
                  "type": "string"
                },
                {
                  "internalType": "bytes",
                  "name": "encryptedSecretsReference",
                  "type": "bytes"
                },
                {
                  "internalType": "string[]",
                  "name": "args",
                  "type": "string[]"
                },
                {
                  "internalType": "bytes[]",
                  "name": "bytesArgs",
                  "type": "bytes[]"
                }
              ],
              "internalType": "struct FunctionsRequest.Request",
              "name": "config",
              "type": "tuple"
            }
          ],
          "internalType": "struct ICCGateway.CCGRequest",
          "name": "",
          "type": "tuple"
        }
      ],
      "stateMutability": "view",
      "type": "function"
    },
    {
      "inputs": [
        {
          "internalType": "bytes32",
          "name": "requestId",
          "type": "bytes32"
        },
        {
          "internalType": "bool",
          "name": "remove",
          "type": "bool"
        }
      ],
      "name": "getResponse",
      "outputs": [
        {
          "components": [
            {
              "internalType": "uint64",
              "name": "subscriptionId",
              "type": "uint64"
            },
            {
              "internalType": "address",
              "name": "source",
              "type": "address"
            },
            {
              "internalType": "enum ICCGatewayClient.CCGResponseState",
              "name": "state",
              "type": "uint8"
            },
            {
              "internalType": "bytes",
              "name": "data",
              "type": "bytes"
            },
            {
              "internalType": "bytes",
              "name": "error",
              "type": "bytes"
            }
          ],
          "internalType": "struct ICCGatewayClient.CCGResponse",
          "name": "response",
          "type": "tuple"
        }
      ],
      "stateMutability": "nonpayable",
      "type": "function"
    },
    {
      "inputs": [
        {
          "internalType": "bytes32",
          "name": "role",
          "type": "bytes32"
        }
      ],
      "name": "getRoleAdmin",
      "outputs": [
        {
          "internalType": "bytes32",
          "name": "",
          "type": "bytes32"
        }
      ],
      "stateMutability": "view",
      "type": "function"
    },
    {
      "inputs": [
        {
          "internalType": "bytes32",
          "name": "role",
          "type": "bytes32"
        },
        {
          "internalType": "address",
          "name": "account",
          "type": "address"
        }
      ],
      "name": "grantRole",
      "outputs": [],
      "stateMutability": "nonpayable",
      "type": "function"
    },
    {
      "inputs": [
        {
          "internalType": "bytes32",
          "name": "requestId",
          "type": "bytes32"
        },
        {
          "internalType": "bytes",
          "name": "response",
          "type": "bytes"
        },
        {
          "internalType": "bytes",
          "name": "err",
          "type": "bytes"
        }
      ],
      "name": "handleOracleFulfillment",
      "outputs": [],
      "stateMutability": "nonpayable",
      "type": "function"
    },
    {
      "inputs": [
        {
          "internalType": "bytes32",
          "name": "role",
          "type": "bytes32"
        },
        {
          "internalType": "address",
          "name": "account",
          "type": "address"
        }
      ],
      "name": "hasRole",
      "outputs": [
        {
          "internalType": "bool",
          "name": "",
          "type": "bool"
        }
      ],
      "stateMutability": "view",
      "type": "function"
    },
    {
      "inputs": [
        {
          "internalType": "uint64",
          "name": "subscriptionId",
          "type": "uint64"
        },
        {
          "internalType": "enum FunctionsRequest.Location",
          "name": "codeLocation",
          "type": "uint8"
        },
        {
          "internalType": "string",
          "name": "source",
          "type": "string"
        },
        {
          "internalType": "enum FunctionsRequest.Location",
          "name": "secretsLocation",
          "type": "uint8"
        },
        {
          "internalType": "bytes",
          "name": "encryptedSecretsReference",
          "type": "bytes"
        },
        {
          "internalType": "uint32",
          "name": "callbackGasLimit",
          "type": "uint32"
        },
        {
          "internalType": "string",
          "name": "name",
          "type": "string"
        }
      ],
      "name": "registerRequest",
      "outputs": [],
      "stateMutability": "nonpayable",
      "type": "function"
    },
    {
      "inputs": [
        {
          "internalType": "bytes32",
          "name": "role",
          "type": "bytes32"
        },
        {
          "internalType": "address",
          "name": "callerConfirmation",
          "type": "address"
        }
      ],
      "name": "renounceRole",
      "outputs": [],
      "stateMutability": "nonpayable",
      "type": "function"
    },
    {
      "inputs": [
        {
          "internalType": "bytes32",
          "name": "role",
          "type": "bytes32"
        },
        {
          "internalType": "address",
          "name": "account",
          "type": "address"
        }
      ],
      "name": "revokeRole",
      "outputs": [],
      "stateMutability": "nonpayable",
      "type": "function"
    },
    {
      "inputs": [
        {
          "internalType": "uint64",
          "name": "subscriptionId",
          "type": "uint64"
        },
        {
          "internalType": "string[]",
          "name": "args",
          "type": "string[]"
        },
        {
          "internalType": "bytes[]",
          "name": "bytesArgs",
          "type": "bytes[]"
        },
        {
          "internalType": "bytes",
          "name": "encryptedSecretsReference",
          "type": "bytes"
        }
      ],
      "name": "sendRequest",
      "outputs": [
        {
          "internalType": "bytes32",
          "name": "requestId",
          "type": "bytes32"
        }
      ],
      "stateMutability": "nonpayable",
      "type": "function"
    },
    {
      "inputs": [
        {
          "internalType": "bytes32",
          "name": "newDonId",
          "type": "bytes32"
        }
      ],
      "name": "setDonId",
      "outputs": [],
      "stateMutability": "nonpayable",
      "type": "function"
    },
    {
      "inputs": [
        {
          "internalType": "bytes4",
          "name": "interfaceId",
          "type": "bytes4"
        }
      ],
      "name": "supportsInterface",
      "outputs": [
        {
          "internalType": "bool",
          "name": "",
          "type": "bool"
        }
      ],
      "stateMutability": "view",
      "type": "function"
    }
  ],
  "transactionHash": "0x7a93c89b0fb5a98de3f5d9bf986322c23bee7c08dba2dee2e2009da3b85885b1",
  "args": [
    "0xb83E47C2bC239B3bf370bc41e1459A34b41238D0",
    "0x66756e2d657468657265756d2d7365706f6c69612d3100000000000000000000",
    "0xAD849E351533Db54D0BD22De977a653edfd9EEb8"
  ],
  "numDeployments": 1,
  "solcInputHash": "53149b43bdceb93f30f39d8cad0df810",
  "bytecode": "0x60a06040523480156200001157600080fd5b5060405162002b3738038062002b3783398101604081905262000034916200016e565b6001600160a01b0380841660805260018390556000908216156200005957816200005b565b335b90506200006a600082620000a2565b50620000977f241ecf16d79d0f8dbfb92cbc07fe17840425976cf0667f022fe9877caa831b0882620000a2565b5050505050620001af565b6000828152602081815260408083206001600160a01b038516845290915281205460ff1662000147576000838152602081815260408083206001600160a01b03861684529091529020805460ff19166001179055620000fe3390565b6001600160a01b0316826001600160a01b0316847f2f8788117e7eff1d82e926ec794901d17c78024a50270940304540a733656f0d60405160405180910390a45060016200014b565b5060005b92915050565b80516001600160a01b03811681146200016957600080fd5b919050565b6000806000606084860312156200018457600080fd5b6200018f8462000151565b925060208401519150620001a66040850162000151565b90509250925092565b608051612965620001d2600039600081816102c6015261173801526129656000f3fe608060405234801561001057600080fd5b50600436106101005760003560e01c806391d1485411610097578063cbbf67ec11610066578063cbbf67ec14610215578063d547741f14610235578063eae6f65214610248578063ec87621c1461026f57600080fd5b806391d14854146101d457806396c1582e146101e7578063a217fddf146101fa578063c8ab5f221461020257600080fd5b80632f2ff15d116100d35780632f2ff15d1461019357806336568abe146101a657806378ca5de7146101b95780638dbe7b9d146101cc57600080fd5b806301ffc9a7146101055780630ca761751461012d57806315b851d114610142578063248a9ca314610162575b600080fd5b610118610113366004611d8e565b610284565b60405190151581526020015b60405180910390f35b61014061013b366004611e75565b6102bb565b005b610155610150366004611ee1565b61033f565b6040516101249190611f82565b610185610170366004611ffe565b60009081526020819052604090206001015490565b604051908152602001610124565b6101406101a1366004612017565b610596565b6101406101b4366004612017565b6105c1565b6101406101c7366004611ffe565b6105f9565b600154610185565b6101186101e2366004612017565b610641565b6101856101f53660046120eb565b61066a565b610185600081565b6101406102103660046121a4565b610b4c565b610228610223366004612292565b610c50565b6040516101249190612316565b610140610243366004612017565b611127565b6101857fa5ff3ec7a96cdbba4d2d5172d66bbc73c6db3885f29b21be5da9fa7a7c02523281565b61018560008051602061291083398151915281565b60006001600160e01b03198216637965db0b60e01b14806102b557506301ffc9a760e01b6001600160e01b03198316145b92915050565b336001600160a01b037f000000000000000000000000000000000000000000000000000000000000000016146103045760405163c6829f8360e01b815260040160405180910390fd5b61030f83838361114c565b60405183907f85e1543bf2f84fe80c6badbce3648c8539ad1df4d2b3d822938ca0538be727e690600090a2505050565b6040805160a081018252600080825260208201819052918101919091526060808201819052608082015260008381526003602052604090205483906001600160a01b03600160401b9091041633146103b25760405163949aaf2d60e01b8152600481018290526024015b60405180910390fd5b600084815260036020908152604091829020825160a08101845281546001600160401b0381168252600160401b81046001600160a01b03169382019390935292909190830190600160e01b900460ff16600281111561041357610413611f16565b600281111561042457610424611f16565b8152602001600182018054610438906123fc565b80601f0160208091040260200160405190810160405280929190818152602001828054610464906123fc565b80156104b15780601f10610486576101008083540402835291602001916104b1565b820191906000526020600020905b81548152906001019060200180831161049457829003601f168201915b505050505081526020016002820180546104ca906123fc565b80601f01602080910402602001604051908101604052809291908181526020018280546104f6906123fc565b80156105435780601f1061051857610100808354040283529160200191610543565b820191906000526020600020905b81548152906001019060200180831161052657829003601f168201915b5050505050815250509150821561058f57600084815260036020526040812080546001600160e81b03191681559061057e6001830182611ca9565b61058c600283016000611ca9565b50505b5092915050565b6000828152602081905260409020600101546105b18161127f565b6105bb838361128c565b50505050565b6001600160a01b03811633146105ea5760405163334bd91960e11b815260040160405180910390fd5b6105f4828261131e565b505050565b60008051602061291083398151915260009081526020527fe84508f2c7fa9c351146748b3025cb78b45df37d868e48c6a75102fecdeee6465461063b8161127f565b50600155565b6000918252602082815260408084206001600160a01b0393909316845291905290205460ff1690565b60007fa5ff3ec7a96cdbba4d2d5172d66bbc73c6db3885f29b21be5da9fa7a7c0252326106968161127f565b6001600160401b0389166000908152600260205260409020805481906106bb906123fc565b90506000036106e857604051630601bb0160e21b81526001600160401b038b1660048201526024016103a9565b6040805160e081019091526002808301805460009392839160ff169081111561071357610713611f16565b600281111561072457610724611f16565b81528154602090910190610100900460ff16600281111561074757610747611f16565b600281111561075857610758611f16565b8152815460209091019062010000900460ff16801561077957610779611f16565b801561078757610787611f16565b815260200160018201805461079b906123fc565b80601f01602080910402602001604051908101604052809291908181526020018280546107c7906123fc565b80156108145780601f106107e957610100808354040283529160200191610814565b820191906000526020600020905b8154815290600101906020018083116107f757829003601f168201915b5050505050815260200160028201805461082d906123fc565b80601f0160208091040260200160405190810160405280929190818152602001828054610859906123fc565b80156108a65780601f1061087b576101008083540402835291602001916108a6565b820191906000526020600020905b81548152906001019060200180831161088957829003601f168201915b5050505050815260200160038201805480602002602001604051908101604052809291908181526020016000905b828210156109805783829060005260206000200180546108f3906123fc565b80601f016020809104026020016040519081016040528092919081815260200182805461091f906123fc565b801561096c5780601f106109415761010080835404028352916020019161096c565b820191906000526020600020905b81548152906001019060200180831161094f57829003601f168201915b5050505050815260200190600101906108d4565b50505050815260200160048201805480602002602001604051908101604052809291908181526020016000905b82821015610a595783829060005260206000200180546109cc906123fc565b80601f01602080910402602001604051908101604052809291908181526020018280546109f8906123fc565b8015610a455780601f10610a1a57610100808354040283529160200191610a45565b820191906000526020600020905b815481529060010190602001808311610a2857829003601f168201915b5050505050815260200190600101906109ad565b5050509152505080516060820151919250610a7991839190600090611389565b8415610abb5785858080601f01602080910402602001604051908101604052809392919081815260200183838082843760009201919091525050505060808201525b8815610ad557610ad5610ace8a8c612459565b8290611407565b8615610aef57610aef610ae8888a6124e5565b8290611431565b610b11610afb8261145b565b60018085015490548e9163ffffffff1690611733565b6000818152600360205260409020805468010000000000000000600160e81b031916600160401b33021790559b9a5050505050505050505050565b600080516020612910833981519152610b648161127f565b6000829003610b865760405163281b14ab60e01b815260040160405180910390fd5b6001600160401b038b16600090815260026020526040902080610baa84868361259a565b506001818101805463ffffffff191663ffffffff88161790556002808301805462ff000019811682558e93919262ff00ff1990911691908490811115610bf257610bf2611f16565b021790555060038101610c068a8c8361259a565b50600280820180548a9261ff001990911690610100908490811115610c2d57610c2d611f16565b021790555060048101610c4187898361259a565b50505050505050505050505050565b610c58611ce3565b610c7060008051602061291083398151915232610641565b610c8d5760405163129d730760e01b815260040160405180910390fd5b6001600160401b03821660009081526002602052604090208054610cb0906123fc565b9050600003610cdd57604051630601bb0160e21b81526001600160401b03831660048201526024016103a9565b6001600160401b03821660009081526002602052604090819020815160608101909252805482908290610d0f906123fc565b80601f0160208091040260200160405190810160405280929190818152602001828054610d3b906123fc565b8015610d885780601f10610d5d57610100808354040283529160200191610d88565b820191906000526020600020905b815481529060010190602001808311610d6b57829003601f168201915b5050509183525050600182015463ffffffff1660208201526040805160e0810182526002808501805493909401939192839160ff90911690811115610dcf57610dcf611f16565b6002811115610de057610de0611f16565b81528154602090910190610100900460ff166002811115610e0357610e03611f16565b6002811115610e1457610e14611f16565b8152815460209091019062010000900460ff168015610e3557610e35611f16565b8015610e4357610e43611f16565b8152602001600182018054610e57906123fc565b80601f0160208091040260200160405190810160405280929190818152602001828054610e83906123fc565b8015610ed05780601f10610ea557610100808354040283529160200191610ed0565b820191906000526020600020905b815481529060010190602001808311610eb357829003601f168201915b50505050508152602001600282018054610ee9906123fc565b80601f0160208091040260200160405190810160405280929190818152602001828054610f15906123fc565b8015610f625780601f10610f3757610100808354040283529160200191610f62565b820191906000526020600020905b815481529060010190602001808311610f4557829003601f168201915b5050505050815260200160038201805480602002602001604051908101604052809291908181526020016000905b8282101561103c578382906000526020600020018054610faf906123fc565b80601f0160208091040260200160405190810160405280929190818152602001828054610fdb906123fc565b80156110285780601f10610ffd57610100808354040283529160200191611028565b820191906000526020600020905b81548152906001019060200180831161100b57829003601f168201915b505050505081526020019060010190610f90565b50505050815260200160048201805480602002602001604051908101604052809291908181526020016000905b82821015611115578382906000526020600020018054611088906123fc565b80601f01602080910402602001604051908101604052809291908181526020018280546110b4906123fc565b80156111015780601f106110d657610100808354040283529160200191611101565b820191906000526020600020905b8154815290600101906020018083116110e457829003601f168201915b505050505081526020019060010190611069565b5050509152505090525090505b919050565b6000828152602081905260409020600101546111428161127f565b6105bb838361131e565b6000838152600360205260408120908154600160e01b900460ff16600281111561117857611178611f16565b14611198576040516287aa6360e01b8152600481018590526024016103a9565b60008251116111a85760016111ab565b60025b6000858152600360205260409020805460ff60e01b1916600160e01b8360028111156111d9576111d9611f16565b021790555060008481526003602052604090206001016111f9848261265a565b506000848152600360205260409020600201611215838261265a565b508054604051636f89cca760e11b815260048101869052600160401b9091046001600160a01b03169063df13994e90602401600060405180830381600087803b15801561126157600080fd5b505af1158015611275573d6000803e3d6000fd5b5050505050505050565b6112898133611805565b50565b60006112988383610641565b611316576000838152602081815260408083206001600160a01b03861684529091529020805460ff191660011790556112ce3390565b6001600160a01b0316826001600160a01b0316847f2f8788117e7eff1d82e926ec794901d17c78024a50270940304540a733656f0d60405160405180910390a45060016102b5565b5060006102b5565b600061132a8383610641565b15611316576000838152602081815260408083206001600160a01b0386168085529252808320805460ff1916905551339286917ff6391f5c32d9c69d2a47ea670b442974b53935d1edc7fd64eb21e047a839171b9190a45060016102b5565b80516000036113ab576040516322ce3edd60e01b815260040160405180910390fd5b838360028111156113be576113be611f16565b908160028111156113d1576113d1611f16565b905250604084018280156113e7576113e7611f16565b908180156113f7576113f7611f16565b9052506060909301929092525050565b80516000036114295760405163fe936cb760e01b815260040160405180910390fd5b60a090910152565b80516000036114535760405163fe936cb760e01b815260040160405180910390fd5b60c090910152565b6060600061146a610100611842565b90506114a36040518060400160405280600c81526020016b31b7b232a637b1b0ba34b7b760a11b8152508261186390919063ffffffff16565b82516114c19060028111156114ba576114ba611f16565b829061187c565b6040805180820190915260088152676c616e677561676560c01b60208201526114eb908290611863565b60408301516115029080156114ba576114ba611f16565b604080518082019091526006815265736f7572636560d01b602082015261152a908290611863565b606083015161153a908290611863565b60a083015151156115ce576040805180820190915260048152636172677360e01b602082015261156b908290611863565b611574816118b5565b60005b8360a00151518110156115c4576115b48460a00151828151811061159d5761159d612719565b60200260200101518361186390919063ffffffff16565b6115bd81612745565b9050611577565b506115ce816118d9565b60808301515115611692576000836020015160028111156115f1576115f1611f16565b0361160f5760405163a80d31f760e01b815260040160405180910390fd5b60408051808201909152600f81526e39b2b1b932ba39a637b1b0ba34b7b760891b6020820152611640908290611863565b611659836020015160028111156114ba576114ba611f16565b6040805180820190915260078152667365637265747360c81b6020820152611682908290611863565b60808301516116929082906118f7565b60c0830151511561172b5760408051808201909152600981526862797465734172677360b81b60208201526116c8908290611863565b6116d1816118b5565b60005b8360c0015151811015611721576117118460c0015182815181106116fa576116fa612719565b6020026020010151836118f790919063ffffffff16565b61171a81612745565b90506116d4565b5061172b816118d9565b515192915050565b6000807f00000000000000000000000000000000000000000000000000000000000000006001600160a01b031663461d27628688600188886040518663ffffffff1660e01b815260040161178b95949392919061275e565b6020604051808303816000875af11580156117aa573d6000803e3d6000fd5b505050506040513d601f19601f820116820180604052508101906117ce91906127a7565b60405190915081907f1131472297a800fee664d1d89cfa8f7676ff07189ecc53f80bbb5f4969099db890600090a295945050505050565b61180f8282610641565b61183e5760405163e2517d3f60e01b81526001600160a01b0382166004820152602481018390526044016103a9565b5050565b61184a611d40565b80516118569083611904565b5060006020820152919050565b611870826003835161197b565b81516105f49082611a94565b81516118899060c2611abc565b5061183e82826040516020016118a191815260200190565b6040516020818303038152906040526118f7565b6118c0816004611b25565b6001816020018181516118d391906127c0565b90525050565b6118e4816007611b25565b6001816020018181516118d391906127d3565b611870826002835161197b565b6040805180820190915260608152600060208201526119246020836127e6565b1561194c576119346020836127e6565b61193f9060206127d3565b61194990836127c0565b91505b60208084018390526040518085526000815290818401018181101561197057600080fd5b604052509192915050565b6017816001600160401b0316116119a15782516105bb9060e0600585901b168317611abc565b60ff816001600160401b0316116119e15782516119c9906018611fe0600586901b1617611abc565b5082516105bb906001600160401b0383166001611b3c565b61ffff816001600160401b031611611a22578251611a0a906019611fe0600586901b1617611abc565b5082516105bb906001600160401b0383166002611b3c565b63ffffffff816001600160401b031611611a65578251611a4d90601a611fe0600586901b1617611abc565b5082516105bb906001600160401b0383166004611b3c565b8251611a7c90601b611fe0600586901b1617611abc565b5082516105bb906001600160401b0383166008611b3c565b604080518082019091526060815260006020820152611ab583838451611bc1565b9392505050565b6040805180820190915260608152600060208201528251516000611ae18260016127c0565b905084602001518210611b0257611b0285611afd836002612808565b611c92565b8451602083820101858153508051821115611b1b578181525b5093949350505050565b81516105f490601f611fe0600585901b1617611abc565b6040805180820190915260608152600060208201528351516000611b6082856127c0565b90508560200151811115611b7d57611b7d86611afd836002612808565b60006001611b8d86610100612903565b611b9791906127d3565b90508651828101878319825116178152508051831115611bb5578281525b50959695505050505050565b6040805180820190915260608152600060208201528251821115611be457600080fd5b8351516000611bf384836127c0565b90508560200151811115611c1057611c1086611afd836002612808565b855180518382016020019160009180851115611c2a578482525b505050602086015b60208610611c6a5780518252611c496020836127c0565b9150611c566020826127c0565b9050611c636020876127d3565b9550611c32565b51815160001960208890036101000a0190811690199190911617905250849150509392505050565b8151611c9e8383611904565b506105bb8382611a94565b508054611cb5906123fc565b6000825580601f10611cc5575050565b601f0160209004906000526020600020908101906112899190611d75565b6040805160608082018352815260006020820152908101611d3b6040805160e0810190915280600081526020016000815260200160008152602001606081526020016060815260200160608152602001606081525090565b905290565b6040518060400160405280611d68604051806040016040528060608152602001600081525090565b8152602001600081525090565b5b80821115611d8a5760008155600101611d76565b5090565b600060208284031215611da057600080fd5b81356001600160e01b031981168114611ab557600080fd5b634e487b7160e01b600052604160045260246000fd5b604051601f8201601f191681016001600160401b0381118282101715611df657611df6611db8565b604052919050565b60006001600160401b03831115611e1757611e17611db8565b611e2a601f8401601f1916602001611dce565b9050828152838383011115611e3e57600080fd5b828260208301376000602084830101529392505050565b600082601f830112611e6657600080fd5b611ab583833560208501611dfe565b600080600060608486031215611e8a57600080fd5b8335925060208401356001600160401b0380821115611ea857600080fd5b611eb487838801611e55565b93506040860135915080821115611eca57600080fd5b50611ed786828701611e55565b9150509250925092565b60008060408385031215611ef457600080fd5b8235915060208301358015158114611f0b57600080fd5b809150509250929050565b634e487b7160e01b600052602160045260246000fd5b6003811061128957611289611f16565b6000815180845260005b81811015611f6257602081850181015186830182015201611f46565b506000602082860101526020601f19601f83011685010191505092915050565b602081526001600160401b03825116602082015260018060a01b03602083015116604082015260006040830151611fb881611f2c565b80606084015250606083015160a06080840152611fd860c0840182611f3c565b90506080840151601f198483030160a0850152611ff58282611f3c565b95945050505050565b60006020828403121561201057600080fd5b5035919050565b6000806040838503121561202a57600080fd5b8235915060208301356001600160a01b0381168114611f0b57600080fd5b80356001600160401b038116811461112257600080fd5b60008083601f84011261207157600080fd5b5081356001600160401b0381111561208857600080fd5b6020830191508360208260051b85010111156120a357600080fd5b9250929050565b60008083601f8401126120bc57600080fd5b5081356001600160401b038111156120d357600080fd5b6020830191508360208285010111156120a357600080fd5b60008060008060008060006080888a03121561210657600080fd5b61210f88612048565b965060208801356001600160401b038082111561212b57600080fd5b6121378b838c0161205f565b909850965060408a013591508082111561215057600080fd5b61215c8b838c0161205f565b909650945060608a013591508082111561217557600080fd5b506121828a828b016120aa565b989b979a50959850939692959293505050565b80356003811061112257600080fd5b60008060008060008060008060008060e08b8d0312156121c357600080fd5b6121cc8b612048565b99506121da60208c01612195565b985060408b01356001600160401b03808211156121f657600080fd5b6122028e838f016120aa565b909a50985088915061221660608e01612195565b975060808d013591508082111561222c57600080fd5b6122388e838f016120aa565b909750955060a08d0135915063ffffffff8216821461225657600080fd5b90935060c08c0135908082111561226c57600080fd5b506122798d828e016120aa565b915080935050809150509295989b9194979a5092959850565b6000602082840312156122a457600080fd5b611ab582612048565b600181106122bd576122bd611f16565b9052565b600081518084526020808501808196508360051b8101915082860160005b858110156123095782840389526122f7848351611f3c565b988501989350908401906001016122df565b5091979650505050505050565b6020815260008251606060208401526123326080840182611f3c565b905063ffffffff60208501511660408401526040840151601f19848303016060850152805161236081611f2c565b8252602081015161237081611f2c565b80602084015250604081015161238960408401826122ad565b50606081015160e060608401526123a360e0840182611f3c565b9050608082015183820360808501526123bc8282611f3c565b91505060a082015183820360a08501526123d682826122c1565b91505060c0820151915082810360c08401526123f281836122c1565b9695505050505050565b600181811c9082168061241057607f821691505b60208210810361243057634e487b7160e01b600052602260045260246000fd5b50919050565b60006001600160401b0382111561244f5761244f611db8565b5060051b60200190565b600061246c61246784612436565b611dce565b80848252602080830192508560051b85013681111561248a57600080fd5b855b818110156124d95780356001600160401b038111156124ab5760008081fd5b870136601f8201126124bd5760008081fd5b6124cb368235868401611dfe565b86525093820193820161248c565b50919695505050505050565b60006124f361246784612436565b80848252602080830192508560051b85013681111561251157600080fd5b855b818110156124d95780356001600160401b038111156125325760008081fd5b61253e36828a01611e55565b865250938201938201612513565b601f8211156105f457600081815260208120601f850160051c810160208610156125735750805b601f850160051c820191505b818110156125925782815560010161257f565b505050505050565b6001600160401b038311156125b1576125b1611db8565b6125c5836125bf83546123fc565b8361254c565b6000601f8411600181146125f957600085156125e15750838201355b600019600387901b1c1916600186901b178355612653565b600083815260209020601f19861690835b8281101561262a578685013582556020948501946001909201910161260a565b50868210156126475760001960f88860031b161c19848701351681555b505060018560011b0183555b5050505050565b81516001600160401b0381111561267357612673611db8565b6126878161268184546123fc565b8461254c565b602080601f8311600181146126bc57600084156126a45750858301515b600019600386901b1c1916600185901b178555612592565b600085815260208120601f198616915b828110156126eb578886015182559484019460019091019084016126cc565b50858210156127095787850151600019600388901b60f8161c191681555b5050505050600190811b01905550565b634e487b7160e01b600052603260045260246000fd5b634e487b7160e01b600052601160045260246000fd5b6000600182016127575761275761272f565b5060010190565b6001600160401b038616815260a06020820152600061278060a0830187611f3c565b61ffff9590951660408301525063ffffffff92909216606083015260809091015292915050565b6000602082840312156127b957600080fd5b5051919050565b808201808211156102b5576102b561272f565b818103818111156102b5576102b561272f565b60008261280357634e487b7160e01b600052601260045260246000fd5b500690565b80820281158282048414176102b5576102b561272f565b600181815b8085111561285a5781600019048211156128405761284061272f565b8085161561284d57918102915b93841c9390800290612824565b509250929050565b600082612871575060016102b5565b8161287e575060006102b5565b8160018114612894576002811461289e576128ba565b60019150506102b5565b60ff8411156128af576128af61272f565b50506001821b6102b5565b5060208310610133831016604e8410600b84101617156128dd575081810a6102b5565b6128e7838361281f565b80600019048211156128fb576128fb61272f565b029392505050565b6000611ab5838361286256fe241ecf16d79d0f8dbfb92cbc07fe17840425976cf0667f022fe9877caa831b08a26469706673582212201be77f1152a8f70cb4ba5346e461c4a1b6ac7f86404edd43860b8737889364b264736f6c63430008140033",
  "devdoc": {
    "errors": {
      "AccessControlBadConfirmation()": [
        {
          "details": "The caller of a function is not the expected one. NOTE: Don't confuse with {AccessControlUnauthorizedAccount}."
        }
      ],
      "AccessControlUnauthorizedAccount(address,bytes32)": [
        {
          "details": "The `account` is missing a role."
        }
      ],
      "CCGOnlyManagerAllowed()": [
        {
          "details": "Only A manager can call the function"
        }
      ],
      "CCGOnlySameSourceAllowed(bytes32)": [
        {
          "details": "Only the same source of the requestId is allowed to call the function"
        }
      ],
      "CCGRequestAlreadyFulfilled(bytes32)": [
        {
          "details": "Can't fulfill a request that has already been fulfilled"
        }
      ],
      "CCGRequestNameEmpty()": [
        {
          "details": "Can't register a request with an empty name"
        }
      ],
      "CCGRequestNotRegistered(uint64)": [
        {
          "details": "Only a registered subscriptionId is allowed to call the function"
        }
      ]
    },
    "events": {
      "RoleAdminChanged(bytes32,bytes32,bytes32)": {
        "details": "Emitted when `newAdminRole` is set as ``role``'s admin role, replacing `previousAdminRole` `DEFAULT_ADMIN_ROLE` is the starting admin for all roles, despite {RoleAdminChanged} not being emitted signaling this."
      },
      "RoleGranted(bytes32,address,address)": {
        "details": "Emitted when `account` is granted `role`. `sender` is the account that originated the contract call, an admin role bearer except when using {AccessControl-_setupRole}."
      },
      "RoleRevoked(bytes32,address,address)": {
        "details": "Emitted when `account` is revoked `role`. `sender` is the account that originated the contract call:   - if using `revokeRole`, it is the admin role bearer   - if using `renounceRole`, it is the role bearer (i.e. `account`)"
      }
    },
    "kind": "dev",
    "methods": {
      "donId()": {
        "details": "Get the DON ID",
        "returns": {
          "_0": "DON ID"
        }
      },
      "getResponse(bytes32,bool)": {
        "details": "Get the response data",
        "params": {
          "requestId": "The request ID, returned by sendRequest()"
        },
        "returns": {
          "response": "CCGResponse"
        }
      },
      "getRoleAdmin(bytes32)": {
        "details": "Returns the admin role that controls `role`. See {grantRole} and {revokeRole}. To change a role's admin, use {_setRoleAdmin}."
      },
      "grantRole(bytes32,address)": {
        "details": "Grants `role` to `account`. If `account` had not been already granted `role`, emits a {RoleGranted} event. Requirements: - the caller must have ``role``'s admin role. May emit a {RoleGranted} event."
      },
      "handleOracleFulfillment(bytes32,bytes,bytes)": {
        "details": "Either response or error parameter will be set, but never both.",
        "params": {
          "err": "Aggregated error either from the request's source code or from the execution pipeline.",
          "requestId": "The requestId returned by FunctionsClient.sendRequest().",
          "response": "Aggregated response from the request's source code."
        }
      },
      "hasRole(bytes32,address)": {
        "details": "Returns `true` if `account` has been granted `role`."
      },
      "renounceRole(bytes32,address)": {
        "details": "Revokes `role` from the calling account. Roles are often managed via {grantRole} and {revokeRole}: this function's purpose is to provide a mechanism for accounts to lose their privileges if they are compromised (such as when a trusted device is misplaced). If the calling account had been revoked `role`, emits a {RoleRevoked} event. Requirements: - the caller must be `callerConfirmation`. May emit a {RoleRevoked} event."
      },
      "revokeRole(bytes32,address)": {
        "details": "Revokes `role` from `account`. If `account` had been granted `role`, emits a {RoleRevoked} event. Requirements: - the caller must have ``role``'s admin role. May emit a {RoleRevoked} event."
      },
      "sendRequest(uint64,string[],bytes[],bytes)": {
        "params": {
          "args": "String arguments passed into the source code and accessible via the global variable `args`",
          "bytesArgs": "Bytes arguments passed into the source code and accessible via the global variable `bytesArgs` as hex strings",
          "encryptedSecretsReference": "Reference pointing to encrypted secrets",
          "subscriptionId": "Subscription ID used to pay for request (FunctionsConsumer contract address must first be added to the subscription)"
        }
      },
      "setDonId(bytes32)": {
        "details": "Set the DON ID",
        "params": {
          "newDonId": "New DON ID"
        }
      },
      "supportsInterface(bytes4)": {
        "details": "See {IERC165-supportsInterface}."
      }
    },
    "version": 1
  },
  "userdoc": {
    "kind": "user",
    "methods": {
      "handleOracleFulfillment(bytes32,bytes,bytes)": {
        "notice": "Chainlink Functions response handler called by the Functions Router during fullilment from the designated transmitter node in an OCR round."
      },
      "sendRequest(uint64,string[],bytes[],bytes)": {
        "notice": "Triggers an on-demand Functions request using remote encrypted secrets"
      }
    },
    "version": 1
  },
  "storageLayout": {
    "storage": [
      {
        "astId": 2212,
        "contract": "contracts/CCGateway.sol:CCGateway",
        "label": "_roles",
        "offset": 0,
        "slot": "0",
        "type": "t_mapping(t_bytes32,t_struct(RoleData)2207_storage)"
      },
      {
        "astId": 2797,
        "contract": "contracts/CCGateway.sol:CCGateway",
        "label": "_donId",
        "offset": 0,
        "slot": "1",
        "type": "t_bytes32"
      },
      {
        "astId": 2802,
        "contract": "contracts/CCGateway.sol:CCGateway",
        "label": "_requests",
        "offset": 0,
        "slot": "2",
        "type": "t_mapping(t_uint64,t_struct(CCGRequest)3275_storage)"
      },
      {
        "astId": 2807,
        "contract": "contracts/CCGateway.sol:CCGateway",
        "label": "unprocessed_responses",
        "offset": 0,
        "slot": "3",
        "type": "t_mapping(t_bytes32,t_struct(CCGResponse)3341_storage)"
      }
    ],
    "types": {
      "t_address": {
        "encoding": "inplace",
        "label": "address",
        "numberOfBytes": "20"
      },
      "t_array(t_bytes_storage)dyn_storage": {
        "base": "t_bytes_storage",
        "encoding": "dynamic_array",
        "label": "bytes[]",
        "numberOfBytes": "32"
      },
      "t_array(t_string_storage)dyn_storage": {
        "base": "t_string_storage",
        "encoding": "dynamic_array",
        "label": "string[]",
        "numberOfBytes": "32"
      },
      "t_bool": {
        "encoding": "inplace",
        "label": "bool",
        "numberOfBytes": "1"
      },
      "t_bytes32": {
        "encoding": "inplace",
        "label": "bytes32",
        "numberOfBytes": "32"
      },
      "t_bytes_storage": {
        "encoding": "bytes",
        "label": "bytes",
        "numberOfBytes": "32"
      },
      "t_enum(CCGResponseState)3329": {
        "encoding": "inplace",
        "label": "enum ICCGatewayClient.CCGResponseState",
        "numberOfBytes": "1"
      },
      "t_enum(CodeLanguage)286": {
        "encoding": "inplace",
        "label": "enum FunctionsRequest.CodeLanguage",
        "numberOfBytes": "1"
      },
      "t_enum(Location)284": {
        "encoding": "inplace",
        "label": "enum FunctionsRequest.Location",
        "numberOfBytes": "1"
      },
      "t_mapping(t_address,t_bool)": {
        "encoding": "mapping",
        "key": "t_address",
        "label": "mapping(address => bool)",
        "numberOfBytes": "32",
        "value": "t_bool"
      },
      "t_mapping(t_bytes32,t_struct(CCGResponse)3341_storage)": {
        "encoding": "mapping",
        "key": "t_bytes32",
        "label": "mapping(bytes32 => struct ICCGatewayClient.CCGResponse)",
        "numberOfBytes": "32",
        "value": "t_struct(CCGResponse)3341_storage"
      },
      "t_mapping(t_bytes32,t_struct(RoleData)2207_storage)": {
        "encoding": "mapping",
        "key": "t_bytes32",
        "label": "mapping(bytes32 => struct AccessControl.RoleData)",
        "numberOfBytes": "32",
        "value": "t_struct(RoleData)2207_storage"
      },
      "t_mapping(t_uint64,t_struct(CCGRequest)3275_storage)": {
        "encoding": "mapping",
        "key": "t_uint64",
        "label": "mapping(uint64 => struct ICCGateway.CCGRequest)",
        "numberOfBytes": "32",
        "value": "t_struct(CCGRequest)3275_storage"
      },
      "t_string_storage": {
        "encoding": "bytes",
        "label": "string",
        "numberOfBytes": "32"
      },
      "t_struct(CCGRequest)3275_storage": {
        "encoding": "inplace",
        "label": "struct ICCGateway.CCGRequest",
        "members": [
          {
            "astId": 3269,
            "contract": "contracts/CCGateway.sol:CCGateway",
            "label": "name",
            "offset": 0,
            "slot": "0",
            "type": "t_string_storage"
          },
          {
            "astId": 3271,
            "contract": "contracts/CCGateway.sol:CCGateway",
            "label": "callbackGasLimit",
            "offset": 0,
            "slot": "1",
            "type": "t_uint32"
          },
          {
            "astId": 3274,
            "contract": "contracts/CCGateway.sol:CCGateway",
            "label": "config",
            "offset": 0,
            "slot": "2",
            "type": "t_struct(Request)306_storage"
          }
        ],
        "numberOfBytes": "224"
      },
      "t_struct(CCGResponse)3341_storage": {
        "encoding": "inplace",
        "label": "struct ICCGatewayClient.CCGResponse",
        "members": [
          {
            "astId": 3331,
            "contract": "contracts/CCGateway.sol:CCGateway",
            "label": "subscriptionId",
            "offset": 0,
            "slot": "0",
            "type": "t_uint64"
          },
          {
            "astId": 3333,
            "contract": "contracts/CCGateway.sol:CCGateway",
            "label": "source",
            "offset": 8,
            "slot": "0",
            "type": "t_address"
          },
          {
            "astId": 3336,
            "contract": "contracts/CCGateway.sol:CCGateway",
            "label": "state",
            "offset": 28,
            "slot": "0",
            "type": "t_enum(CCGResponseState)3329"
          },
          {
            "astId": 3338,
            "contract": "contracts/CCGateway.sol:CCGateway",
            "label": "data",
            "offset": 0,
            "slot": "1",
            "type": "t_bytes_storage"
          },
          {
            "astId": 3340,
            "contract": "contracts/CCGateway.sol:CCGateway",
            "label": "error",
            "offset": 0,
            "slot": "2",
            "type": "t_bytes_storage"
          }
        ],
        "numberOfBytes": "96"
      },
      "t_struct(Request)306_storage": {
        "encoding": "inplace",
        "label": "struct FunctionsRequest.Request",
        "members": [
          {
            "astId": 289,
            "contract": "contracts/CCGateway.sol:CCGateway",
            "label": "codeLocation",
            "offset": 0,
            "slot": "0",
            "type": "t_enum(Location)284"
          },
          {
            "astId": 292,
            "contract": "contracts/CCGateway.sol:CCGateway",
            "label": "secretsLocation",
            "offset": 1,
            "slot": "0",
            "type": "t_enum(Location)284"
          },
          {
            "astId": 295,
            "contract": "contracts/CCGateway.sol:CCGateway",
            "label": "language",
            "offset": 2,
            "slot": "0",
            "type": "t_enum(CodeLanguage)286"
          },
          {
            "astId": 297,
            "contract": "contracts/CCGateway.sol:CCGateway",
            "label": "source",
            "offset": 0,
            "slot": "1",
            "type": "t_string_storage"
          },
          {
            "astId": 299,
            "contract": "contracts/CCGateway.sol:CCGateway",
            "label": "encryptedSecretsReference",
            "offset": 0,
            "slot": "2",
            "type": "t_bytes_storage"
          },
          {
            "astId": 302,
            "contract": "contracts/CCGateway.sol:CCGateway",
            "label": "args",
            "offset": 0,
            "slot": "3",
            "type": "t_array(t_string_storage)dyn_storage"
          },
          {
            "astId": 305,
            "contract": "contracts/CCGateway.sol:CCGateway",
            "label": "bytesArgs",
            "offset": 0,
            "slot": "4",
            "type": "t_array(t_bytes_storage)dyn_storage"
          }
        ],
        "numberOfBytes": "160"
      },
      "t_struct(RoleData)2207_storage": {
        "encoding": "inplace",
        "label": "struct AccessControl.RoleData",
        "members": [
          {
            "astId": 2204,
            "contract": "contracts/CCGateway.sol:CCGateway",
            "label": "hasRole",
            "offset": 0,
            "slot": "0",
            "type": "t_mapping(t_address,t_bool)"
          },
          {
            "astId": 2206,
            "contract": "contracts/CCGateway.sol:CCGateway",
            "label": "adminRole",
            "offset": 0,
            "slot": "1",
            "type": "t_bytes32"
          }
        ],
        "numberOfBytes": "64"
      },
      "t_uint32": {
        "encoding": "inplace",
        "label": "uint32",
        "numberOfBytes": "4"
      },
      "t_uint64": {
        "encoding": "inplace",
        "label": "uint64",
        "numberOfBytes": "8"
      }
    }
  }
}