{
  "address": "0x52bfF133bc6A891828baB02fB7338fB943E8D078",
  "abi": [
    {
      "inputs": [
        {
          "internalType": "address",
          "name": "router",
          "type": "address"
        },
        {
          "internalType": "bytes32",
          "name": "initialDonId",
          "type": "bytes32"
        },
        {
          "internalType": "address",
          "name": "initialOwner",
          "type": "address"
        }
      ],
      "stateMutability": "nonpayable",
      "type": "constructor"
    },
    {
      "inputs": [],
      "name": "AccessControlBadConfirmation",
      "type": "error"
    },
    {
      "inputs": [
        {
          "internalType": "address",
          "name": "account",
          "type": "address"
        },
        {
          "internalType": "bytes32",
          "name": "neededRole",
          "type": "bytes32"
        }
      ],
      "name": "AccessControlUnauthorizedAccount",
      "type": "error"
    },
    {
      "inputs": [],
      "name": "CCGOnlyManagerAllowed",
      "type": "error"
    },
    {
      "inputs": [
        {
          "internalType": "bytes32",
          "name": "requestId",
          "type": "bytes32"
        }
      ],
      "name": "CCGOnlySameSourceAllowed",
      "type": "error"
    },
    {
      "inputs": [
        {
          "internalType": "bytes32",
          "name": "requestId",
          "type": "bytes32"
        }
      ],
      "name": "CCGRequestAlreadyFulfilled",
      "type": "error"
    },
    {
      "inputs": [],
      "name": "CCGRequestNameEmpty",
      "type": "error"
    },
    {
      "inputs": [
        {
          "internalType": "uint64",
          "name": "subscriptionId",
          "type": "uint64"
        }
      ],
      "name": "CCGRequestNotRegistered",
      "type": "error"
    },
    {
      "inputs": [],
      "name": "EmptyArgs",
      "type": "error"
    },
    {
      "inputs": [],
      "name": "EmptySource",
      "type": "error"
    },
    {
      "inputs": [],
      "name": "NoInlineSecrets",
      "type": "error"
    },
    {
      "inputs": [],
      "name": "OnlyRouterCanFulfill",
      "type": "error"
    },
    {
      "anonymous": false,
      "inputs": [
        {
          "indexed": true,
          "internalType": "bytes32",
          "name": "id",
          "type": "bytes32"
        }
      ],
      "name": "RequestFulfilled",
      "type": "event"
    },
    {
      "anonymous": false,
      "inputs": [
        {
          "indexed": true,
          "internalType": "bytes32",
          "name": "id",
          "type": "bytes32"
        }
      ],
      "name": "RequestSent",
      "type": "event"
    },
    {
      "anonymous": false,
      "inputs": [
        {
          "indexed": true,
          "internalType": "bytes32",
          "name": "role",
          "type": "bytes32"
        },
        {
          "indexed": true,
          "internalType": "bytes32",
          "name": "previousAdminRole",
          "type": "bytes32"
        },
        {
          "indexed": true,
          "internalType": "bytes32",
          "name": "newAdminRole",
          "type": "bytes32"
        }
      ],
      "name": "RoleAdminChanged",
      "type": "event"
    },
    {
      "anonymous": false,
      "inputs": [
        {
          "indexed": true,
          "internalType": "bytes32",
          "name": "role",
          "type": "bytes32"
        },
        {
          "indexed": true,
          "internalType": "address",
          "name": "account",
          "type": "address"
        },
        {
          "indexed": true,
          "internalType": "address",
          "name": "sender",
          "type": "address"
        }
      ],
      "name": "RoleGranted",
      "type": "event"
    },
    {
      "anonymous": false,
      "inputs": [
        {
          "indexed": true,
          "internalType": "bytes32",
          "name": "role",
          "type": "bytes32"
        },
        {
          "indexed": true,
          "internalType": "address",
          "name": "account",
          "type": "address"
        },
        {
          "indexed": true,
          "internalType": "address",
          "name": "sender",
          "type": "address"
        }
      ],
      "name": "RoleRevoked",
      "type": "event"
    },
    {
      "inputs": [],
      "name": "CLIENT_ROLE",
      "outputs": [
        {
          "internalType": "bytes32",
          "name": "",
          "type": "bytes32"
        }
      ],
      "stateMutability": "view",
      "type": "function"
    },
    {
      "inputs": [],
      "name": "DEFAULT_ADMIN_ROLE",
      "outputs": [
        {
          "internalType": "bytes32",
          "name": "",
          "type": "bytes32"
        }
      ],
      "stateMutability": "view",
      "type": "function"
    },
    {
      "inputs": [],
      "name": "MANAGER_ROLE",
      "outputs": [
        {
          "internalType": "bytes32",
          "name": "",
          "type": "bytes32"
        }
      ],
      "stateMutability": "view",
      "type": "function"
    },
    {
      "inputs": [],
      "name": "donId",
      "outputs": [
        {
          "internalType": "bytes32",
          "name": "",
          "type": "bytes32"
        }
      ],
      "stateMutability": "view",
      "type": "function"
    },
    {
      "inputs": [
        {
          "internalType": "uint64",
          "name": "subscriptionId",
          "type": "uint64"
        }
      ],
      "name": "getRequest",
      "outputs": [
        {
          "components": [
            {
              "internalType": "string",
              "name": "name",
              "type": "string"
            },
            {
              "internalType": "uint32",
              "name": "callbackGasLimit",
              "type": "uint32"
            },
            {
              "components": [
                {
                  "internalType": "enum FunctionsRequest.Location",
                  "name": "codeLocation",
                  "type": "uint8"
                },
                {
                  "internalType": "enum FunctionsRequest.Location",
                  "name": "secretsLocation",
                  "type": "uint8"
                },
                {
                  "internalType": "enum FunctionsRequest.CodeLanguage",
                  "name": "language",
                  "type": "uint8"
                },
                {
                  "internalType": "string",
                  "name": "source",
                  "type": "string"
                },
                {
                  "internalType": "bytes",
                  "name": "encryptedSecretsReference",
                  "type": "bytes"
                },
                {
                  "internalType": "string[]",
                  "name": "args",
                  "type": "string[]"
                },
                {
                  "internalType": "bytes[]",
                  "name": "bytesArgs",
                  "type": "bytes[]"
                }
              ],
              "internalType": "struct FunctionsRequest.Request",
              "name": "config",
              "type": "tuple"
            }
          ],
          "internalType": "struct ICCGateway.CCGRequest",
          "name": "",
          "type": "tuple"
        }
      ],
      "stateMutability": "view",
      "type": "function"
    },
    {
      "inputs": [
        {
          "internalType": "bytes32",
          "name": "requestId",
          "type": "bytes32"
        },
        {
          "internalType": "bool",
          "name": "remove",
          "type": "bool"
        }
      ],
      "name": "getResponse",
      "outputs": [
        {
          "components": [
            {
              "internalType": "uint64",
              "name": "subscriptionId",
              "type": "uint64"
            },
            {
              "internalType": "address",
              "name": "source",
              "type": "address"
            },
            {
              "internalType": "enum ICCGatewayClient.CCGResponseState",
              "name": "state",
              "type": "uint8"
            },
            {
              "internalType": "bytes",
              "name": "data",
              "type": "bytes"
            },
            {
              "internalType": "bytes",
              "name": "error",
              "type": "bytes"
            }
          ],
          "internalType": "struct ICCGatewayClient.CCGResponse",
          "name": "response",
          "type": "tuple"
        }
      ],
      "stateMutability": "nonpayable",
      "type": "function"
    },
    {
      "inputs": [
        {
          "internalType": "bytes32",
          "name": "role",
          "type": "bytes32"
        }
      ],
      "name": "getRoleAdmin",
      "outputs": [
        {
          "internalType": "bytes32",
          "name": "",
          "type": "bytes32"
        }
      ],
      "stateMutability": "view",
      "type": "function"
    },
    {
      "inputs": [
        {
          "internalType": "bytes32",
          "name": "role",
          "type": "bytes32"
        },
        {
          "internalType": "address",
          "name": "account",
          "type": "address"
        }
      ],
      "name": "grantRole",
      "outputs": [],
      "stateMutability": "nonpayable",
      "type": "function"
    },
    {
      "inputs": [
        {
          "internalType": "bytes32",
          "name": "requestId",
          "type": "bytes32"
        },
        {
          "internalType": "bytes",
          "name": "response",
          "type": "bytes"
        },
        {
          "internalType": "bytes",
          "name": "err",
          "type": "bytes"
        }
      ],
      "name": "handleOracleFulfillment",
      "outputs": [],
      "stateMutability": "nonpayable",
      "type": "function"
    },
    {
      "inputs": [
        {
          "internalType": "bytes32",
          "name": "role",
          "type": "bytes32"
        },
        {
          "internalType": "address",
          "name": "account",
          "type": "address"
        }
      ],
      "name": "hasRole",
      "outputs": [
        {
          "internalType": "bool",
          "name": "",
          "type": "bool"
        }
      ],
      "stateMutability": "view",
      "type": "function"
    },
    {
      "inputs": [
        {
          "internalType": "uint64",
          "name": "subscriptionId",
          "type": "uint64"
        },
        {
          "internalType": "enum FunctionsRequest.Location",
          "name": "codeLocation",
          "type": "uint8"
        },
        {
          "internalType": "string",
          "name": "source",
          "type": "string"
        },
        {
          "internalType": "enum FunctionsRequest.Location",
          "name": "secretsLocation",
          "type": "uint8"
        },
        {
          "internalType": "bytes",
          "name": "encryptedSecretsReference",
          "type": "bytes"
        },
        {
          "internalType": "uint32",
          "name": "callbackGasLimit",
          "type": "uint32"
        },
        {
          "internalType": "string",
          "name": "name",
          "type": "string"
        }
      ],
      "name": "registerRequest",
      "outputs": [],
      "stateMutability": "nonpayable",
      "type": "function"
    },
    {
      "inputs": [
        {
          "internalType": "uint64",
          "name": "subscriptionId",
          "type": "uint64"
        }
      ],
      "name": "removeRequest",
      "outputs": [],
      "stateMutability": "nonpayable",
      "type": "function"
    },
    {
      "inputs": [
        {
          "internalType": "bytes32",
          "name": "role",
          "type": "bytes32"
        },
        {
          "internalType": "address",
          "name": "callerConfirmation",
          "type": "address"
        }
      ],
      "name": "renounceRole",
      "outputs": [],
      "stateMutability": "nonpayable",
      "type": "function"
    },
    {
      "inputs": [
        {
          "internalType": "bytes32",
          "name": "role",
          "type": "bytes32"
        },
        {
          "internalType": "address",
          "name": "account",
          "type": "address"
        }
      ],
      "name": "revokeRole",
      "outputs": [],
      "stateMutability": "nonpayable",
      "type": "function"
    },
    {
      "inputs": [
        {
          "internalType": "uint64",
          "name": "subscriptionId",
          "type": "uint64"
        },
        {
          "internalType": "string[]",
          "name": "args",
          "type": "string[]"
        },
        {
          "internalType": "bytes[]",
          "name": "bytesArgs",
          "type": "bytes[]"
        },
        {
          "internalType": "bytes",
          "name": "encryptedSecretsReference",
          "type": "bytes"
        }
      ],
      "name": "sendRequest",
      "outputs": [
        {
          "internalType": "bytes32",
          "name": "requestId",
          "type": "bytes32"
        }
      ],
      "stateMutability": "nonpayable",
      "type": "function"
    },
    {
      "inputs": [
        {
          "internalType": "bytes32",
          "name": "newDonId",
          "type": "bytes32"
        }
      ],
      "name": "setDonId",
      "outputs": [],
      "stateMutability": "nonpayable",
      "type": "function"
    },
    {
      "inputs": [
        {
          "internalType": "uint256",
          "name": "",
          "type": "uint256"
        }
      ],
      "name": "subscriptions",
      "outputs": [
        {
          "internalType": "uint64",
          "name": "",
          "type": "uint64"
        }
      ],
      "stateMutability": "view",
      "type": "function"
    },
    {
      "inputs": [
        {
          "internalType": "bytes4",
          "name": "interfaceId",
          "type": "bytes4"
        }
      ],
      "name": "supportsInterface",
      "outputs": [
        {
          "internalType": "bool",
          "name": "",
          "type": "bool"
        }
      ],
      "stateMutability": "view",
      "type": "function"
    }
  ],
  "transactionHash": "0x9690b9146d57823482b64d57ccd8c5a02e70cb5b053731805f3bb68a33ee350e",
  "args": [
    "0xf9B8fc078197181C841c296C876945aaa425B278",
    "0x66756e2d626173652d7365706f6c69612d310000000000000000000000000000",
    "0xD10F43A0aa00D244DAcFBE3C49b9B918B717Ff2c"
  ],
  "numDeployments": 2,
  "solcInputHash": "be18bfdeea6869d68a166c8869814257",
  "bytecode": "0x60a06040523480156200001157600080fd5b5060405162002f2f38038062002f2f83398101604081905262000034916200016e565b6001600160a01b0380841660805260018390556000908216156200005957816200005b565b335b90506200006a600082620000a2565b50620000977f241ecf16d79d0f8dbfb92cbc07fe17840425976cf0667f022fe9877caa831b0882620000a2565b5050505050620001af565b6000828152602081815260408083206001600160a01b038516845290915281205460ff1662000147576000838152602081815260408083206001600160a01b03861684529091529020805460ff19166001179055620000fe3390565b6001600160a01b0316826001600160a01b0316847f2f8788117e7eff1d82e926ec794901d17c78024a50270940304540a733656f0d60405160405180910390a45060016200014b565b5060005b92915050565b80516001600160a01b03811681146200016957600080fd5b919050565b6000806000606084860312156200018457600080fd5b6200018f8462000151565b925060208401519150620001a66040850162000151565b90509250925092565b608051612d5d620001d26000396000818161031a0152611a9f0152612d5d6000f3fe608060405234801561001057600080fd5b50600436106101165760003560e01c80638dbe7b9d116100a2578063c8ab5f2211610071578063c8ab5f2214610256578063cbbf67ec14610269578063d547741f14610289578063eae6f6521461029c578063ec87621c146102c357600080fd5b80638dbe7b9d1461022057806391d148541461022857806396c1582e1461023b578063a217fddf1461024e57600080fd5b80632d5bbf60116100e95780632d5bbf60146101a95780632f2ff15d146101d457806334d2afd9146101e757806336568abe146101fa57806378ca5de71461020d57600080fd5b806301ffc9a71461011b5780630ca761751461014357806315b851d114610158578063248a9ca314610178575b600080fd5b61012e61012936600461216b565b6102d8565b60405190151581526020015b60405180910390f35b610156610151366004612252565b61030f565b005b61016b6101663660046122be565b610393565b60405161013a919061235f565b61019b6101863660046123db565b60009081526020819052604090206001015490565b60405190815260200161013a565b6101bc6101b73660046123db565b6105ea565b6040516001600160401b03909116815260200161013a565b6101566101e23660046123f4565b610627565b6101566101f5366004612441565b610652565b6101566102083660046123f4565b6108cf565b61015661021b3660046123db565b610907565b60015461019b565b61012e6102363660046123f4565b61094f565b61019b6102493660046124e8565b610978565b61019b600081565b6101566102643660046125a1565b610e5a565b61027c610277366004612441565b610fee565b60405161013a91906126f8565b6101566102973660046123f4565b61148e565b61019b7fa5ff3ec7a96cdbba4d2d5172d66bbc73c6db3885f29b21be5da9fa7a7c02523281565b61019b600080516020612d0883398151915281565b60006001600160e01b03198216637965db0b60e01b148061030957506301ffc9a760e01b6001600160e01b03198316145b92915050565b336001600160a01b037f000000000000000000000000000000000000000000000000000000000000000016146103585760405163c6829f8360e01b815260040160405180910390fd5b6103638383836114b3565b60405183907f85e1543bf2f84fe80c6badbce3648c8539ad1df4d2b3d822938ca0538be727e690600090a2505050565b6040805160a081018252600080825260208201819052918101919091526060808201819052608082015260008381526003602052604090205483906001600160a01b03600160401b9091041633146104065760405163949aaf2d60e01b8152600481018290526024015b60405180910390fd5b600084815260036020908152604091829020825160a08101845281546001600160401b0381168252600160401b81046001600160a01b03169382019390935292909190830190600160e01b900460ff166002811115610467576104676122f3565b6002811115610478576104786122f3565b815260200160018201805461048c906127de565b80601f01602080910402602001604051908101604052809291908181526020018280546104b8906127de565b80156105055780601f106104da57610100808354040283529160200191610505565b820191906000526020600020905b8154815290600101906020018083116104e857829003601f168201915b5050505050815260200160028201805461051e906127de565b80601f016020809104026020016040519081016040528092919081815260200182805461054a906127de565b80156105975780601f1061056c57610100808354040283529160200191610597565b820191906000526020600020905b81548152906001019060200180831161057a57829003601f168201915b505050505081525050915082156105e357600084815260036020526040812080546001600160e81b0319168155906105d26001830182612010565b6105e0600283016000612010565b50505b5092915050565b600481815481106105fa57600080fd5b9060005260206000209060049182820401919006600802915054906101000a90046001600160401b031681565b600082815260208190526040902060010154610642816115e6565b61064c83836115f3565b50505050565b61066a600080516020612d088339815191523261094f565b6106875760405163129d730760e01b815260040160405180910390fd5b6001600160401b038116600090815260026020526040902080546106aa906127de565b90506000036106d757604051630601bb0160e21b81526001600160401b03821660048201526024016103fd565b6001600160401b0381166000908152600260205260408120906106fa8282612010565b60018201805463ffffffff1916905560028201805462ffffff1916815560006107266003850182612010565b610734600283016000612010565b61074260038301600061204a565b610750600483016000612068565b50506004549150600090505b60045481101561088857600454821480156107b85750826001600160401b03166004828154811061078f5761078f612818565b6000918252602090912060048204015460039091166008026101000a90046001600160401b0316145b156107c1578091505b60045482148015906107de57506004546107dc826001612844565b105b156108765760046107f0826001612844565b8154811061080057610800612818565b90600052602060002090600491828204019190066008029054906101000a90046001600160401b03166004828154811061083c5761083c612818565b90600052602060002090600491828204019190066008026101000a8154816001600160401b0302191690836001600160401b031602179055505b8061088081612857565b91505061075c565b50600480548061089a5761089a612870565b60008281526020902060046000199092019182040180546001600160401b03600860038516026101000a021916905590555050565b6001600160a01b03811633146108f85760405163334bd91960e11b815260040160405180910390fd5b6109028282611685565b505050565b600080516020612d0883398151915260009081526020527fe84508f2c7fa9c351146748b3025cb78b45df37d868e48c6a75102fecdeee64654610949816115e6565b50600155565b6000918252602082815260408084206001600160a01b0393909316845291905290205460ff1690565b60007fa5ff3ec7a96cdbba4d2d5172d66bbc73c6db3885f29b21be5da9fa7a7c0252326109a4816115e6565b6001600160401b0389166000908152600260205260409020805481906109c9906127de565b90506000036109f657604051630601bb0160e21b81526001600160401b038b1660048201526024016103fd565b6040805160e081019091526002808301805460009392839160ff1690811115610a2157610a216122f3565b6002811115610a3257610a326122f3565b81528154602090910190610100900460ff166002811115610a5557610a556122f3565b6002811115610a6657610a666122f3565b8152815460209091019062010000900460ff168015610a8757610a876122f3565b8015610a9557610a956122f3565b8152602001600182018054610aa9906127de565b80601f0160208091040260200160405190810160405280929190818152602001828054610ad5906127de565b8015610b225780601f10610af757610100808354040283529160200191610b22565b820191906000526020600020905b815481529060010190602001808311610b0557829003601f168201915b50505050508152602001600282018054610b3b906127de565b80601f0160208091040260200160405190810160405280929190818152602001828054610b67906127de565b8015610bb45780601f10610b8957610100808354040283529160200191610bb4565b820191906000526020600020905b815481529060010190602001808311610b9757829003601f168201915b5050505050815260200160038201805480602002602001604051908101604052809291908181526020016000905b82821015610c8e578382906000526020600020018054610c01906127de565b80601f0160208091040260200160405190810160405280929190818152602001828054610c2d906127de565b8015610c7a5780601f10610c4f57610100808354040283529160200191610c7a565b820191906000526020600020905b815481529060010190602001808311610c5d57829003601f168201915b505050505081526020019060010190610be2565b50505050815260200160048201805480602002602001604051908101604052809291908181526020016000905b82821015610d67578382906000526020600020018054610cda906127de565b80601f0160208091040260200160405190810160405280929190818152602001828054610d06906127de565b8015610d535780601f10610d2857610100808354040283529160200191610d53565b820191906000526020600020905b815481529060010190602001808311610d3657829003601f168201915b505050505081526020019060010190610cbb565b5050509152505080516060820151919250610d87918391906000906116f0565b8415610dc95785858080601f01602080910402602001604051908101604052809392919081815260200183838082843760009201919091525050505060808201525b8815610de357610de3610ddc8a8c6128a9565b829061176e565b8615610dfd57610dfd610df6888a612935565b8290611798565b610e1f610e09826117c2565b60018085015490548e9163ffffffff1690611a9a565b6000818152600360205260409020805468010000000000000000600160e81b031916600160401b33021790559b9a5050505050505050505050565b610e72600080516020612d088339815191523261094f565b610e8f5760405163129d730760e01b815260040160405180910390fd5b6000819003610eb15760405163281b14ab60e01b815260040160405180910390fd5b6001600160401b038a16600090815260026020526040902080548190610ed6906127de565b9050600003610f3d576004805460018101825560008290529081047f8a35acfbc15ff81a39ae7d344fd709f28e8600b4aa8c65c6b64bfe7fe36bd19b0180546001600160401b03808f1660086003909516949094026101000a938402930219169190911790555b80610f498385836129ea565b506001818101805463ffffffff191663ffffffff87161790556002808301805462ff000019811682558d93919262ff00ff1990911691908490811115610f9157610f916122f3565b021790555060038101610fa5898b836129ea565b5060028082018054899261ff001990911690610100908490811115610fcc57610fcc6122f3565b021790555060048101610fe08688836129ea565b505050505050505050505050565b610ff6612086565b6001600160401b03821660009081526002602052604090208054611019906127de565b905060000361104657604051630601bb0160e21b81526001600160401b03831660048201526024016103fd565b6001600160401b03821660009081526002602052604090819020815160608101909252805482908290611078906127de565b80601f01602080910402602001604051908101604052809291908181526020018280546110a4906127de565b80156110f15780601f106110c6576101008083540402835291602001916110f1565b820191906000526020600020905b8154815290600101906020018083116110d457829003601f168201915b5050509183525050600182015463ffffffff1660208201526040805160e0810182526002808501805493909401939192839160ff90911690811115611138576111386122f3565b6002811115611149576111496122f3565b81528154602090910190610100900460ff16600281111561116c5761116c6122f3565b600281111561117d5761117d6122f3565b8152815460209091019062010000900460ff16801561119e5761119e6122f3565b80156111ac576111ac6122f3565b81526020016001820180546111c0906127de565b80601f01602080910402602001604051908101604052809291908181526020018280546111ec906127de565b80156112395780601f1061120e57610100808354040283529160200191611239565b820191906000526020600020905b81548152906001019060200180831161121c57829003601f168201915b50505050508152602001600282018054611252906127de565b80601f016020809104026020016040519081016040528092919081815260200182805461127e906127de565b80156112cb5780601f106112a0576101008083540402835291602001916112cb565b820191906000526020600020905b8154815290600101906020018083116112ae57829003601f168201915b5050505050815260200160038201805480602002602001604051908101604052809291908181526020016000905b828210156113a5578382906000526020600020018054611318906127de565b80601f0160208091040260200160405190810160405280929190818152602001828054611344906127de565b80156113915780601f1061136657610100808354040283529160200191611391565b820191906000526020600020905b81548152906001019060200180831161137457829003601f168201915b5050505050815260200190600101906112f9565b50505050815260200160048201805480602002602001604051908101604052809291908181526020016000905b8282101561147e5783829060005260206000200180546113f1906127de565b80601f016020809104026020016040519081016040528092919081815260200182805461141d906127de565b801561146a5780601f1061143f5761010080835404028352916020019161146a565b820191906000526020600020905b81548152906001019060200180831161144d57829003601f168201915b5050505050815260200190600101906113d2565b5050509152505090525092915050565b6000828152602081905260409020600101546114a9816115e6565b61064c8383611685565b6000838152600360205260408120908154600160e01b900460ff1660028111156114df576114df6122f3565b146114ff576040516287aa6360e01b8152600481018590526024016103fd565b600082511161150f576001611512565b60025b6000858152600360205260409020805460ff60e01b1916600160e01b836002811115611540576115406122f3565b021790555060008481526003602052604090206001016115608482612aaa565b50600084815260036020526040902060020161157c8382612aaa565b508054604051636f89cca760e11b815260048101869052600160401b9091046001600160a01b03169063df13994e90602401600060405180830381600087803b1580156115c857600080fd5b505af11580156115dc573d6000803e3d6000fd5b5050505050505050565b6115f08133611b6c565b50565b60006115ff838361094f565b61167d576000838152602081815260408083206001600160a01b03861684529091529020805460ff191660011790556116353390565b6001600160a01b0316826001600160a01b0316847f2f8788117e7eff1d82e926ec794901d17c78024a50270940304540a733656f0d60405160405180910390a4506001610309565b506000610309565b6000611691838361094f565b1561167d576000838152602081815260408083206001600160a01b0386168085529252808320805460ff1916905551339286917ff6391f5c32d9c69d2a47ea670b442974b53935d1edc7fd64eb21e047a839171b9190a4506001610309565b8051600003611712576040516322ce3edd60e01b815260040160405180910390fd5b83836002811115611725576117256122f3565b90816002811115611738576117386122f3565b9052506040840182801561174e5761174e6122f3565b9081801561175e5761175e6122f3565b9052506060909301929092525050565b80516000036117905760405163fe936cb760e01b815260040160405180910390fd5b60a090910152565b80516000036117ba5760405163fe936cb760e01b815260040160405180910390fd5b60c090910152565b606060006117d1610100611ba9565b905061180a6040518060400160405280600c81526020016b31b7b232a637b1b0ba34b7b760a11b81525082611bca90919063ffffffff16565b8251611828906002811115611821576118216122f3565b8290611be3565b6040805180820190915260088152676c616e677561676560c01b6020820152611852908290611bca565b6040830151611869908015611821576118216122f3565b604080518082019091526006815265736f7572636560d01b6020820152611891908290611bca565b60608301516118a1908290611bca565b60a08301515115611935576040805180820190915260048152636172677360e01b60208201526118d2908290611bca565b6118db81611c1c565b60005b8360a001515181101561192b5761191b8460a00151828151811061190457611904612818565b602002602001015183611bca90919063ffffffff16565b61192481612857565b90506118de565b5061193581611c40565b608083015151156119f957600083602001516002811115611958576119586122f3565b036119765760405163a80d31f760e01b815260040160405180910390fd5b60408051808201909152600f81526e39b2b1b932ba39a637b1b0ba34b7b760891b60208201526119a7908290611bca565b6119c083602001516002811115611821576118216122f3565b6040805180820190915260078152667365637265747360c81b60208201526119e9908290611bca565b60808301516119f9908290611c5e565b60c08301515115611a925760408051808201909152600981526862797465734172677360b81b6020820152611a2f908290611bca565b611a3881611c1c565b60005b8360c0015151811015611a8857611a788460c001518281518110611a6157611a61612818565b602002602001015183611c5e90919063ffffffff16565b611a8181612857565b9050611a3b565b50611a9281611c40565b515192915050565b6000807f00000000000000000000000000000000000000000000000000000000000000006001600160a01b031663461d27628688600188886040518663ffffffff1660e01b8152600401611af2959493929190612b69565b6020604051808303816000875af1158015611b11573d6000803e3d6000fd5b505050506040513d601f19601f82011682018060405250810190611b359190612bb2565b60405190915081907f1131472297a800fee664d1d89cfa8f7676ff07189ecc53f80bbb5f4969099db890600090a295945050505050565b611b76828261094f565b611ba55760405163e2517d3f60e01b81526001600160a01b0382166004820152602481018390526044016103fd565b5050565b611bb16120e3565b8051611bbd9083611c6b565b5060006020820152919050565b611bd78260038351611ce2565b81516109029082611dfb565b8151611bf09060c2611e23565b50611ba58282604051602001611c0891815260200190565b604051602081830303815290604052611c5e565b611c27816004611e8c565b600181602001818151611c3a9190612844565b90525050565b611c4b816007611e8c565b600181602001818151611c3a9190612bcb565b611bd78260028351611ce2565b604080518082019091526060815260006020820152611c8b602083612bde565b15611cb357611c9b602083612bde565b611ca6906020612bcb565b611cb09083612844565b91505b602080840183905260405180855260008152908184010181811015611cd757600080fd5b604052509192915050565b6017816001600160401b031611611d0857825161064c9060e0600585901b168317611e23565b60ff816001600160401b031611611d48578251611d30906018611fe0600586901b1617611e23565b50825161064c906001600160401b0383166001611ea3565b61ffff816001600160401b031611611d89578251611d71906019611fe0600586901b1617611e23565b50825161064c906001600160401b0383166002611ea3565b63ffffffff816001600160401b031611611dcc578251611db490601a611fe0600586901b1617611e23565b50825161064c906001600160401b0383166004611ea3565b8251611de390601b611fe0600586901b1617611e23565b50825161064c906001600160401b0383166008611ea3565b604080518082019091526060815260006020820152611e1c83838451611f28565b9392505050565b6040805180820190915260608152600060208201528251516000611e48826001612844565b905084602001518210611e6957611e6985611e64836002612c00565b611ff9565b8451602083820101858153508051821115611e82578181525b5093949350505050565b815161090290601f611fe0600585901b1617611e23565b6040805180820190915260608152600060208201528351516000611ec78285612844565b90508560200151811115611ee457611ee486611e64836002612c00565b60006001611ef486610100612cfb565b611efe9190612bcb565b90508651828101878319825116178152508051831115611f1c578281525b50959695505050505050565b6040805180820190915260608152600060208201528251821115611f4b57600080fd5b8351516000611f5a8483612844565b90508560200151811115611f7757611f7786611e64836002612c00565b855180518382016020019160009180851115611f91578482525b505050602086015b60208610611fd15780518252611fb0602083612844565b9150611fbd602082612844565b9050611fca602087612bcb565b9550611f99565b51815160001960208890036101000a0190811690199190911617905250849150509392505050565b81516120058383611c6b565b5061064c8382611dfb565b50805461201c906127de565b6000825580601f1061202c575050565b601f0160209004906000526020600020908101906115f09190612118565b50805460008255906000526020600020908101906115f09190612131565b50805460008255906000526020600020908101906115f0919061214e565b60408051606080820183528152600060208201529081016120de6040805160e0810190915280600081526020016000815260200160008152602001606081526020016060815260200160608152602001606081525090565b905290565b604051806040016040528061210b604051806040016040528060608152602001600081525090565b8152602001600081525090565b5b8082111561212d5760008155600101612119565b5090565b8082111561212d5760006121458282612010565b50600101612131565b8082111561212d5760006121628282612010565b5060010161214e565b60006020828403121561217d57600080fd5b81356001600160e01b031981168114611e1c57600080fd5b634e487b7160e01b600052604160045260246000fd5b604051601f8201601f191681016001600160401b03811182821017156121d3576121d3612195565b604052919050565b60006001600160401b038311156121f4576121f4612195565b612207601f8401601f19166020016121ab565b905082815283838301111561221b57600080fd5b828260208301376000602084830101529392505050565b600082601f83011261224357600080fd5b611e1c838335602085016121db565b60008060006060848603121561226757600080fd5b8335925060208401356001600160401b038082111561228557600080fd5b61229187838801612232565b935060408601359150808211156122a757600080fd5b506122b486828701612232565b9150509250925092565b600080604083850312156122d157600080fd5b82359150602083013580151581146122e857600080fd5b809150509250929050565b634e487b7160e01b600052602160045260246000fd5b600381106115f0576115f06122f3565b6000815180845260005b8181101561233f57602081850181015186830182015201612323565b506000602082860101526020601f19601f83011685010191505092915050565b602081526001600160401b03825116602082015260018060a01b0360208301511660408201526000604083015161239581612309565b80606084015250606083015160a060808401526123b560c0840182612319565b90506080840151601f198483030160a08501526123d28282612319565b95945050505050565b6000602082840312156123ed57600080fd5b5035919050565b6000806040838503121561240757600080fd5b8235915060208301356001600160a01b03811681146122e857600080fd5b80356001600160401b038116811461243c57600080fd5b919050565b60006020828403121561245357600080fd5b611e1c82612425565b60008083601f84011261246e57600080fd5b5081356001600160401b0381111561248557600080fd5b6020830191508360208260051b85010111156124a057600080fd5b9250929050565b60008083601f8401126124b957600080fd5b5081356001600160401b038111156124d057600080fd5b6020830191508360208285010111156124a057600080fd5b60008060008060008060006080888a03121561250357600080fd5b61250c88612425565b965060208801356001600160401b038082111561252857600080fd5b6125348b838c0161245c565b909850965060408a013591508082111561254d57600080fd5b6125598b838c0161245c565b909650945060608a013591508082111561257257600080fd5b5061257f8a828b016124a7565b989b979a50959850939692959293505050565b80356003811061243c57600080fd5b60008060008060008060008060008060e08b8d0312156125c057600080fd5b6125c98b612425565b99506125d760208c01612592565b985060408b01356001600160401b03808211156125f357600080fd5b6125ff8e838f016124a7565b909a50985088915061261360608e01612592565b975060808d013591508082111561262957600080fd5b6126358e838f016124a7565b909750955060a08d0135915063ffffffff8216821461265357600080fd5b90935060c08c0135908082111561266957600080fd5b506126768d828e016124a7565b915080935050809150509295989b9194979a5092959850565b6001811061269f5761269f6122f3565b9052565b600081518084526020808501808196508360051b8101915082860160005b858110156126eb5782840389526126d9848351612319565b988501989350908401906001016126c1565b5091979650505050505050565b6020815260008251606060208401526127146080840182612319565b905063ffffffff60208501511660408401526040840151601f19848303016060850152805161274281612309565b8252602081015161275281612309565b80602084015250604081015161276b604084018261268f565b50606081015160e0606084015261278560e0840182612319565b90506080820151838203608085015261279e8282612319565b91505060a082015183820360a08501526127b882826126a3565b91505060c0820151915082810360c08401526127d481836126a3565b9695505050505050565b600181811c908216806127f257607f821691505b60208210810361281257634e487b7160e01b600052602260045260246000fd5b50919050565b634e487b7160e01b600052603260045260246000fd5b634e487b7160e01b600052601160045260246000fd5b808201808211156103095761030961282e565b6000600182016128695761286961282e565b5060010190565b634e487b7160e01b600052603160045260246000fd5b60006001600160401b0382111561289f5761289f612195565b5060051b60200190565b60006128bc6128b784612886565b6121ab565b80848252602080830192508560051b8501368111156128da57600080fd5b855b818110156129295780356001600160401b038111156128fb5760008081fd5b870136601f82011261290d5760008081fd5b61291b3682358684016121db565b8652509382019382016128dc565b50919695505050505050565b60006129436128b784612886565b80848252602080830192508560051b85013681111561296157600080fd5b855b818110156129295780356001600160401b038111156129825760008081fd5b61298e36828a01612232565b865250938201938201612963565b601f82111561090257600081815260208120601f850160051c810160208610156129c35750805b601f850160051c820191505b818110156129e2578281556001016129cf565b505050505050565b6001600160401b03831115612a0157612a01612195565b612a1583612a0f83546127de565b8361299c565b6000601f841160018114612a495760008515612a315750838201355b600019600387901b1c1916600186901b178355612aa3565b600083815260209020601f19861690835b82811015612a7a5786850135825560209485019460019092019101612a5a565b5086821015612a975760001960f88860031b161c19848701351681555b505060018560011b0183555b5050505050565b81516001600160401b03811115612ac357612ac3612195565b612ad781612ad184546127de565b8461299c565b602080601f831160018114612b0c5760008415612af45750858301515b600019600386901b1c1916600185901b1785556129e2565b600085815260208120601f198616915b82811015612b3b57888601518255948401946001909101908401612b1c565b5085821015612b595787850151600019600388901b60f8161c191681555b5050505050600190811b01905550565b6001600160401b038616815260a060208201526000612b8b60a0830187612319565b61ffff9590951660408301525063ffffffff92909216606083015260809091015292915050565b600060208284031215612bc457600080fd5b5051919050565b818103818111156103095761030961282e565b600082612bfb57634e487b7160e01b600052601260045260246000fd5b500690565b80820281158282048414176103095761030961282e565b600181815b80851115612c52578160001904821115612c3857612c3861282e565b80851615612c4557918102915b93841c9390800290612c1c565b509250929050565b600082612c6957506001610309565b81612c7657506000610309565b8160018114612c8c5760028114612c9657612cb2565b6001915050610309565b60ff841115612ca757612ca761282e565b50506001821b610309565b5060208310610133831016604e8410600b8410161715612cd5575081810a610309565b612cdf8383612c17565b8060001904821115612cf357612cf361282e565b029392505050565b6000611e1c8383612c5a56fe241ecf16d79d0f8dbfb92cbc07fe17840425976cf0667f022fe9877caa831b08a2646970667358221220c853501b7d4e314864358724dac532054bd10ab5dc8600ff8db02415b54e281264736f6c63430008140033",
  "devdoc": {
    "errors": {
      "AccessControlBadConfirmation()": [
        {
          "details": "The caller of a function is not the expected one. NOTE: Don't confuse with {AccessControlUnauthorizedAccount}."
        }
      ],
      "AccessControlUnauthorizedAccount(address,bytes32)": [
        {
          "details": "The `account` is missing a role."
        }
      ],
      "CCGOnlyManagerAllowed()": [
        {
          "details": "Only A manager can call the function"
        }
      ],
      "CCGOnlySameSourceAllowed(bytes32)": [
        {
          "details": "Only the same source of the requestId is allowed to call the function"
        }
      ],
      "CCGRequestAlreadyFulfilled(bytes32)": [
        {
          "details": "Can't fulfill a request that has already been fulfilled"
        }
      ],
      "CCGRequestNameEmpty()": [
        {
          "details": "Can't register a request with an empty name"
        }
      ],
      "CCGRequestNotRegistered(uint64)": [
        {
          "details": "Only a registered subscriptionId is allowed to call the function"
        }
      ]
    },
    "events": {
      "RoleAdminChanged(bytes32,bytes32,bytes32)": {
        "details": "Emitted when `newAdminRole` is set as ``role``'s admin role, replacing `previousAdminRole` `DEFAULT_ADMIN_ROLE` is the starting admin for all roles, despite {RoleAdminChanged} not being emitted signaling this."
      },
      "RoleGranted(bytes32,address,address)": {
        "details": "Emitted when `account` is granted `role`. `sender` is the account that originated the contract call, an admin role bearer except when using {AccessControl-_setupRole}."
      },
      "RoleRevoked(bytes32,address,address)": {
        "details": "Emitted when `account` is revoked `role`. `sender` is the account that originated the contract call:   - if using `revokeRole`, it is the admin role bearer   - if using `renounceRole`, it is the role bearer (i.e. `account`)"
      }
    },
    "kind": "dev",
    "methods": {
      "donId()": {
        "details": "Get the DON ID",
        "returns": {
          "_0": "DON ID"
        }
      },
      "getResponse(bytes32,bool)": {
        "details": "Get the response data",
        "params": {
          "requestId": "The request ID, returned by sendRequest()"
        },
        "returns": {
          "response": "CCGResponse"
        }
      },
      "getRoleAdmin(bytes32)": {
        "details": "Returns the admin role that controls `role`. See {grantRole} and {revokeRole}. To change a role's admin, use {_setRoleAdmin}."
      },
      "grantRole(bytes32,address)": {
        "details": "Grants `role` to `account`. If `account` had not been already granted `role`, emits a {RoleGranted} event. Requirements: - the caller must have ``role``'s admin role. May emit a {RoleGranted} event."
      },
      "handleOracleFulfillment(bytes32,bytes,bytes)": {
        "details": "Either response or error parameter will be set, but never both.",
        "params": {
          "err": "Aggregated error either from the request's source code or from the execution pipeline.",
          "requestId": "The requestId returned by FunctionsClient.sendRequest().",
          "response": "Aggregated response from the request's source code."
        }
      },
      "hasRole(bytes32,address)": {
        "details": "Returns `true` if `account` has been granted `role`."
      },
      "renounceRole(bytes32,address)": {
        "details": "Revokes `role` from the calling account. Roles are often managed via {grantRole} and {revokeRole}: this function's purpose is to provide a mechanism for accounts to lose their privileges if they are compromised (such as when a trusted device is misplaced). If the calling account had been revoked `role`, emits a {RoleRevoked} event. Requirements: - the caller must be `callerConfirmation`. May emit a {RoleRevoked} event."
      },
      "revokeRole(bytes32,address)": {
        "details": "Revokes `role` from `account`. If `account` had been granted `role`, emits a {RoleRevoked} event. Requirements: - the caller must have ``role``'s admin role. May emit a {RoleRevoked} event."
      },
      "sendRequest(uint64,string[],bytes[],bytes)": {
        "params": {
          "args": "String arguments passed into the source code and accessible via the global variable `args`",
          "bytesArgs": "Bytes arguments passed into the source code and accessible via the global variable `bytesArgs` as hex strings",
          "encryptedSecretsReference": "Reference pointing to encrypted secrets",
          "subscriptionId": "Subscription ID used to pay for request (FunctionsConsumer contract address must first be added to the subscription)"
        }
      },
      "setDonId(bytes32)": {
        "details": "Set the DON ID",
        "params": {
          "newDonId": "New DON ID"
        }
      },
      "supportsInterface(bytes4)": {
        "details": "See {IERC165-supportsInterface}."
      }
    },
    "version": 1
  },
  "userdoc": {
    "kind": "user",
    "methods": {
      "handleOracleFulfillment(bytes32,bytes,bytes)": {
        "notice": "Chainlink Functions response handler called by the Functions Router during fullilment from the designated transmitter node in an OCR round."
      },
      "sendRequest(uint64,string[],bytes[],bytes)": {
        "notice": "Triggers an on-demand Functions request using remote encrypted secrets"
      }
    },
    "version": 1
  },
  "storageLayout": {
    "storage": [
      {
        "astId": 2212,
        "contract": "contracts/CCGateway.sol:CCGateway",
        "label": "_roles",
        "offset": 0,
        "slot": "0",
        "type": "t_mapping(t_bytes32,t_struct(RoleData)2207_storage)"
      },
      {
        "astId": 2663,
        "contract": "contracts/CCGateway.sol:CCGateway",
        "label": "_donId",
        "offset": 0,
        "slot": "1",
        "type": "t_bytes32"
      },
      {
        "astId": 2668,
        "contract": "contracts/CCGateway.sol:CCGateway",
        "label": "_requests",
        "offset": 0,
        "slot": "2",
        "type": "t_mapping(t_uint64,t_struct(CCGRequest)3246_storage)"
      },
      {
        "astId": 2673,
        "contract": "contracts/CCGateway.sol:CCGateway",
        "label": "unprocessed_responses",
        "offset": 0,
        "slot": "3",
        "type": "t_mapping(t_bytes32,t_struct(CCGResponse)3312_storage)"
      },
      {
        "astId": 2676,
        "contract": "contracts/CCGateway.sol:CCGateway",
        "label": "subscriptions",
        "offset": 0,
        "slot": "4",
        "type": "t_array(t_uint64)dyn_storage"
      }
    ],
    "types": {
      "t_address": {
        "encoding": "inplace",
        "label": "address",
        "numberOfBytes": "20"
      },
      "t_array(t_bytes_storage)dyn_storage": {
        "base": "t_bytes_storage",
        "encoding": "dynamic_array",
        "label": "bytes[]",
        "numberOfBytes": "32"
      },
      "t_array(t_string_storage)dyn_storage": {
        "base": "t_string_storage",
        "encoding": "dynamic_array",
        "label": "string[]",
        "numberOfBytes": "32"
      },
      "t_array(t_uint64)dyn_storage": {
        "base": "t_uint64",
        "encoding": "dynamic_array",
        "label": "uint64[]",
        "numberOfBytes": "32"
      },
      "t_bool": {
        "encoding": "inplace",
        "label": "bool",
        "numberOfBytes": "1"
      },
      "t_bytes32": {
        "encoding": "inplace",
        "label": "bytes32",
        "numberOfBytes": "32"
      },
      "t_bytes_storage": {
        "encoding": "bytes",
        "label": "bytes",
        "numberOfBytes": "32"
      },
      "t_enum(CCGResponseState)3300": {
        "encoding": "inplace",
        "label": "enum ICCGatewayClient.CCGResponseState",
        "numberOfBytes": "1"
      },
      "t_enum(CodeLanguage)286": {
        "encoding": "inplace",
        "label": "enum FunctionsRequest.CodeLanguage",
        "numberOfBytes": "1"
      },
      "t_enum(Location)284": {
        "encoding": "inplace",
        "label": "enum FunctionsRequest.Location",
        "numberOfBytes": "1"
      },
      "t_mapping(t_address,t_bool)": {
        "encoding": "mapping",
        "key": "t_address",
        "label": "mapping(address => bool)",
        "numberOfBytes": "32",
        "value": "t_bool"
      },
      "t_mapping(t_bytes32,t_struct(CCGResponse)3312_storage)": {
        "encoding": "mapping",
        "key": "t_bytes32",
        "label": "mapping(bytes32 => struct ICCGatewayClient.CCGResponse)",
        "numberOfBytes": "32",
        "value": "t_struct(CCGResponse)3312_storage"
      },
      "t_mapping(t_bytes32,t_struct(RoleData)2207_storage)": {
        "encoding": "mapping",
        "key": "t_bytes32",
        "label": "mapping(bytes32 => struct AccessControl.RoleData)",
        "numberOfBytes": "32",
        "value": "t_struct(RoleData)2207_storage"
      },
      "t_mapping(t_uint64,t_struct(CCGRequest)3246_storage)": {
        "encoding": "mapping",
        "key": "t_uint64",
        "label": "mapping(uint64 => struct ICCGateway.CCGRequest)",
        "numberOfBytes": "32",
        "value": "t_struct(CCGRequest)3246_storage"
      },
      "t_string_storage": {
        "encoding": "bytes",
        "label": "string",
        "numberOfBytes": "32"
      },
      "t_struct(CCGRequest)3246_storage": {
        "encoding": "inplace",
        "label": "struct ICCGateway.CCGRequest",
        "members": [
          {
            "astId": 3240,
            "contract": "contracts/CCGateway.sol:CCGateway",
            "label": "name",
            "offset": 0,
            "slot": "0",
            "type": "t_string_storage"
          },
          {
            "astId": 3242,
            "contract": "contracts/CCGateway.sol:CCGateway",
            "label": "callbackGasLimit",
            "offset": 0,
            "slot": "1",
            "type": "t_uint32"
          },
          {
            "astId": 3245,
            "contract": "contracts/CCGateway.sol:CCGateway",
            "label": "config",
            "offset": 0,
            "slot": "2",
            "type": "t_struct(Request)306_storage"
          }
        ],
        "numberOfBytes": "224"
      },
      "t_struct(CCGResponse)3312_storage": {
        "encoding": "inplace",
        "label": "struct ICCGatewayClient.CCGResponse",
        "members": [
          {
            "astId": 3302,
            "contract": "contracts/CCGateway.sol:CCGateway",
            "label": "subscriptionId",
            "offset": 0,
            "slot": "0",
            "type": "t_uint64"
          },
          {
            "astId": 3304,
            "contract": "contracts/CCGateway.sol:CCGateway",
            "label": "source",
            "offset": 8,
            "slot": "0",
            "type": "t_address"
          },
          {
            "astId": 3307,
            "contract": "contracts/CCGateway.sol:CCGateway",
            "label": "state",
            "offset": 28,
            "slot": "0",
            "type": "t_enum(CCGResponseState)3300"
          },
          {
            "astId": 3309,
            "contract": "contracts/CCGateway.sol:CCGateway",
            "label": "data",
            "offset": 0,
            "slot": "1",
            "type": "t_bytes_storage"
          },
          {
            "astId": 3311,
            "contract": "contracts/CCGateway.sol:CCGateway",
            "label": "error",
            "offset": 0,
            "slot": "2",
            "type": "t_bytes_storage"
          }
        ],
        "numberOfBytes": "96"
      },
      "t_struct(Request)306_storage": {
        "encoding": "inplace",
        "label": "struct FunctionsRequest.Request",
        "members": [
          {
            "astId": 289,
            "contract": "contracts/CCGateway.sol:CCGateway",
            "label": "codeLocation",
            "offset": 0,
            "slot": "0",
            "type": "t_enum(Location)284"
          },
          {
            "astId": 292,
            "contract": "contracts/CCGateway.sol:CCGateway",
            "label": "secretsLocation",
            "offset": 1,
            "slot": "0",
            "type": "t_enum(Location)284"
          },
          {
            "astId": 295,
            "contract": "contracts/CCGateway.sol:CCGateway",
            "label": "language",
            "offset": 2,
            "slot": "0",
            "type": "t_enum(CodeLanguage)286"
          },
          {
            "astId": 297,
            "contract": "contracts/CCGateway.sol:CCGateway",
            "label": "source",
            "offset": 0,
            "slot": "1",
            "type": "t_string_storage"
          },
          {
            "astId": 299,
            "contract": "contracts/CCGateway.sol:CCGateway",
            "label": "encryptedSecretsReference",
            "offset": 0,
            "slot": "2",
            "type": "t_bytes_storage"
          },
          {
            "astId": 302,
            "contract": "contracts/CCGateway.sol:CCGateway",
            "label": "args",
            "offset": 0,
            "slot": "3",
            "type": "t_array(t_string_storage)dyn_storage"
          },
          {
            "astId": 305,
            "contract": "contracts/CCGateway.sol:CCGateway",
            "label": "bytesArgs",
            "offset": 0,
            "slot": "4",
            "type": "t_array(t_bytes_storage)dyn_storage"
          }
        ],
        "numberOfBytes": "160"
      },
      "t_struct(RoleData)2207_storage": {
        "encoding": "inplace",
        "label": "struct AccessControl.RoleData",
        "members": [
          {
            "astId": 2204,
            "contract": "contracts/CCGateway.sol:CCGateway",
            "label": "hasRole",
            "offset": 0,
            "slot": "0",
            "type": "t_mapping(t_address,t_bool)"
          },
          {
            "astId": 2206,
            "contract": "contracts/CCGateway.sol:CCGateway",
            "label": "adminRole",
            "offset": 0,
            "slot": "1",
            "type": "t_bytes32"
          }
        ],
        "numberOfBytes": "64"
      },
      "t_uint32": {
        "encoding": "inplace",
        "label": "uint32",
        "numberOfBytes": "4"
      },
      "t_uint64": {
        "encoding": "inplace",
        "label": "uint64",
        "numberOfBytes": "8"
      }
    }
  }
}