{
  "address": "0xe9926D1122669816E6403175B998aDD6DD776d26",
  "abi": [
    {
      "inputs": [
        {
          "internalType": "address",
          "name": "router",
          "type": "address"
        },
        {
          "internalType": "bytes32",
          "name": "initialDonId",
          "type": "bytes32"
        },
        {
          "internalType": "address",
          "name": "initialOwner",
          "type": "address"
        }
      ],
      "stateMutability": "nonpayable",
      "type": "constructor"
    },
    {
      "inputs": [],
      "name": "AccessControlBadConfirmation",
      "type": "error"
    },
    {
      "inputs": [
        {
          "internalType": "address",
          "name": "account",
          "type": "address"
        },
        {
          "internalType": "bytes32",
          "name": "neededRole",
          "type": "bytes32"
        }
      ],
      "name": "AccessControlUnauthorizedAccount",
      "type": "error"
    },
    {
      "inputs": [],
      "name": "CCGOnlyManagerAllowed",
      "type": "error"
    },
    {
      "inputs": [
        {
          "internalType": "bytes32",
          "name": "requestId",
          "type": "bytes32"
        }
      ],
      "name": "CCGOnlySameSourceAllowed",
      "type": "error"
    },
    {
      "inputs": [
        {
          "internalType": "bytes32",
          "name": "requestId",
          "type": "bytes32"
        }
      ],
      "name": "CCGRequestAlreadyFulfilled",
      "type": "error"
    },
    {
      "inputs": [],
      "name": "CCGRequestNameEmpty",
      "type": "error"
    },
    {
      "inputs": [
        {
          "internalType": "uint64",
          "name": "subscriptionId",
          "type": "uint64"
        }
      ],
      "name": "CCGRequestNotRegistered",
      "type": "error"
    },
    {
      "inputs": [],
      "name": "EmptyArgs",
      "type": "error"
    },
    {
      "inputs": [],
      "name": "EmptySource",
      "type": "error"
    },
    {
      "inputs": [],
      "name": "NoInlineSecrets",
      "type": "error"
    },
    {
      "inputs": [],
      "name": "OnlyRouterCanFulfill",
      "type": "error"
    },
    {
      "anonymous": false,
      "inputs": [
        {
          "indexed": true,
          "internalType": "bytes32",
          "name": "id",
          "type": "bytes32"
        }
      ],
      "name": "RequestFulfilled",
      "type": "event"
    },
    {
      "anonymous": false,
      "inputs": [
        {
          "indexed": true,
          "internalType": "bytes32",
          "name": "id",
          "type": "bytes32"
        }
      ],
      "name": "RequestSent",
      "type": "event"
    },
    {
      "anonymous": false,
      "inputs": [
        {
          "indexed": true,
          "internalType": "bytes32",
          "name": "role",
          "type": "bytes32"
        },
        {
          "indexed": true,
          "internalType": "bytes32",
          "name": "previousAdminRole",
          "type": "bytes32"
        },
        {
          "indexed": true,
          "internalType": "bytes32",
          "name": "newAdminRole",
          "type": "bytes32"
        }
      ],
      "name": "RoleAdminChanged",
      "type": "event"
    },
    {
      "anonymous": false,
      "inputs": [
        {
          "indexed": true,
          "internalType": "bytes32",
          "name": "role",
          "type": "bytes32"
        },
        {
          "indexed": true,
          "internalType": "address",
          "name": "account",
          "type": "address"
        },
        {
          "indexed": true,
          "internalType": "address",
          "name": "sender",
          "type": "address"
        }
      ],
      "name": "RoleGranted",
      "type": "event"
    },
    {
      "anonymous": false,
      "inputs": [
        {
          "indexed": true,
          "internalType": "bytes32",
          "name": "role",
          "type": "bytes32"
        },
        {
          "indexed": true,
          "internalType": "address",
          "name": "account",
          "type": "address"
        },
        {
          "indexed": true,
          "internalType": "address",
          "name": "sender",
          "type": "address"
        }
      ],
      "name": "RoleRevoked",
      "type": "event"
    },
    {
      "inputs": [],
      "name": "CLIENT_ROLE",
      "outputs": [
        {
          "internalType": "bytes32",
          "name": "",
          "type": "bytes32"
        }
      ],
      "stateMutability": "view",
      "type": "function"
    },
    {
      "inputs": [],
      "name": "DEFAULT_ADMIN_ROLE",
      "outputs": [
        {
          "internalType": "bytes32",
          "name": "",
          "type": "bytes32"
        }
      ],
      "stateMutability": "view",
      "type": "function"
    },
    {
      "inputs": [],
      "name": "MANAGER_ROLE",
      "outputs": [
        {
          "internalType": "bytes32",
          "name": "",
          "type": "bytes32"
        }
      ],
      "stateMutability": "view",
      "type": "function"
    },
    {
      "inputs": [],
      "name": "donId",
      "outputs": [
        {
          "internalType": "bytes32",
          "name": "",
          "type": "bytes32"
        }
      ],
      "stateMutability": "view",
      "type": "function"
    },
    {
      "inputs": [
        {
          "internalType": "uint64",
          "name": "subscriptionId",
          "type": "uint64"
        }
      ],
      "name": "getRequest",
      "outputs": [
        {
          "components": [
            {
              "internalType": "string",
              "name": "name",
              "type": "string"
            },
            {
              "internalType": "uint32",
              "name": "callbackGasLimit",
              "type": "uint32"
            },
            {
              "components": [
                {
                  "internalType": "enum FunctionsRequest.Location",
                  "name": "codeLocation",
                  "type": "uint8"
                },
                {
                  "internalType": "enum FunctionsRequest.Location",
                  "name": "secretsLocation",
                  "type": "uint8"
                },
                {
                  "internalType": "enum FunctionsRequest.CodeLanguage",
                  "name": "language",
                  "type": "uint8"
                },
                {
                  "internalType": "string",
                  "name": "source",
                  "type": "string"
                },
                {
                  "internalType": "bytes",
                  "name": "encryptedSecretsReference",
                  "type": "bytes"
                },
                {
                  "internalType": "string[]",
                  "name": "args",
                  "type": "string[]"
                },
                {
                  "internalType": "bytes[]",
                  "name": "bytesArgs",
                  "type": "bytes[]"
                }
              ],
              "internalType": "struct FunctionsRequest.Request",
              "name": "config",
              "type": "tuple"
            }
          ],
          "internalType": "struct ICCGateway.CCGRequest",
          "name": "",
          "type": "tuple"
        }
      ],
      "stateMutability": "view",
      "type": "function"
    },
    {
      "inputs": [
        {
          "internalType": "bytes32",
          "name": "requestId",
          "type": "bytes32"
        },
        {
          "internalType": "bool",
          "name": "remove",
          "type": "bool"
        }
      ],
      "name": "getResponse",
      "outputs": [
        {
          "components": [
            {
              "internalType": "uint64",
              "name": "subscriptionId",
              "type": "uint64"
            },
            {
              "internalType": "address",
              "name": "source",
              "type": "address"
            },
            {
              "internalType": "enum ICCGatewayClient.CCGResponseState",
              "name": "state",
              "type": "uint8"
            },
            {
              "internalType": "bytes",
              "name": "data",
              "type": "bytes"
            },
            {
              "internalType": "bytes",
              "name": "error",
              "type": "bytes"
            }
          ],
          "internalType": "struct ICCGatewayClient.CCGResponse",
          "name": "response",
          "type": "tuple"
        }
      ],
      "stateMutability": "nonpayable",
      "type": "function"
    },
    {
      "inputs": [
        {
          "internalType": "bytes32",
          "name": "role",
          "type": "bytes32"
        }
      ],
      "name": "getRoleAdmin",
      "outputs": [
        {
          "internalType": "bytes32",
          "name": "",
          "type": "bytes32"
        }
      ],
      "stateMutability": "view",
      "type": "function"
    },
    {
      "inputs": [
        {
          "internalType": "bytes32",
          "name": "role",
          "type": "bytes32"
        },
        {
          "internalType": "address",
          "name": "account",
          "type": "address"
        }
      ],
      "name": "grantRole",
      "outputs": [],
      "stateMutability": "nonpayable",
      "type": "function"
    },
    {
      "inputs": [
        {
          "internalType": "bytes32",
          "name": "requestId",
          "type": "bytes32"
        },
        {
          "internalType": "bytes",
          "name": "response",
          "type": "bytes"
        },
        {
          "internalType": "bytes",
          "name": "err",
          "type": "bytes"
        }
      ],
      "name": "handleOracleFulfillment",
      "outputs": [],
      "stateMutability": "nonpayable",
      "type": "function"
    },
    {
      "inputs": [
        {
          "internalType": "bytes32",
          "name": "role",
          "type": "bytes32"
        },
        {
          "internalType": "address",
          "name": "account",
          "type": "address"
        }
      ],
      "name": "hasRole",
      "outputs": [
        {
          "internalType": "bool",
          "name": "",
          "type": "bool"
        }
      ],
      "stateMutability": "view",
      "type": "function"
    },
    {
      "inputs": [
        {
          "internalType": "uint64",
          "name": "subscriptionId",
          "type": "uint64"
        },
        {
          "internalType": "enum FunctionsRequest.Location",
          "name": "codeLocation",
          "type": "uint8"
        },
        {
          "internalType": "string",
          "name": "source",
          "type": "string"
        },
        {
          "internalType": "enum FunctionsRequest.Location",
          "name": "secretsLocation",
          "type": "uint8"
        },
        {
          "internalType": "bytes",
          "name": "encryptedSecretsReference",
          "type": "bytes"
        },
        {
          "internalType": "uint32",
          "name": "callbackGasLimit",
          "type": "uint32"
        },
        {
          "internalType": "string",
          "name": "name",
          "type": "string"
        }
      ],
      "name": "registerRequest",
      "outputs": [],
      "stateMutability": "nonpayable",
      "type": "function"
    },
    {
      "inputs": [
        {
          "internalType": "uint64",
          "name": "subscriptionId",
          "type": "uint64"
        }
      ],
      "name": "removeRequest",
      "outputs": [],
      "stateMutability": "nonpayable",
      "type": "function"
    },
    {
      "inputs": [
        {
          "internalType": "bytes32",
          "name": "role",
          "type": "bytes32"
        },
        {
          "internalType": "address",
          "name": "callerConfirmation",
          "type": "address"
        }
      ],
      "name": "renounceRole",
      "outputs": [],
      "stateMutability": "nonpayable",
      "type": "function"
    },
    {
      "inputs": [
        {
          "internalType": "bytes32",
          "name": "role",
          "type": "bytes32"
        },
        {
          "internalType": "address",
          "name": "account",
          "type": "address"
        }
      ],
      "name": "revokeRole",
      "outputs": [],
      "stateMutability": "nonpayable",
      "type": "function"
    },
    {
      "inputs": [
        {
          "internalType": "uint64",
          "name": "subscriptionId",
          "type": "uint64"
        },
        {
          "internalType": "string[]",
          "name": "args",
          "type": "string[]"
        },
        {
          "internalType": "bytes[]",
          "name": "bytesArgs",
          "type": "bytes[]"
        },
        {
          "internalType": "bytes",
          "name": "encryptedSecretsReference",
          "type": "bytes"
        }
      ],
      "name": "sendRequest",
      "outputs": [
        {
          "internalType": "bytes32",
          "name": "requestId",
          "type": "bytes32"
        }
      ],
      "stateMutability": "nonpayable",
      "type": "function"
    },
    {
      "inputs": [
        {
          "internalType": "bytes32",
          "name": "newDonId",
          "type": "bytes32"
        }
      ],
      "name": "setDonId",
      "outputs": [],
      "stateMutability": "nonpayable",
      "type": "function"
    },
    {
      "inputs": [
        {
          "internalType": "uint256",
          "name": "",
          "type": "uint256"
        }
      ],
      "name": "subscriptions",
      "outputs": [
        {
          "internalType": "uint64",
          "name": "",
          "type": "uint64"
        }
      ],
      "stateMutability": "view",
      "type": "function"
    },
    {
      "inputs": [
        {
          "internalType": "bytes4",
          "name": "interfaceId",
          "type": "bytes4"
        }
      ],
      "name": "supportsInterface",
      "outputs": [
        {
          "internalType": "bool",
          "name": "",
          "type": "bool"
        }
      ],
      "stateMutability": "view",
      "type": "function"
    }
  ],
  "transactionHash": "0xe0d2dd9c0fcf708c6c54166c6c50929029c3e978ba171191214c9478c8285b58",
  "args": [
    "0xf9B8fc078197181C841c296C876945aaa425B278",
    "0x66756e2d626173652d7365706f6c69612d310000000000000000000000000000",
    "0xD10F43A0aa00D244DAcFBE3C49b9B918B717Ff2c"
  ],
  "numDeployments": 1,
  "solcInputHash": "757a0cc1c674e4e4007b25c045668167",
  "bytecode": "0x60a06040523480156200001157600080fd5b5060405162002f4e38038062002f4e83398101604081905262000034916200016e565b6001600160a01b0380841660805260018390556000908216156200005957816200005b565b335b90506200006a600082620000a2565b50620000977f241ecf16d79d0f8dbfb92cbc07fe17840425976cf0667f022fe9877caa831b0882620000a2565b5050505050620001af565b6000828152602081815260408083206001600160a01b038516845290915281205460ff1662000147576000838152602081815260408083206001600160a01b03861684529091529020805460ff19166001179055620000fe3390565b6001600160a01b0316826001600160a01b0316847f2f8788117e7eff1d82e926ec794901d17c78024a50270940304540a733656f0d60405160405180910390a45060016200014b565b5060005b92915050565b80516001600160a01b03811681146200016957600080fd5b919050565b6000806000606084860312156200018457600080fd5b6200018f8462000151565b925060208401519150620001a66040850162000151565b90509250925092565b608051612d7c620001d26000396000818161031a0152611ac30152612d7c6000f3fe608060405234801561001057600080fd5b50600436106101165760003560e01c80638dbe7b9d116100a2578063c8ab5f2211610071578063c8ab5f2214610256578063cbbf67ec14610269578063d547741f14610289578063eae6f6521461029c578063ec87621c146102c357600080fd5b80638dbe7b9d1461022057806391d148541461022857806396c1582e1461023b578063a217fddf1461024e57600080fd5b80632d5bbf60116100e95780632d5bbf60146101a95780632f2ff15d146101d457806334d2afd9146101e757806336568abe146101fa57806378ca5de71461020d57600080fd5b806301ffc9a71461011b5780630ca761751461014357806315b851d114610158578063248a9ca314610178575b600080fd5b61012e61012936600461218f565b6102d8565b60405190151581526020015b60405180910390f35b610156610151366004612276565b61030f565b005b61016b6101663660046122e2565b610393565b60405161013a9190612383565b61019b6101863660046123ff565b60009081526020819052604090206001015490565b60405190815260200161013a565b6101bc6101b73660046123ff565b6105ea565b6040516001600160401b03909116815260200161013a565b6101566101e2366004612418565b610627565b6101566101f5366004612460565b610652565b610156610208366004612418565b6108cf565b61015661021b3660046123ff565b610907565b60015461019b565b61012e610236366004612418565b61094f565b61019b610249366004612507565b610978565b61019b600081565b6101566102643660046125c0565b610e5a565b61027c610277366004612460565b610fdb565b60405161013a9190612717565b610156610297366004612418565b6114b2565b61019b7fa5ff3ec7a96cdbba4d2d5172d66bbc73c6db3885f29b21be5da9fa7a7c02523281565b61019b600080516020612d2783398151915281565b60006001600160e01b03198216637965db0b60e01b148061030957506301ffc9a760e01b6001600160e01b03198316145b92915050565b336001600160a01b037f000000000000000000000000000000000000000000000000000000000000000016146103585760405163c6829f8360e01b815260040160405180910390fd5b6103638383836114d7565b60405183907f85e1543bf2f84fe80c6badbce3648c8539ad1df4d2b3d822938ca0538be727e690600090a2505050565b6040805160a081018252600080825260208201819052918101919091526060808201819052608082015260008381526003602052604090205483906001600160a01b03600160401b9091041633146104065760405163949aaf2d60e01b8152600481018290526024015b60405180910390fd5b600084815260036020908152604091829020825160a08101845281546001600160401b0381168252600160401b81046001600160a01b03169382019390935292909190830190600160e01b900460ff16600281111561046757610467612317565b600281111561047857610478612317565b815260200160018201805461048c906127fd565b80601f01602080910402602001604051908101604052809291908181526020018280546104b8906127fd565b80156105055780601f106104da57610100808354040283529160200191610505565b820191906000526020600020905b8154815290600101906020018083116104e857829003601f168201915b5050505050815260200160028201805461051e906127fd565b80601f016020809104026020016040519081016040528092919081815260200182805461054a906127fd565b80156105975780601f1061056c57610100808354040283529160200191610597565b820191906000526020600020905b81548152906001019060200180831161057a57829003601f168201915b505050505081525050915082156105e357600084815260036020526040812080546001600160e81b0319168155906105d26001830182612034565b6105e0600283016000612034565b50505b5092915050565b600481815481106105fa57600080fd5b9060005260206000209060049182820401919006600802915054906101000a90046001600160401b031681565b6000828152602081905260409020600101546106428161160a565b61064c8383611617565b50505050565b61066a600080516020612d278339815191523261094f565b6106875760405163129d730760e01b815260040160405180910390fd5b6001600160401b038116600090815260026020526040902080546106aa906127fd565b90506000036106d757604051630601bb0160e21b81526001600160401b03821660048201526024016103fd565b6001600160401b0381166000908152600260205260408120906106fa8282612034565b60018201805463ffffffff1916905560028201805462ffffff1916815560006107266003850182612034565b610734600283016000612034565b61074260038301600061206e565b61075060048301600061208c565b50506004549150600090505b60045481101561088857600454821480156107b85750826001600160401b03166004828154811061078f5761078f612837565b6000918252602090912060048204015460039091166008026101000a90046001600160401b0316145b156107c1578091505b60045482148015906107de57506004546107dc826001612863565b105b156108765760046107f0826001612863565b8154811061080057610800612837565b90600052602060002090600491828204019190066008029054906101000a90046001600160401b03166004828154811061083c5761083c612837565b90600052602060002090600491828204019190066008026101000a8154816001600160401b0302191690836001600160401b031602179055505b8061088081612876565b91505061075c565b50600480548061089a5761089a61288f565b60008281526020902060046000199092019182040180546001600160401b03600860038516026101000a021916905590555050565b6001600160a01b03811633146108f85760405163334bd91960e11b815260040160405180910390fd5b61090282826116a9565b505050565b600080516020612d2783398151915260009081526020527fe84508f2c7fa9c351146748b3025cb78b45df37d868e48c6a75102fecdeee646546109498161160a565b50600155565b6000918252602082815260408084206001600160a01b0393909316845291905290205460ff1690565b60007fa5ff3ec7a96cdbba4d2d5172d66bbc73c6db3885f29b21be5da9fa7a7c0252326109a48161160a565b6001600160401b0389166000908152600260205260409020805481906109c9906127fd565b90506000036109f657604051630601bb0160e21b81526001600160401b038b1660048201526024016103fd565b6040805160e081019091526002808301805460009392839160ff1690811115610a2157610a21612317565b6002811115610a3257610a32612317565b81528154602090910190610100900460ff166002811115610a5557610a55612317565b6002811115610a6657610a66612317565b8152815460209091019062010000900460ff168015610a8757610a87612317565b8015610a9557610a95612317565b8152602001600182018054610aa9906127fd565b80601f0160208091040260200160405190810160405280929190818152602001828054610ad5906127fd565b8015610b225780601f10610af757610100808354040283529160200191610b22565b820191906000526020600020905b815481529060010190602001808311610b0557829003601f168201915b50505050508152602001600282018054610b3b906127fd565b80601f0160208091040260200160405190810160405280929190818152602001828054610b67906127fd565b8015610bb45780601f10610b8957610100808354040283529160200191610bb4565b820191906000526020600020905b815481529060010190602001808311610b9757829003601f168201915b5050505050815260200160038201805480602002602001604051908101604052809291908181526020016000905b82821015610c8e578382906000526020600020018054610c01906127fd565b80601f0160208091040260200160405190810160405280929190818152602001828054610c2d906127fd565b8015610c7a5780601f10610c4f57610100808354040283529160200191610c7a565b820191906000526020600020905b815481529060010190602001808311610c5d57829003601f168201915b505050505081526020019060010190610be2565b50505050815260200160048201805480602002602001604051908101604052809291908181526020016000905b82821015610d67578382906000526020600020018054610cda906127fd565b80601f0160208091040260200160405190810160405280929190818152602001828054610d06906127fd565b8015610d535780601f10610d2857610100808354040283529160200191610d53565b820191906000526020600020905b815481529060010190602001808311610d3657829003601f168201915b505050505081526020019060010190610cbb565b5050509152505080516060820151919250610d8791839190600090611714565b8415610dc95785858080601f01602080910402602001604051908101604052809392919081815260200183838082843760009201919091525050505060808201525b8815610de357610de3610ddc8a8c6128c8565b8290611792565b8615610dfd57610dfd610df6888a612954565b82906117bc565b610e1f610e09826117e6565b60018085015490548e9163ffffffff1690611abe565b6000818152600360205260409020805468010000000000000000600160e81b031916600160401b33021790559b9a5050505050505050505050565b610e72600080516020612d278339815191523261094f565b610e8f5760405163129d730760e01b815260040160405180910390fd5b6000819003610eb15760405163281b14ab60e01b815260040160405180910390fd5b6001600160401b038a16600090815260026020526040902080610ed5838583612a09565b506001818101805463ffffffff191663ffffffff87161790556002808301805462ff000019811682558d93919262ff00ff1990911691908490811115610f1d57610f1d612317565b021790555060038101610f31898b83612a09565b5060028082018054899261ff001990911690610100908490811115610f5857610f58612317565b021790555060048101610f6c868883612a09565b50506004805460018101825560008290529081047f8a35acfbc15ff81a39ae7d344fd709f28e8600b4aa8c65c6b64bfe7fe36bd19b0180546001600160401b039c8d1660086003909416939093026101000a9283029c909202199091169a909a17909955505050505050505050565b610fe36120aa565b610ffb600080516020612d278339815191523261094f565b6110185760405163129d730760e01b815260040160405180910390fd5b6001600160401b0382166000908152600260205260409020805461103b906127fd565b905060000361106857604051630601bb0160e21b81526001600160401b03831660048201526024016103fd565b6001600160401b0382166000908152600260205260409081902081516060810190925280548290829061109a906127fd565b80601f01602080910402602001604051908101604052809291908181526020018280546110c6906127fd565b80156111135780601f106110e857610100808354040283529160200191611113565b820191906000526020600020905b8154815290600101906020018083116110f657829003601f168201915b5050509183525050600182015463ffffffff1660208201526040805160e0810182526002808501805493909401939192839160ff9091169081111561115a5761115a612317565b600281111561116b5761116b612317565b81528154602090910190610100900460ff16600281111561118e5761118e612317565b600281111561119f5761119f612317565b8152815460209091019062010000900460ff1680156111c0576111c0612317565b80156111ce576111ce612317565b81526020016001820180546111e2906127fd565b80601f016020809104026020016040519081016040528092919081815260200182805461120e906127fd565b801561125b5780601f106112305761010080835404028352916020019161125b565b820191906000526020600020905b81548152906001019060200180831161123e57829003601f168201915b50505050508152602001600282018054611274906127fd565b80601f01602080910402602001604051908101604052809291908181526020018280546112a0906127fd565b80156112ed5780601f106112c2576101008083540402835291602001916112ed565b820191906000526020600020905b8154815290600101906020018083116112d057829003601f168201915b5050505050815260200160038201805480602002602001604051908101604052809291908181526020016000905b828210156113c757838290600052602060002001805461133a906127fd565b80601f0160208091040260200160405190810160405280929190818152602001828054611366906127fd565b80156113b35780601f10611388576101008083540402835291602001916113b3565b820191906000526020600020905b81548152906001019060200180831161139657829003601f168201915b50505050508152602001906001019061131b565b50505050815260200160048201805480602002602001604051908101604052809291908181526020016000905b828210156114a0578382906000526020600020018054611413906127fd565b80601f016020809104026020016040519081016040528092919081815260200182805461143f906127fd565b801561148c5780601f106114615761010080835404028352916020019161148c565b820191906000526020600020905b81548152906001019060200180831161146f57829003601f168201915b5050505050815260200190600101906113f4565b5050509152505090525090505b919050565b6000828152602081905260409020600101546114cd8161160a565b61064c83836116a9565b6000838152600360205260408120908154600160e01b900460ff16600281111561150357611503612317565b14611523576040516287aa6360e01b8152600481018590526024016103fd565b6000825111611533576001611536565b60025b6000858152600360205260409020805460ff60e01b1916600160e01b83600281111561156457611564612317565b021790555060008481526003602052604090206001016115848482612ac9565b5060008481526003602052604090206002016115a08382612ac9565b508054604051636f89cca760e11b815260048101869052600160401b9091046001600160a01b03169063df13994e90602401600060405180830381600087803b1580156115ec57600080fd5b505af1158015611600573d6000803e3d6000fd5b5050505050505050565b6116148133611b90565b50565b6000611623838361094f565b6116a1576000838152602081815260408083206001600160a01b03861684529091529020805460ff191660011790556116593390565b6001600160a01b0316826001600160a01b0316847f2f8788117e7eff1d82e926ec794901d17c78024a50270940304540a733656f0d60405160405180910390a4506001610309565b506000610309565b60006116b5838361094f565b156116a1576000838152602081815260408083206001600160a01b0386168085529252808320805460ff1916905551339286917ff6391f5c32d9c69d2a47ea670b442974b53935d1edc7fd64eb21e047a839171b9190a4506001610309565b8051600003611736576040516322ce3edd60e01b815260040160405180910390fd5b8383600281111561174957611749612317565b9081600281111561175c5761175c612317565b9052506040840182801561177257611772612317565b9081801561178257611782612317565b9052506060909301929092525050565b80516000036117b45760405163fe936cb760e01b815260040160405180910390fd5b60a090910152565b80516000036117de5760405163fe936cb760e01b815260040160405180910390fd5b60c090910152565b606060006117f5610100611bcd565b905061182e6040518060400160405280600c81526020016b31b7b232a637b1b0ba34b7b760a11b81525082611bee90919063ffffffff16565b825161184c90600281111561184557611845612317565b8290611c07565b6040805180820190915260088152676c616e677561676560c01b6020820152611876908290611bee565b604083015161188d90801561184557611845612317565b604080518082019091526006815265736f7572636560d01b60208201526118b5908290611bee565b60608301516118c5908290611bee565b60a08301515115611959576040805180820190915260048152636172677360e01b60208201526118f6908290611bee565b6118ff81611c40565b60005b8360a001515181101561194f5761193f8460a00151828151811061192857611928612837565b602002602001015183611bee90919063ffffffff16565b61194881612876565b9050611902565b5061195981611c64565b60808301515115611a1d5760008360200151600281111561197c5761197c612317565b0361199a5760405163a80d31f760e01b815260040160405180910390fd5b60408051808201909152600f81526e39b2b1b932ba39a637b1b0ba34b7b760891b60208201526119cb908290611bee565b6119e48360200151600281111561184557611845612317565b6040805180820190915260078152667365637265747360c81b6020820152611a0d908290611bee565b6080830151611a1d908290611c82565b60c08301515115611ab65760408051808201909152600981526862797465734172677360b81b6020820152611a53908290611bee565b611a5c81611c40565b60005b8360c0015151811015611aac57611a9c8460c001518281518110611a8557611a85612837565b602002602001015183611c8290919063ffffffff16565b611aa581612876565b9050611a5f565b50611ab681611c64565b515192915050565b6000807f00000000000000000000000000000000000000000000000000000000000000006001600160a01b031663461d27628688600188886040518663ffffffff1660e01b8152600401611b16959493929190612b88565b6020604051808303816000875af1158015611b35573d6000803e3d6000fd5b505050506040513d601f19601f82011682018060405250810190611b599190612bd1565b60405190915081907f1131472297a800fee664d1d89cfa8f7676ff07189ecc53f80bbb5f4969099db890600090a295945050505050565b611b9a828261094f565b611bc95760405163e2517d3f60e01b81526001600160a01b0382166004820152602481018390526044016103fd565b5050565b611bd5612107565b8051611be19083611c8f565b5060006020820152919050565b611bfb8260038351611d06565b81516109029082611e1f565b8151611c149060c2611e47565b50611bc98282604051602001611c2c91815260200190565b604051602081830303815290604052611c82565b611c4b816004611eb0565b600181602001818151611c5e9190612863565b90525050565b611c6f816007611eb0565b600181602001818151611c5e9190612bea565b611bfb8260028351611d06565b604080518082019091526060815260006020820152611caf602083612bfd565b15611cd757611cbf602083612bfd565b611cca906020612bea565b611cd49083612863565b91505b602080840183905260405180855260008152908184010181811015611cfb57600080fd5b604052509192915050565b6017816001600160401b031611611d2c57825161064c9060e0600585901b168317611e47565b60ff816001600160401b031611611d6c578251611d54906018611fe0600586901b1617611e47565b50825161064c906001600160401b0383166001611ec7565b61ffff816001600160401b031611611dad578251611d95906019611fe0600586901b1617611e47565b50825161064c906001600160401b0383166002611ec7565b63ffffffff816001600160401b031611611df0578251611dd890601a611fe0600586901b1617611e47565b50825161064c906001600160401b0383166004611ec7565b8251611e0790601b611fe0600586901b1617611e47565b50825161064c906001600160401b0383166008611ec7565b604080518082019091526060815260006020820152611e4083838451611f4c565b9392505050565b6040805180820190915260608152600060208201528251516000611e6c826001612863565b905084602001518210611e8d57611e8d85611e88836002612c1f565b61201d565b8451602083820101858153508051821115611ea6578181525b5093949350505050565b815161090290601f611fe0600585901b1617611e47565b6040805180820190915260608152600060208201528351516000611eeb8285612863565b90508560200151811115611f0857611f0886611e88836002612c1f565b60006001611f1886610100612d1a565b611f229190612bea565b90508651828101878319825116178152508051831115611f40578281525b50959695505050505050565b6040805180820190915260608152600060208201528251821115611f6f57600080fd5b8351516000611f7e8483612863565b90508560200151811115611f9b57611f9b86611e88836002612c1f565b855180518382016020019160009180851115611fb5578482525b505050602086015b60208610611ff55780518252611fd4602083612863565b9150611fe1602082612863565b9050611fee602087612bea565b9550611fbd565b51815160001960208890036101000a0190811690199190911617905250849150509392505050565b81516120298383611c8f565b5061064c8382611e1f565b508054612040906127fd565b6000825580601f10612050575050565b601f016020900490600052602060002090810190611614919061213c565b50805460008255906000526020600020908101906116149190612155565b50805460008255906000526020600020908101906116149190612172565b60408051606080820183528152600060208201529081016121026040805160e0810190915280600081526020016000815260200160008152602001606081526020016060815260200160608152602001606081525090565b905290565b604051806040016040528061212f604051806040016040528060608152602001600081525090565b8152602001600081525090565b5b80821115612151576000815560010161213d565b5090565b808211156121515760006121698282612034565b50600101612155565b808211156121515760006121868282612034565b50600101612172565b6000602082840312156121a157600080fd5b81356001600160e01b031981168114611e4057600080fd5b634e487b7160e01b600052604160045260246000fd5b604051601f8201601f191681016001600160401b03811182821017156121f7576121f76121b9565b604052919050565b60006001600160401b03831115612218576122186121b9565b61222b601f8401601f19166020016121cf565b905082815283838301111561223f57600080fd5b828260208301376000602084830101529392505050565b600082601f83011261226757600080fd5b611e40838335602085016121ff565b60008060006060848603121561228b57600080fd5b8335925060208401356001600160401b03808211156122a957600080fd5b6122b587838801612256565b935060408601359150808211156122cb57600080fd5b506122d886828701612256565b9150509250925092565b600080604083850312156122f557600080fd5b823591506020830135801515811461230c57600080fd5b809150509250929050565b634e487b7160e01b600052602160045260246000fd5b6003811061161457611614612317565b6000815180845260005b8181101561236357602081850181015186830182015201612347565b506000602082860101526020601f19601f83011685010191505092915050565b602081526001600160401b03825116602082015260018060a01b036020830151166040820152600060408301516123b98161232d565b80606084015250606083015160a060808401526123d960c084018261233d565b90506080840151601f198483030160a08501526123f6828261233d565b95945050505050565b60006020828403121561241157600080fd5b5035919050565b6000806040838503121561242b57600080fd5b8235915060208301356001600160a01b038116811461230c57600080fd5b80356001600160401b03811681146114ad57600080fd5b60006020828403121561247257600080fd5b611e4082612449565b60008083601f84011261248d57600080fd5b5081356001600160401b038111156124a457600080fd5b6020830191508360208260051b85010111156124bf57600080fd5b9250929050565b60008083601f8401126124d857600080fd5b5081356001600160401b038111156124ef57600080fd5b6020830191508360208285010111156124bf57600080fd5b60008060008060008060006080888a03121561252257600080fd5b61252b88612449565b965060208801356001600160401b038082111561254757600080fd5b6125538b838c0161247b565b909850965060408a013591508082111561256c57600080fd5b6125788b838c0161247b565b909650945060608a013591508082111561259157600080fd5b5061259e8a828b016124c6565b989b979a50959850939692959293505050565b8035600381106114ad57600080fd5b60008060008060008060008060008060e08b8d0312156125df57600080fd5b6125e88b612449565b99506125f660208c016125b1565b985060408b01356001600160401b038082111561261257600080fd5b61261e8e838f016124c6565b909a50985088915061263260608e016125b1565b975060808d013591508082111561264857600080fd5b6126548e838f016124c6565b909750955060a08d0135915063ffffffff8216821461267257600080fd5b90935060c08c0135908082111561268857600080fd5b506126958d828e016124c6565b915080935050809150509295989b9194979a5092959850565b600181106126be576126be612317565b9052565b600081518084526020808501808196508360051b8101915082860160005b8581101561270a5782840389526126f884835161233d565b988501989350908401906001016126e0565b5091979650505050505050565b602081526000825160606020840152612733608084018261233d565b905063ffffffff60208501511660408401526040840151601f1984830301606085015280516127618161232d565b825260208101516127718161232d565b80602084015250604081015161278a60408401826126ae565b50606081015160e060608401526127a460e084018261233d565b9050608082015183820360808501526127bd828261233d565b91505060a082015183820360a08501526127d782826126c2565b91505060c0820151915082810360c08401526127f381836126c2565b9695505050505050565b600181811c9082168061281157607f821691505b60208210810361283157634e487b7160e01b600052602260045260246000fd5b50919050565b634e487b7160e01b600052603260045260246000fd5b634e487b7160e01b600052601160045260246000fd5b808201808211156103095761030961284d565b6000600182016128885761288861284d565b5060010190565b634e487b7160e01b600052603160045260246000fd5b60006001600160401b038211156128be576128be6121b9565b5060051b60200190565b60006128db6128d6846128a5565b6121cf565b80848252602080830192508560051b8501368111156128f957600080fd5b855b818110156129485780356001600160401b0381111561291a5760008081fd5b870136601f82011261292c5760008081fd5b61293a3682358684016121ff565b8652509382019382016128fb565b50919695505050505050565b60006129626128d6846128a5565b80848252602080830192508560051b85013681111561298057600080fd5b855b818110156129485780356001600160401b038111156129a15760008081fd5b6129ad36828a01612256565b865250938201938201612982565b601f82111561090257600081815260208120601f850160051c810160208610156129e25750805b601f850160051c820191505b81811015612a01578281556001016129ee565b505050505050565b6001600160401b03831115612a2057612a206121b9565b612a3483612a2e83546127fd565b836129bb565b6000601f841160018114612a685760008515612a505750838201355b600019600387901b1c1916600186901b178355612ac2565b600083815260209020601f19861690835b82811015612a995786850135825560209485019460019092019101612a79565b5086821015612ab65760001960f88860031b161c19848701351681555b505060018560011b0183555b5050505050565b81516001600160401b03811115612ae257612ae26121b9565b612af681612af084546127fd565b846129bb565b602080601f831160018114612b2b5760008415612b135750858301515b600019600386901b1c1916600185901b178555612a01565b600085815260208120601f198616915b82811015612b5a57888601518255948401946001909101908401612b3b565b5085821015612b785787850151600019600388901b60f8161c191681555b5050505050600190811b01905550565b6001600160401b038616815260a060208201526000612baa60a083018761233d565b61ffff9590951660408301525063ffffffff92909216606083015260809091015292915050565b600060208284031215612be357600080fd5b5051919050565b818103818111156103095761030961284d565b600082612c1a57634e487b7160e01b600052601260045260246000fd5b500690565b80820281158282048414176103095761030961284d565b600181815b80851115612c71578160001904821115612c5757612c5761284d565b80851615612c6457918102915b93841c9390800290612c3b565b509250929050565b600082612c8857506001610309565b81612c9557506000610309565b8160018114612cab5760028114612cb557612cd1565b6001915050610309565b60ff841115612cc657612cc661284d565b50506001821b610309565b5060208310610133831016604e8410600b8410161715612cf4575081810a610309565b612cfe8383612c36565b8060001904821115612d1257612d1261284d565b029392505050565b6000611e408383612c7956fe241ecf16d79d0f8dbfb92cbc07fe17840425976cf0667f022fe9877caa831b08a264697066735822122030d3b7a171f770f4a2a202f217ca2df4e87c5be66aa684936c85f87563cc834b64736f6c63430008140033",
  "devdoc": {
    "errors": {
      "AccessControlBadConfirmation()": [
        {
          "details": "The caller of a function is not the expected one. NOTE: Don't confuse with {AccessControlUnauthorizedAccount}."
        }
      ],
      "AccessControlUnauthorizedAccount(address,bytes32)": [
        {
          "details": "The `account` is missing a role."
        }
      ],
      "CCGOnlyManagerAllowed()": [
        {
          "details": "Only A manager can call the function"
        }
      ],
      "CCGOnlySameSourceAllowed(bytes32)": [
        {
          "details": "Only the same source of the requestId is allowed to call the function"
        }
      ],
      "CCGRequestAlreadyFulfilled(bytes32)": [
        {
          "details": "Can't fulfill a request that has already been fulfilled"
        }
      ],
      "CCGRequestNameEmpty()": [
        {
          "details": "Can't register a request with an empty name"
        }
      ],
      "CCGRequestNotRegistered(uint64)": [
        {
          "details": "Only a registered subscriptionId is allowed to call the function"
        }
      ]
    },
    "events": {
      "RoleAdminChanged(bytes32,bytes32,bytes32)": {
        "details": "Emitted when `newAdminRole` is set as ``role``'s admin role, replacing `previousAdminRole` `DEFAULT_ADMIN_ROLE` is the starting admin for all roles, despite {RoleAdminChanged} not being emitted signaling this."
      },
      "RoleGranted(bytes32,address,address)": {
        "details": "Emitted when `account` is granted `role`. `sender` is the account that originated the contract call, an admin role bearer except when using {AccessControl-_setupRole}."
      },
      "RoleRevoked(bytes32,address,address)": {
        "details": "Emitted when `account` is revoked `role`. `sender` is the account that originated the contract call:   - if using `revokeRole`, it is the admin role bearer   - if using `renounceRole`, it is the role bearer (i.e. `account`)"
      }
    },
    "kind": "dev",
    "methods": {
      "donId()": {
        "details": "Get the DON ID",
        "returns": {
          "_0": "DON ID"
        }
      },
      "getResponse(bytes32,bool)": {
        "details": "Get the response data",
        "params": {
          "requestId": "The request ID, returned by sendRequest()"
        },
        "returns": {
          "response": "CCGResponse"
        }
      },
      "getRoleAdmin(bytes32)": {
        "details": "Returns the admin role that controls `role`. See {grantRole} and {revokeRole}. To change a role's admin, use {_setRoleAdmin}."
      },
      "grantRole(bytes32,address)": {
        "details": "Grants `role` to `account`. If `account` had not been already granted `role`, emits a {RoleGranted} event. Requirements: - the caller must have ``role``'s admin role. May emit a {RoleGranted} event."
      },
      "handleOracleFulfillment(bytes32,bytes,bytes)": {
        "details": "Either response or error parameter will be set, but never both.",
        "params": {
          "err": "Aggregated error either from the request's source code or from the execution pipeline.",
          "requestId": "The requestId returned by FunctionsClient.sendRequest().",
          "response": "Aggregated response from the request's source code."
        }
      },
      "hasRole(bytes32,address)": {
        "details": "Returns `true` if `account` has been granted `role`."
      },
      "renounceRole(bytes32,address)": {
        "details": "Revokes `role` from the calling account. Roles are often managed via {grantRole} and {revokeRole}: this function's purpose is to provide a mechanism for accounts to lose their privileges if they are compromised (such as when a trusted device is misplaced). If the calling account had been revoked `role`, emits a {RoleRevoked} event. Requirements: - the caller must be `callerConfirmation`. May emit a {RoleRevoked} event."
      },
      "revokeRole(bytes32,address)": {
        "details": "Revokes `role` from `account`. If `account` had been granted `role`, emits a {RoleRevoked} event. Requirements: - the caller must have ``role``'s admin role. May emit a {RoleRevoked} event."
      },
      "sendRequest(uint64,string[],bytes[],bytes)": {
        "params": {
          "args": "String arguments passed into the source code and accessible via the global variable `args`",
          "bytesArgs": "Bytes arguments passed into the source code and accessible via the global variable `bytesArgs` as hex strings",
          "encryptedSecretsReference": "Reference pointing to encrypted secrets",
          "subscriptionId": "Subscription ID used to pay for request (FunctionsConsumer contract address must first be added to the subscription)"
        }
      },
      "setDonId(bytes32)": {
        "details": "Set the DON ID",
        "params": {
          "newDonId": "New DON ID"
        }
      },
      "supportsInterface(bytes4)": {
        "details": "See {IERC165-supportsInterface}."
      }
    },
    "version": 1
  },
  "userdoc": {
    "kind": "user",
    "methods": {
      "handleOracleFulfillment(bytes32,bytes,bytes)": {
        "notice": "Chainlink Functions response handler called by the Functions Router during fullilment from the designated transmitter node in an OCR round."
      },
      "sendRequest(uint64,string[],bytes[],bytes)": {
        "notice": "Triggers an on-demand Functions request using remote encrypted secrets"
      }
    },
    "version": 1
  },
  "storageLayout": {
    "storage": [
      {
        "astId": 2212,
        "contract": "contracts/CCGateway.sol:CCGateway",
        "label": "_roles",
        "offset": 0,
        "slot": "0",
        "type": "t_mapping(t_bytes32,t_struct(RoleData)2207_storage)"
      },
      {
        "astId": 2663,
        "contract": "contracts/CCGateway.sol:CCGateway",
        "label": "_donId",
        "offset": 0,
        "slot": "1",
        "type": "t_bytes32"
      },
      {
        "astId": 2668,
        "contract": "contracts/CCGateway.sol:CCGateway",
        "label": "_requests",
        "offset": 0,
        "slot": "2",
        "type": "t_mapping(t_uint64,t_struct(CCGRequest)3238_storage)"
      },
      {
        "astId": 2673,
        "contract": "contracts/CCGateway.sol:CCGateway",
        "label": "unprocessed_responses",
        "offset": 0,
        "slot": "3",
        "type": "t_mapping(t_bytes32,t_struct(CCGResponse)3304_storage)"
      },
      {
        "astId": 2676,
        "contract": "contracts/CCGateway.sol:CCGateway",
        "label": "subscriptions",
        "offset": 0,
        "slot": "4",
        "type": "t_array(t_uint64)dyn_storage"
      }
    ],
    "types": {
      "t_address": {
        "encoding": "inplace",
        "label": "address",
        "numberOfBytes": "20"
      },
      "t_array(t_bytes_storage)dyn_storage": {
        "base": "t_bytes_storage",
        "encoding": "dynamic_array",
        "label": "bytes[]",
        "numberOfBytes": "32"
      },
      "t_array(t_string_storage)dyn_storage": {
        "base": "t_string_storage",
        "encoding": "dynamic_array",
        "label": "string[]",
        "numberOfBytes": "32"
      },
      "t_array(t_uint64)dyn_storage": {
        "base": "t_uint64",
        "encoding": "dynamic_array",
        "label": "uint64[]",
        "numberOfBytes": "32"
      },
      "t_bool": {
        "encoding": "inplace",
        "label": "bool",
        "numberOfBytes": "1"
      },
      "t_bytes32": {
        "encoding": "inplace",
        "label": "bytes32",
        "numberOfBytes": "32"
      },
      "t_bytes_storage": {
        "encoding": "bytes",
        "label": "bytes",
        "numberOfBytes": "32"
      },
      "t_enum(CCGResponseState)3292": {
        "encoding": "inplace",
        "label": "enum ICCGatewayClient.CCGResponseState",
        "numberOfBytes": "1"
      },
      "t_enum(CodeLanguage)286": {
        "encoding": "inplace",
        "label": "enum FunctionsRequest.CodeLanguage",
        "numberOfBytes": "1"
      },
      "t_enum(Location)284": {
        "encoding": "inplace",
        "label": "enum FunctionsRequest.Location",
        "numberOfBytes": "1"
      },
      "t_mapping(t_address,t_bool)": {
        "encoding": "mapping",
        "key": "t_address",
        "label": "mapping(address => bool)",
        "numberOfBytes": "32",
        "value": "t_bool"
      },
      "t_mapping(t_bytes32,t_struct(CCGResponse)3304_storage)": {
        "encoding": "mapping",
        "key": "t_bytes32",
        "label": "mapping(bytes32 => struct ICCGatewayClient.CCGResponse)",
        "numberOfBytes": "32",
        "value": "t_struct(CCGResponse)3304_storage"
      },
      "t_mapping(t_bytes32,t_struct(RoleData)2207_storage)": {
        "encoding": "mapping",
        "key": "t_bytes32",
        "label": "mapping(bytes32 => struct AccessControl.RoleData)",
        "numberOfBytes": "32",
        "value": "t_struct(RoleData)2207_storage"
      },
      "t_mapping(t_uint64,t_struct(CCGRequest)3238_storage)": {
        "encoding": "mapping",
        "key": "t_uint64",
        "label": "mapping(uint64 => struct ICCGateway.CCGRequest)",
        "numberOfBytes": "32",
        "value": "t_struct(CCGRequest)3238_storage"
      },
      "t_string_storage": {
        "encoding": "bytes",
        "label": "string",
        "numberOfBytes": "32"
      },
      "t_struct(CCGRequest)3238_storage": {
        "encoding": "inplace",
        "label": "struct ICCGateway.CCGRequest",
        "members": [
          {
            "astId": 3232,
            "contract": "contracts/CCGateway.sol:CCGateway",
            "label": "name",
            "offset": 0,
            "slot": "0",
            "type": "t_string_storage"
          },
          {
            "astId": 3234,
            "contract": "contracts/CCGateway.sol:CCGateway",
            "label": "callbackGasLimit",
            "offset": 0,
            "slot": "1",
            "type": "t_uint32"
          },
          {
            "astId": 3237,
            "contract": "contracts/CCGateway.sol:CCGateway",
            "label": "config",
            "offset": 0,
            "slot": "2",
            "type": "t_struct(Request)306_storage"
          }
        ],
        "numberOfBytes": "224"
      },
      "t_struct(CCGResponse)3304_storage": {
        "encoding": "inplace",
        "label": "struct ICCGatewayClient.CCGResponse",
        "members": [
          {
            "astId": 3294,
            "contract": "contracts/CCGateway.sol:CCGateway",
            "label": "subscriptionId",
            "offset": 0,
            "slot": "0",
            "type": "t_uint64"
          },
          {
            "astId": 3296,
            "contract": "contracts/CCGateway.sol:CCGateway",
            "label": "source",
            "offset": 8,
            "slot": "0",
            "type": "t_address"
          },
          {
            "astId": 3299,
            "contract": "contracts/CCGateway.sol:CCGateway",
            "label": "state",
            "offset": 28,
            "slot": "0",
            "type": "t_enum(CCGResponseState)3292"
          },
          {
            "astId": 3301,
            "contract": "contracts/CCGateway.sol:CCGateway",
            "label": "data",
            "offset": 0,
            "slot": "1",
            "type": "t_bytes_storage"
          },
          {
            "astId": 3303,
            "contract": "contracts/CCGateway.sol:CCGateway",
            "label": "error",
            "offset": 0,
            "slot": "2",
            "type": "t_bytes_storage"
          }
        ],
        "numberOfBytes": "96"
      },
      "t_struct(Request)306_storage": {
        "encoding": "inplace",
        "label": "struct FunctionsRequest.Request",
        "members": [
          {
            "astId": 289,
            "contract": "contracts/CCGateway.sol:CCGateway",
            "label": "codeLocation",
            "offset": 0,
            "slot": "0",
            "type": "t_enum(Location)284"
          },
          {
            "astId": 292,
            "contract": "contracts/CCGateway.sol:CCGateway",
            "label": "secretsLocation",
            "offset": 1,
            "slot": "0",
            "type": "t_enum(Location)284"
          },
          {
            "astId": 295,
            "contract": "contracts/CCGateway.sol:CCGateway",
            "label": "language",
            "offset": 2,
            "slot": "0",
            "type": "t_enum(CodeLanguage)286"
          },
          {
            "astId": 297,
            "contract": "contracts/CCGateway.sol:CCGateway",
            "label": "source",
            "offset": 0,
            "slot": "1",
            "type": "t_string_storage"
          },
          {
            "astId": 299,
            "contract": "contracts/CCGateway.sol:CCGateway",
            "label": "encryptedSecretsReference",
            "offset": 0,
            "slot": "2",
            "type": "t_bytes_storage"
          },
          {
            "astId": 302,
            "contract": "contracts/CCGateway.sol:CCGateway",
            "label": "args",
            "offset": 0,
            "slot": "3",
            "type": "t_array(t_string_storage)dyn_storage"
          },
          {
            "astId": 305,
            "contract": "contracts/CCGateway.sol:CCGateway",
            "label": "bytesArgs",
            "offset": 0,
            "slot": "4",
            "type": "t_array(t_bytes_storage)dyn_storage"
          }
        ],
        "numberOfBytes": "160"
      },
      "t_struct(RoleData)2207_storage": {
        "encoding": "inplace",
        "label": "struct AccessControl.RoleData",
        "members": [
          {
            "astId": 2204,
            "contract": "contracts/CCGateway.sol:CCGateway",
            "label": "hasRole",
            "offset": 0,
            "slot": "0",
            "type": "t_mapping(t_address,t_bool)"
          },
          {
            "astId": 2206,
            "contract": "contracts/CCGateway.sol:CCGateway",
            "label": "adminRole",
            "offset": 0,
            "slot": "1",
            "type": "t_bytes32"
          }
        ],
        "numberOfBytes": "64"
      },
      "t_uint32": {
        "encoding": "inplace",
        "label": "uint32",
        "numberOfBytes": "4"
      },
      "t_uint64": {
        "encoding": "inplace",
        "label": "uint64",
        "numberOfBytes": "8"
      }
    }
  }
}