{
  "address": "0xeDf5a10bb18B25a8abe24AFd8a59C12700B241ba",
  "abi": [
    {
      "inputs": [
        {
          "internalType": "address",
          "name": "gatewayAddress",
          "type": "address"
        }
      ],
      "stateMutability": "nonpayable",
      "type": "constructor"
    },
    {
      "anonymous": false,
      "inputs": [
        {
          "indexed": false,
          "internalType": "uint64",
          "name": "subscriptionId",
          "type": "uint64"
        },
        {
          "indexed": false,
          "internalType": "bytes32",
          "name": "requestId",
          "type": "bytes32"
        },
        {
          "indexed": false,
          "internalType": "string",
          "name": "error",
          "type": "string"
        }
      ],
      "name": "ErrorReceived",
      "type": "event"
    },
    {
      "anonymous": false,
      "inputs": [
        {
          "indexed": false,
          "internalType": "uint64",
          "name": "subscriptionId",
          "type": "uint64"
        },
        {
          "indexed": false,
          "internalType": "bytes32",
          "name": "requestId",
          "type": "bytes32"
        },
        {
          "indexed": false,
          "internalType": "string",
          "name": "response",
          "type": "string"
        }
      ],
      "name": "ResponseReceived",
      "type": "event"
    },
    {
      "inputs": [
        {
          "internalType": "bytes32",
          "name": "requestId",
          "type": "bytes32"
        }
      ],
      "name": "callback",
      "outputs": [],
      "stateMutability": "nonpayable",
      "type": "function"
    },
    {
      "inputs": [],
      "name": "encryptedSecretsReference",
      "outputs": [
        {
          "internalType": "bytes",
          "name": "",
          "type": "bytes"
        }
      ],
      "stateMutability": "view",
      "type": "function"
    },
    {
      "inputs": [
        {
          "internalType": "string[]",
          "name": "args",
          "type": "string[]"
        },
        {
          "internalType": "bytes[]",
          "name": "bytesArgs",
          "type": "bytes[]"
        }
      ],
      "name": "request",
      "outputs": [],
      "stateMutability": "nonpayable",
      "type": "function"
    },
    {
      "inputs": [],
      "name": "subscriptionId",
      "outputs": [
        {
          "internalType": "uint64",
          "name": "",
          "type": "uint64"
        }
      ],
      "stateMutability": "view",
      "type": "function"
    },
    {
      "inputs": [
        {
          "internalType": "bytes",
          "name": "_encryptedSecretsReference",
          "type": "bytes"
        }
      ],
      "name": "updateEncryptedSecretsReference",
      "outputs": [],
      "stateMutability": "nonpayable",
      "type": "function"
    },
    {
      "inputs": [
        {
          "internalType": "uint64",
          "name": "_subscriptionId",
          "type": "uint64"
        }
      ],
      "name": "updateSubscriptionId",
      "outputs": [],
      "stateMutability": "nonpayable",
      "type": "function"
    }
  ],
  "transactionHash": "0xeb918ab534dabd98f6f3a66aaf3d119b7005de4fad824b1b365e9fb5287400c7",
  "args": [
    "0x0910A0FE7881D332230Ce1FB7f2BaA1Ebe527473"
  ],
  "numDeployments": 3,
  "solcInputHash": "fc0de00091a2e0264aed2d3e71476d4f",
  "bytecode": "0x600080546001600160401b031916815560c060405260a090815260019062000028908262000110565b503480156200003657600080fd5b5060405162000d6a38038062000d6a8339810160408190526200005991620001dc565b6001600160a01b03166080526200020e565b634e487b7160e01b600052604160045260246000fd5b600181811c908216806200009657607f821691505b602082108103620000b757634e487b7160e01b600052602260045260246000fd5b50919050565b601f8211156200010b57600081815260208120601f850160051c81016020861015620000e65750805b601f850160051c820191505b818110156200010757828155600101620000f2565b5050505b505050565b81516001600160401b038111156200012c576200012c6200006b565b62000144816200013d845462000081565b84620000bd565b602080601f8311600181146200017c5760008415620001635750858301515b600019600386901b1c1916600185901b17855562000107565b600085815260208120601f198616915b82811015620001ad578886015182559484019460019091019084016200018c565b5085821015620001cc5787850151600019600388901b60f8161c191681555b5050505050600190811b01905550565b600060208284031215620001ef57600080fd5b81516001600160a01b03811681146200020757600080fd5b9392505050565b608051610b39620002316000396000818161023101526102e30152610b396000f3fe608060405234801561001057600080fd5b50600436106100625760003560e01c806309c1ba2e1461006757806314b1dd1b146100975780634ce64f0e146100ca578063cdc634f1146100dd578063cfd58386146100f2578063df13994e14610105575b600080fd5b60005461007a906001600160401b031681565b6040516001600160401b0390911681526020015b60405180910390f35b6100c86100a5366004610415565b6000805467ffffffffffffffff19166001600160401b0392909216919091179055565b005b6100c86100d8366004610439565b610118565b6100e561012a565b60405161008e91906104fa565b6100c8610100366004610558565b6101b8565b6100c86101133660046105c3565b6102c3565b600161012582848361067a565b505050565b60018054610137906105f2565b80601f0160208091040260200160405190810160405280929190818152602001828054610163906105f2565b80156101b05780601f10610185576101008083540402835291602001916101b0565b820191906000526020600020905b81548152906001019060200180831161019357829003601f168201915b505050505081565b600080546001600160401b031690036102175760405162461bcd60e51b815260206004820152601760248201527f537562736372697074696f6e204944206e6f7420736574000000000000000000604482015260640160405180910390fd5b600054604051634b60ac1760e11b81526001600160a01b037f000000000000000000000000000000000000000000000000000000000000000016916396c1582e91610279916001600160401b0316908890889088908890600190600401610824565b6020604051808303816000875af1158015610298573d6000803e3d6000fd5b505050506040513d601f19601f820116820180604052508101906102bc919061090d565b5050505050565b6040516315b851d160e01b815260048101829052600160248201526000907f00000000000000000000000000000000000000000000000000000000000000006001600160a01b0316906315b851d1906044016000604051808303816000875af1158015610334573d6000803e3d6000fd5b505050506040513d6000823e601f3d908101601f1916820160405261035c91908101906109e9565b905060018160400151600281111561037657610376610abc565b036103c2577fa5522492de1ed169e1e5e76f6cb2ceb5f045ca7f7ea5da3137c573d996cc4b9f81600001518383606001516040516103b693929190610ad2565b60405180910390a15050565b7f331e0adccd60eab7ca94cf49c60a45549ce9dc1281139656a13bdf73774d179c81600001518383608001516040516103b693929190610ad2565b6001600160401b038116811461041257600080fd5b50565b60006020828403121561042757600080fd5b8135610432816103fd565b9392505050565b6000806020838503121561044c57600080fd5b82356001600160401b038082111561046357600080fd5b818501915085601f83011261047757600080fd5b81358181111561048657600080fd5b86602082850101111561049857600080fd5b60209290920196919550909350505050565b60005b838110156104c55781810151838201526020016104ad565b50506000910152565b600081518084526104e68160208601602086016104aa565b601f01601f19169290920160200192915050565b60208152600061043260208301846104ce565b60008083601f84011261051f57600080fd5b5081356001600160401b0381111561053657600080fd5b6020830191508360208260051b850101111561055157600080fd5b9250929050565b6000806000806040858703121561056e57600080fd5b84356001600160401b038082111561058557600080fd5b6105918883890161050d565b909650945060208701359150808211156105aa57600080fd5b506105b78782880161050d565b95989497509550505050565b6000602082840312156105d557600080fd5b5035919050565b634e487b7160e01b600052604160045260246000fd5b600181811c9082168061060657607f821691505b60208210810361062657634e487b7160e01b600052602260045260246000fd5b50919050565b601f82111561012557600081815260208120601f850160051c810160208610156106535750805b601f850160051c820191505b818110156106725782815560010161065f565b505050505050565b6001600160401b03831115610691576106916105dc565b6106a58361069f83546105f2565b8361062c565b6000601f8411600181146106d957600085156106c15750838201355b600019600387901b1c1916600186901b1783556102bc565b600083815260209020601f19861690835b8281101561070a57868501358255602094850194600190920191016106ea565b50868210156107275760001960f88860031b161c19848701351681555b505060018560011b0183555050505050565b81835281816020850137506000828201602090810191909152601f909101601f19169091010190565b6000808335601e1984360301811261077957600080fd5b83016020810192503590506001600160401b0381111561079857600080fd5b80360382131561055157600080fd5b600081546107b4816105f2565b8085526020600183811680156107d157600181146107eb57610819565b60ff1985168884015283151560051b880183019550610819565b866000528260002060005b858110156108115781548a82018601529083019084016107f6565b890184019650505b505050505092915050565b6000608082016001600160401b038916835260206080818501528188835260a08501905060a08960051b86010192508960005b8a81101561089157868503609f19018352610872828d610762565b61087d878284610739565b965050509183019190830190600101610857565b5050508382036040850152858252808201600587901b830182018860005b898110156108e957858303601f190184526108ca828c610762565b6108d5858284610739565b9587019594505050908401906001016108af565b505085810360608701526108fd81886107a7565b9c9b505050505050505050505050565b60006020828403121561091f57600080fd5b5051919050565b60405160a081016001600160401b0381118282101715610948576109486105dc565b60405290565b80516003811061095d57600080fd5b919050565b600082601f83011261097357600080fd5b81516001600160401b038082111561098d5761098d6105dc565b604051601f8301601f19908116603f011681019082821181831017156109b5576109b56105dc565b816040528381528660208588010111156109ce57600080fd5b6109df8460208301602089016104aa565b9695505050505050565b6000602082840312156109fb57600080fd5b81516001600160401b0380821115610a1257600080fd5b9083019060a08286031215610a2657600080fd5b610a2e610926565b8251610a39816103fd565b815260208301516001600160a01b0381168114610a5557600080fd5b6020820152610a666040840161094e565b6040820152606083015182811115610a7d57600080fd5b610a8987828601610962565b606083015250608083015182811115610aa157600080fd5b610aad87828601610962565b60808301525095945050505050565b634e487b7160e01b600052602160045260246000fd5b6001600160401b0384168152826020820152606060408201526000610afa60608301846104ce565b9594505050505056fea26469706673582212209c23a4aa128701447d0247b6e250fc1aeb5f0bdf6334f1ef0fdcdc125482ae6a64736f6c63430008140033",
  "devdoc": {
    "kind": "dev",
    "methods": {},
    "version": 1
  },
  "userdoc": {
    "kind": "user",
    "methods": {},
    "version": 1
  },
  "storageLayout": {
    "storage": [
      {
        "astId": 2081,
        "contract": "contracts/CCExampleClient.sol:CCExampleClient",
        "label": "subscriptionId",
        "offset": 0,
        "slot": "0",
        "type": "t_uint64"
      },
      {
        "astId": 2084,
        "contract": "contracts/CCExampleClient.sol:CCExampleClient",
        "label": "encryptedSecretsReference",
        "offset": 0,
        "slot": "1",
        "type": "t_bytes_storage"
      }
    ],
    "types": {
      "t_bytes_storage": {
        "encoding": "bytes",
        "label": "bytes",
        "numberOfBytes": "32"
      },
      "t_uint64": {
        "encoding": "inplace",
        "label": "uint64",
        "numberOfBytes": "8"
      }
    }
  }
}