{
  "address": "0xB8fC7cB372DFE8184aa48A58614025C3b36c1B16",
  "abi": [
    {
      "inputs": [
        {
          "internalType": "address",
          "name": "gatewayAddress",
          "type": "address"
        }
      ],
      "stateMutability": "nonpayable",
      "type": "constructor"
    },
    {
      "inputs": [],
      "name": "ART_ALT_ENDPOINT",
      "outputs": [
        {
          "internalType": "uint64",
          "name": "",
          "type": "uint64"
        }
      ],
      "stateMutability": "view",
      "type": "function"
    },
    {
      "inputs": [],
      "name": "BACKSTORY_ENDPOINT",
      "outputs": [
        {
          "internalType": "uint64",
          "name": "",
          "type": "uint64"
        }
      ],
      "stateMutability": "view",
      "type": "function"
    },
    {
      "inputs": [
        {
          "internalType": "address",
          "name": "",
          "type": "address"
        }
      ],
      "name": "altArt",
      "outputs": [
        {
          "internalType": "string",
          "name": "",
          "type": "string"
        }
      ],
      "stateMutability": "view",
      "type": "function"
    },
    {
      "inputs": [
        {
          "internalType": "address",
          "name": "",
          "type": "address"
        }
      ],
      "name": "backstory",
      "outputs": [
        {
          "internalType": "string",
          "name": "",
          "type": "string"
        }
      ],
      "stateMutability": "view",
      "type": "function"
    },
    {
      "inputs": [
        {
          "internalType": "bytes32",
          "name": "requestId",
          "type": "bytes32"
        }
      ],
      "name": "callback",
      "outputs": [],
      "stateMutability": "nonpayable",
      "type": "function"
    },
    {
      "inputs": [
        {
          "internalType": "string[]",
          "name": "characterDetails",
          "type": "string[]"
        }
      ],
      "name": "generateArtAlt",
      "outputs": [],
      "stateMutability": "nonpayable",
      "type": "function"
    },
    {
      "inputs": [
        {
          "internalType": "string",
          "name": "characterClass",
          "type": "string"
        },
        {
          "internalType": "string",
          "name": "characterRace",
          "type": "string"
        },
        {
          "internalType": "string",
          "name": "characterName",
          "type": "string"
        },
        {
          "internalType": "string",
          "name": "background",
          "type": "string"
        }
      ],
      "name": "generateBackstory",
      "outputs": [],
      "stateMutability": "nonpayable",
      "type": "function"
    },
    {
      "inputs": [
        {
          "internalType": "uint64",
          "name": "_subscriptionId",
          "type": "uint64"
        }
      ],
      "name": "setArtAltEndpoint",
      "outputs": [],
      "stateMutability": "nonpayable",
      "type": "function"
    },
    {
      "inputs": [
        {
          "internalType": "uint64",
          "name": "_subscriptionId",
          "type": "uint64"
        }
      ],
      "name": "setBackstoryEndpoint",
      "outputs": [],
      "stateMutability": "nonpayable",
      "type": "function"
    }
  ],
  "transactionHash": "0x375e66e7df6a66d6ef062fc8eae26ad37a6688bc14d8fd773c9fa99fa3569957",
  "args": [
    "0x26f0EB234DE737fE9dEf0fF1F3206848e55799D8"
  ],
  "numDeployments": 3,
  "solcInputHash": "ef4622b4ad723a0f642609eed82cdab5",
  "bytecode": "0x60a0604052600080546001600160801b031916905534801561002057600080fd5b5060405161108a38038061108a83398101604081905261003f91610050565b6001600160a01b0316608052610080565b60006020828403121561006257600080fd5b81516001600160a01b038116811461007957600080fd5b9392505050565b608051610fe16100a9600039600081816104ad0152818161057c01526107300152610fe16000f3fe608060405234801561001057600080fd5b50600436106100935760003560e01c8063aace35c511610066578063aace35c51461015f578063c948b8ca14610172578063cb0b934d14610185578063df13994e1461019f578063f18c5c34146101b257600080fd5b806307232bfd146100985780630da411c5146100c15780631e3ebdef146100f45780636fa2577e14610134575b600080fd5b6100ab6100a6366004610851565b6101c5565b6040516100b891906108c5565b60405180910390f35b6100f26100cf3660046108ed565b6000805467ffffffffffffffff19166001600160401b0392909216919091179055565b005b6100f26101023660046108ed565b600080546001600160401b03909216600160401b026fffffffffffffffff000000000000000019909216919091179055565b600054610147906001600160401b031681565b6040516001600160401b0390911681526020016100b8565b6100ab61016d366004610851565b61025f565b6100f2610180366004610952565b610278565b60005461014790600160401b90046001600160401b031681565b6100f26101ad366004610a15565b61055c565b6100f26101c0366004610a2e565b61068a565b600160205260009081526040902080546101de90610aa2565b80601f016020809104026020016040519081016040528092919081815260200182805461020a90610aa2565b80156102575780601f1061022c57610100808354040283529160200191610257565b820191906000526020600020905b81548152906001019060200180831161023a57829003601f168201915b505050505081565b600260205260009081526040902080546101de90610aa2565b600080546001600160401b031690036102d85760405162461bcd60e51b815260206004820152601d60248201527f4261636b73746f727920456e64706f696e74204944206e6f742073657400000060448201526064015b60405180910390fd5b60408051600480825260a08201909252600091816020015b60608152602001906001900390816102f057905050905088888080601f016020809104026020016040519081016040528093929190818152602001838380828437600092018290525085518694509092501515905061035157610351610af2565b602002602001018190525086868080601f0160208091040260200160405190810160405280939291908181526020018383808284376000920191909152505083518492506001915081106103a7576103a7610af2565b602002602001018190525084848080601f0160208091040260200160405190810160405280939291908181526020018383808284376000920191909152505083518492506002915081106103fd576103fd610af2565b602002602001018190525082828080601f01602080910402602001604051908101604052809392919081815260200183838082843760009201919091525050835184925060039150811061045357610453610af2565b6020908102919091018101919091526040805160008082529281019091528161048c565b60608152602001906001900390816104775790505b5060008054604051634b60ac1760e11b815292935090916001600160a01b037f000000000000000000000000000000000000000000000000000000000000000016916396c1582e916104ee916001600160401b03169087908790600401610b5d565b6020604051808303816000875af115801561050d573d6000803e3d6000fd5b505050506040513d601f19601f820116820180604052508101906105319190610bf6565b600090815260036020526040902080546001600160a01b031916331790555050505050505050505050565b6040516315b851d160e01b815260048101829052600160248201526000907f00000000000000000000000000000000000000000000000000000000000000006001600160a01b0316906315b851d1906044016000604051808303816000875af11580156105cd573d6000803e3d6000fd5b505050506040513d6000823e601f3d908101601f191682016040526105f59190810190610cc8565b600083815260036020526040902080546001600160a01b031981169091559091506001600160a01b031660018260400151600281111561063757610637610d8f565b0361065d5760005482516001600160401b039182169116036106625761065d82826107e9565b505050565b60005482516001600160401b03600160401b909204821691160361065d5761065d8282610811565b60008054600160401b90046001600160401b031690036106ec5760405162461bcd60e51b815260206004820152601b60248201527f41727420416c7420456e64706f696e74204944206e6f7420736574000000000060448201526064016102cf565b6040805160008082526020820190925281610717565b60608152602001906001900390816107025790505b5060008054604051634b60ac1760e11b815292935090917f00000000000000000000000000000000000000000000000000000000000000006001600160a01b0316916396c1582e9161078291600160401b90046001600160401b031690889088908890600401610dce565b6020604051808303816000875af11580156107a1573d6000803e3d6000fd5b505050506040513d601f19601f820116820180604052508101906107c59190610bf6565b600090815260036020526040902080546001600160a01b0319163317905550505050565b60608201516001600160a01b03821660009081526001602052604090209061065d9082610eec565b60608201516001600160a01b03821660009081526002602052604090209061065d9082610eec565b6001600160a01b038116811461084e57600080fd5b50565b60006020828403121561086357600080fd5b813561086e81610839565b9392505050565b60005b83811015610890578181015183820152602001610878565b50506000910152565b600081518084526108b1816020860160208601610875565b601f01601f19169290920160200192915050565b60208152600061086e6020830184610899565b6001600160401b038116811461084e57600080fd5b6000602082840312156108ff57600080fd5b813561086e816108d8565b60008083601f84011261091c57600080fd5b5081356001600160401b0381111561093357600080fd5b60208301915083602082850101111561094b57600080fd5b9250929050565b6000806000806000806000806080898b03121561096e57600080fd5b88356001600160401b038082111561098557600080fd5b6109918c838d0161090a565b909a50985060208b01359150808211156109aa57600080fd5b6109b68c838d0161090a565b909850965060408b01359150808211156109cf57600080fd5b6109db8c838d0161090a565b909650945060608b01359150808211156109f457600080fd5b50610a018b828c0161090a565b999c989b5096995094979396929594505050565b600060208284031215610a2757600080fd5b5035919050565b60008060208385031215610a4157600080fd5b82356001600160401b0380821115610a5857600080fd5b818501915085601f830112610a6c57600080fd5b813581811115610a7b57600080fd5b8660208260051b8501011115610a9057600080fd5b60209290920196919550909350505050565b600181811c90821680610ab657607f821691505b602082108103610ad657634e487b7160e01b600052602260045260246000fd5b50919050565b634e487b7160e01b600052604160045260246000fd5b634e487b7160e01b600052603260045260246000fd5b600081518084526020808501808196508360051b8101915082860160005b85811015610b50578284038952610b3e848351610899565b98850198935090840190600101610b26565b5091979650505050505050565b6000608082016001600160401b0386168352602060808185015281865180845260a08601915060a08160051b870101935082880160005b82811015610bc257609f19888703018452610bb0868351610899565b95509284019290840190600101610b94565b50505050508281036040840152610bd98185610b08565b8381036060850152600081529050602081015b9695505050505050565b600060208284031215610c0857600080fd5b5051919050565b60405160a081016001600160401b0381118282101715610c3157610c31610adc565b60405290565b805160038110610c4657600080fd5b919050565b600082601f830112610c5c57600080fd5b81516001600160401b0380821115610c7657610c76610adc565b604051601f8301601f19908116603f01168101908282118183101715610c9e57610c9e610adc565b81604052838152866020858801011115610cb757600080fd5b610bec846020830160208901610875565b600060208284031215610cda57600080fd5b81516001600160401b0380821115610cf157600080fd5b9083019060a08286031215610d0557600080fd5b610d0d610c0f565b8251610d18816108d8565b81526020830151610d2881610839565b6020820152610d3960408401610c37565b6040820152606083015182811115610d5057600080fd5b610d5c87828601610c4b565b606083015250608083015182811115610d7457600080fd5b610d8087828601610c4b565b60808301525095945050505050565b634e487b7160e01b600052602160045260246000fd5b81835281816020850137506000828201602090810191909152601f909101601f19169091010190565b6000608082016001600160401b03808816845260206080818601528287845260a08601905060a08860051b87010193508860005b89811015610e6a57878603609f190183528135368c9003601e19018112610e2857600080fd5b8b01848101903586811115610e3c57600080fd5b803603821315610e4b57600080fd5b610e56888284610da5565b975050509183019190830190600101610e02565b50505050508281036040840152610e818185610b08565b838103606085015260008152905060208101979650505050505050565b601f82111561065d57600081815260208120601f850160051c81016020861015610ec55750805b601f850160051c820191505b81811015610ee457828155600101610ed1565b505050505050565b81516001600160401b03811115610f0557610f05610adc565b610f1981610f138454610aa2565b84610e9e565b602080601f831160018114610f4e5760008415610f365750858301515b600019600386901b1c1916600185901b178555610ee4565b600085815260208120601f198616915b82811015610f7d57888601518255948401946001909101908401610f5e565b5085821015610f9b5787850151600019600388901b60f8161c191681555b5050505050600190811b0190555056fea2646970667358221220237e8b4747e453d23c203200f423047d09adb250cb11390b5390cf6cb6106a2b64736f6c63430008140033",
  "devdoc": {
    "kind": "dev",
    "methods": {},
    "version": 1
  },
  "userdoc": {
    "kind": "user",
    "methods": {},
    "version": 1
  },
  "storageLayout": {
    "storage": [
      {
        "astId": 3652,
        "contract": "contracts/Clients/BackstoryFunctionClient.sol:BackstoryFunctionClient",
        "label": "BACKSTORY_ENDPOINT",
        "offset": 0,
        "slot": "0",
        "type": "t_uint64"
      },
      {
        "astId": 3655,
        "contract": "contracts/Clients/BackstoryFunctionClient.sol:BackstoryFunctionClient",
        "label": "ART_ALT_ENDPOINT",
        "offset": 8,
        "slot": "0",
        "type": "t_uint64"
      },
      {
        "astId": 3659,
        "contract": "contracts/Clients/BackstoryFunctionClient.sol:BackstoryFunctionClient",
        "label": "backstory",
        "offset": 0,
        "slot": "1",
        "type": "t_mapping(t_address,t_string_storage)"
      },
      {
        "astId": 3663,
        "contract": "contracts/Clients/BackstoryFunctionClient.sol:BackstoryFunctionClient",
        "label": "altArt",
        "offset": 0,
        "slot": "2",
        "type": "t_mapping(t_address,t_string_storage)"
      },
      {
        "astId": 3667,
        "contract": "contracts/Clients/BackstoryFunctionClient.sol:BackstoryFunctionClient",
        "label": "requests",
        "offset": 0,
        "slot": "3",
        "type": "t_mapping(t_bytes32,t_address)"
      }
    ],
    "types": {
      "t_address": {
        "encoding": "inplace",
        "label": "address",
        "numberOfBytes": "20"
      },
      "t_bytes32": {
        "encoding": "inplace",
        "label": "bytes32",
        "numberOfBytes": "32"
      },
      "t_mapping(t_address,t_string_storage)": {
        "encoding": "mapping",
        "key": "t_address",
        "label": "mapping(address => string)",
        "numberOfBytes": "32",
        "value": "t_string_storage"
      },
      "t_mapping(t_bytes32,t_address)": {
        "encoding": "mapping",
        "key": "t_bytes32",
        "label": "mapping(bytes32 => address)",
        "numberOfBytes": "32",
        "value": "t_address"
      },
      "t_string_storage": {
        "encoding": "bytes",
        "label": "string",
        "numberOfBytes": "32"
      },
      "t_uint64": {
        "encoding": "inplace",
        "label": "uint64",
        "numberOfBytes": "8"
      }
    }
  }
}